{"contracts/AVNBridge.sol":{"AVNBridge":{"abi":[{"inputs":[{"internalType":"address","name":"t1Address","type":"address"}],"name":"AddressAlreadyInUse","type":"error"},{"inputs":[{"internalType":"address","name":"t1Address","type":"address"},{"internalType":"bytes","name":"t1PublicKey","type":"bytes"}],"name":"AddressMismatch","type":"error"},{"inputs":[],"name":"AmountCannotBeZero","type":"error"},{"inputs":[{"internalType":"bytes32","name":"existingT2PublicKey","type":"bytes32"}],"name":"CannotChangeT2PublicKey","type":"error"},{"inputs":[],"name":"CannotReceiveETHUnlessLifting","type":"error"},{"inputs":[],"name":"CoreMintFailed","type":"error"},{"inputs":[],"name":"ERC20LiftingOnly","type":"error"},{"inputs":[],"name":"GrowthPeriodAlreadyUsed","type":"error"},{"inputs":[],"name":"GrowthUnavailableForPeriod","type":"error"},{"inputs":[],"name":"InvalidConfirmations","type":"error"},{"inputs":[],"name":"InvalidERC777Token","type":"error"},{"inputs":[],"name":"InvalidLowerData","type":"error"},{"inputs":[],"name":"InvalidQuorum","type":"error"},{"inputs":[],"name":"InvalidT1PublicKey","type":"error"},{"inputs":[],"name":"InvalidT2PublicKey","type":"error"},{"inputs":[],"name":"LiftLimitExceeded","type":"error"},{"inputs":[],"name":"LiftingIsDisabled","type":"error"},{"inputs":[],"name":"LowerAlreadyUsed","type":"error"},{"inputs":[],"name":"LoweringIsDisabled","type":"error"},{"inputs":[],"name":"MissingValidatorKeys","type":"error"},{"inputs":[],"name":"NoCoreTokenSupplied","type":"error"},{"inputs":[],"name":"NotALowerTransaction","type":"error"},{"inputs":[],"name":"OwnerOnly","type":"error"},{"inputs":[],"name":"PaymentFailed","type":"error"},{"inputs":[{"internalType":"uint256","name":"releaseTime","type":"uint256"}],"name":"ReleaseTimeNotPassed","type":"error"},{"inputs":[],"name":"RootHashAlreadyPublished","type":"error"},{"inputs":[],"name":"SetCoreOwnerFailed","type":"error"},{"inputs":[{"internalType":"bytes32","name":"t2PublicKey","type":"bytes32"}],"name":"T2PublicKeyAlreadyInUse","type":"error"},{"inputs":[],"name":"TokensMustBeSentToThisAddress","type":"error"},{"inputs":[],"name":"TransactionIdAlreadyUsed","type":"error"},{"inputs":[],"name":"UnsignedTransaction","type":"error"},{"inputs":[],"name":"ValidatorAlreadyRegistered","type":"error"},{"inputs":[],"name":"ValidatorFunctionsAreDisabled","type":"error"},{"inputs":[],"name":"ValidatorNotRegistered","type":"error"},{"anonymous":false,"inputs":[{"indexed":false,"internalType":"address","name":"previousAdmin","type":"address"},{"indexed":false,"internalType":"address","name":"newAdmin","type":"address"}],"name":"AdminChanged","type":"event"},{"anonymous":false,"inputs":[{"indexed":true,"internalType":"address","name":"beacon","type":"address"}],"name":"BeaconUpgraded","type":"event"},{"anonymous":false,"inputs":[{"indexed":false,"internalType":"uint8","name":"version","type":"uint8"}],"name":"Initialized","type":"event"},{"anonymous":false,"inputs":[{"indexed":true,"internalType":"uint256","name":"amount","type":"uint256"},{"indexed":true,"internalType":"uint32","name":"period","type":"uint32"}],"name":"LogGrowth","type":"event"},{"anonymous":false,"inputs":[{"indexed":false,"internalType":"uint256","name":"oldDelaySeconds","type":"uint256"},{"indexed":false,"internalType":"uint256","name":"newDelaySeconds","type":"uint256"}],"name":"LogGrowthDelayUpdated","type":"event"},{"anonymous":false,"inputs":[{"indexed":false,"internalType":"uint32","name":"period","type":"uint32"}],"name":"LogGrowthDenied","type":"event"},{"anonymous":false,"inputs":[{"indexed":true,"internalType":"uint256","name":"amount","type":"uint256"},{"indexed":true,"internalType":"uint32","name":"period","type":"uint32"},{"indexed":true,"internalType":"uint256","name":"releaseTime","type":"uint256"}],"name":"LogGrowthTriggered","type":"event"},{"anonymous":false,"inputs":[{"indexed":true,"internalType":"address","name":"token","type":"address"},{"indexed":true,"internalType":"address","name":"t1Address","type":"address"},{"indexed":true,"internalType":"bytes32","name":"t2PublicKey","type":"bytes32"},{"indexed":false,"internalType":"uint256","name":"amount","type":"uint256"}],"name":"LogLifted","type":"event"},{"anonymous":false,"inputs":[{"indexed":false,"internalType":"bool","name":"state","type":"bool"}],"name":"LogLiftingIsEnabled","type":"event"},{"anonymous":false,"inputs":[{"indexed":false,"internalType":"bytes2","name":"callId","type":"bytes2"},{"indexed":false,"internalType":"uint256","name":"numBytes","type":"uint256"}],"name":"LogLowerCallUpdated","type":"event"},{"anonymous":false,"inputs":[{"indexed":true,"internalType":"address","name":"token","type":"address"},{"indexed":true,"internalType":"address","name":"t1Address","type":"address"},{"indexed":true,"internalType":"bytes32","name":"t2PublicKey","type":"bytes32"},{"indexed":false,"internalType":"uint256","name":"amount","type":"uint256"}],"name":"LogLowered","type":"event"},{"anonymous":false,"inputs":[{"indexed":false,"internalType":"bool","name":"state","type":"bool"}],"name":"LogLoweringIsEnabled","type":"event"},{"anonymous":false,"inputs":[{"indexed":false,"internalType":"uint256[2]","name":"quorum","type":"uint256[2]"}],"name":"LogQuorumUpdated","type":"event"},{"anonymous":false,"inputs":[{"indexed":true,"internalType":"bytes32","name":"rootHash","type":"bytes32"},{"indexed":true,"internalType":"uint256","name":"t2TransactionId","type":"uint256"}],"name":"LogRootPublished","type":"event"},{"anonymous":false,"inputs":[{"indexed":true,"internalType":"bytes32","name":"t1PublicKeyLHS","type":"bytes32"},{"indexed":false,"internalType":"bytes32","name":"t1PublicKeyRHS","type":"bytes32"},{"indexed":true,"internalType":"bytes32","name":"t2PublicKey","type":"bytes32"},{"indexed":true,"internalType":"uint256","name":"t2TransactionId","type":"uint256"}],"name":"LogValidatorDeregistered","type":"event"},{"anonymous":false,"inputs":[{"indexed":false,"internalType":"bool","name":"state","type":"bool"}],"name":"LogValidatorFunctionsAreEnabled","type":"event"},{"anonymous":false,"inputs":[{"indexed":true,"internalType":"bytes32","name":"t1PublicKeyLHS","type":"bytes32"},{"indexed":false,"internalType":"bytes32","name":"t1PublicKeyRHS","type":"bytes32"},{"indexed":true,"internalType":"bytes32","name":"t2PublicKey","type":"bytes32"},{"indexed":true,"internalType":"uint256","name":"t2TransactionId","type":"uint256"}],"name":"LogValidatorRegistered","type":"event"},{"anonymous":false,"inputs":[{"indexed":true,"internalType":"address","name":"previousOwner","type":"address"},{"indexed":true,"internalType":"address","name":"newOwner","type":"address"}],"name":"OwnershipTransferred","type":"event"},{"anonymous":false,"inputs":[{"indexed":true,"internalType":"address","name":"implementation","type":"address"}],"name":"Upgraded","type":"event"},{"inputs":[{"internalType":"bytes32","name":"leafHash","type":"bytes32"},{"internalType":"bytes32[]","name":"merklePath","type":"bytes32[]"}],"name":"confirmAvnTransaction","outputs":[{"internalType":"bool","name":"","type":"bool"}],"stateMutability":"view","type":"function"},{"inputs":[],"name":"coreToken","outputs":[{"internalType":"address","name":"","type":"address"}],"stateMutability":"view","type":"function"},{"inputs":[{"internalType":"uint32","name":"period","type":"uint32"}],"name":"denyGrowth","outputs":[],"stateMutability":"nonpayable","type":"function"},{"inputs":[{"internalType":"bytes","name":"t1PublicKey","type":"bytes"},{"internalType":"bytes32","name":"t2PublicKey","type":"bytes32"},{"internalType":"uint256","name":"t2TransactionId","type":"uint256"},{"internalType":"bytes","name":"confirmations","type":"bytes"}],"name":"deregisterValidator","outputs":[],"stateMutability":"nonpayable","type":"function"},{"inputs":[{"internalType":"uint32","name":"","type":"uint32"}],"name":"growthAmount","outputs":[{"internalType":"uint128","name":"","type":"uint128"}],"stateMutability":"view","type":"function"},{"inputs":[],"name":"growthDelay","outputs":[{"internalType":"uint256","name":"","type":"uint256"}],"stateMutability":"view","type":"function"},{"inputs":[{"internalType":"uint32","name":"","type":"uint32"}],"name":"growthRelease","outputs":[{"internalType":"uint256","name":"","type":"uint256"}],"stateMutability":"view","type":"function"},{"inputs":[{"internalType":"bytes32","name":"","type":"bytes32"}],"name":"hasLowered","outputs":[{"internalType":"bool","name":"","type":"bool"}],"stateMutability":"view","type":"function"},{"inputs":[{"internalType":"uint256","name":"","type":"uint256"}],"name":"idToT1Address","outputs":[{"internalType":"address","name":"","type":"address"}],"stateMutability":"view","type":"function"},{"inputs":[{"internalType":"uint256","name":"","type":"uint256"}],"name":"idToT2PublicKey","outputs":[{"internalType":"bytes32","name":"","type":"bytes32"}],"stateMutability":"view","type":"function"},{"inputs":[{"internalType":"address","name":"_coreToken","type":"address"},{"internalType":"address","name":"_priorInstance","type":"address"}],"name":"initialize","outputs":[],"stateMutability":"nonpayable","type":"function"},{"inputs":[{"internalType":"uint256","name":"","type":"uint256"}],"name":"isActiveValidator","outputs":[{"internalType":"bool","name":"","type":"bool"}],"stateMutability":"view","type":"function"},{"inputs":[{"internalType":"bytes32","name":"","type":"bytes32"}],"name":"isPublishedRootHash","outputs":[{"internalType":"bool","name":"","type":"bool"}],"stateMutability":"view","type":"function"},{"inputs":[{"internalType":"uint256","name":"","type":"uint256"}],"name":"isRegisteredValidator","outputs":[{"internalType":"bool","name":"","type":"bool"}],"stateMutability":"view","type":"function"},{"inputs":[{"internalType":"uint256","name":"","type":"uint256"}],"name":"isUsedT2TransactionId","outputs":[{"internalType":"bool","name":"","type":"bool"}],"stateMutability":"view","type":"function"},{"inputs":[{"internalType":"address","name":"erc20Address","type":"address"},{"internalType":"bytes","name":"t2PublicKey","type":"bytes"},{"internalType":"uint256","name":"amount","type":"uint256"}],"name":"lift","outputs":[],"stateMutability":"nonpayable","type":"function"},{"inputs":[{"internalType":"bytes","name":"t2PublicKey","type":"bytes"}],"name":"liftETH","outputs":[],"stateMutability":"payable","type":"function"},{"inputs":[],"name":"liftingIsEnabled","outputs":[{"internalType":"bool","name":"","type":"bool"}],"stateMutability":"view","type":"function"},{"inputs":[{"internalType":"address[]","name":"t1Address","type":"address[]"},{"internalType":"bytes32[]","name":"t1PublicKeyLHS","type":"bytes32[]"},{"internalType":"bytes32[]","name":"t1PublicKeyRHS","type":"bytes32[]"},{"internalType":"bytes32[]","name":"t2PublicKey","type":"bytes32[]"}],"name":"loadValidators","outputs":[],"stateMutability":"nonpayable","type":"function"},{"inputs":[{"internalType":"bytes","name":"leaf","type":"bytes"},{"internalType":"bytes32[]","name":"merklePath","type":"bytes32[]"}],"name":"lower","outputs":[],"stateMutability":"nonpayable","type":"function"},{"inputs":[],"name":"loweringIsEnabled","outputs":[{"internalType":"bool","name":"","type":"bool"}],"stateMutability":"view","type":"function"},{"inputs":[],"name":"nextValidatorId","outputs":[{"internalType":"uint256","name":"","type":"uint256"}],"stateMutability":"view","type":"function"},{"inputs":[],"name":"numActiveValidators","outputs":[{"internalType":"uint256","name":"","type":"uint256"}],"stateMutability":"view","type":"function"},{"inputs":[{"internalType":"bytes2","name":"","type":"bytes2"}],"name":"numBytesToLowerData","outputs":[{"internalType":"uint256","name":"","type":"uint256"}],"stateMutability":"view","type":"function"},{"inputs":[],"name":"owner","outputs":[{"internalType":"address","name":"","type":"address"}],"stateMutability":"view","type":"function"},{"inputs":[],"name":"proxiableUUID","outputs":[{"internalType":"bytes32","name":"","type":"bytes32"}],"stateMutability":"view","type":"function"},{"inputs":[{"internalType":"bytes32","name":"rootHash","type":"bytes32"},{"internalType":"uint256","name":"t2TransactionId","type":"uint256"},{"internalType":"bytes","name":"confirmations","type":"bytes"}],"name":"publishRoot","outputs":[],"stateMutability":"nonpayable","type":"function"},{"inputs":[{"internalType":"uint256","name":"","type":"uint256"}],"name":"quorum","outputs":[{"internalType":"uint256","name":"","type":"uint256"}],"stateMutability":"view","type":"function"},{"inputs":[{"internalType":"bytes","name":"t1PublicKey","type":"bytes"},{"internalType":"bytes32","name":"t2PublicKey","type":"bytes32"},{"internalType":"uint256","name":"t2TransactionId","type":"uint256"},{"internalType":"bytes","name":"confirmations","type":"bytes"}],"name":"registerValidator","outputs":[],"stateMutability":"nonpayable","type":"function"},{"inputs":[{"internalType":"uint32","name":"period","type":"uint32"}],"name":"releaseGrowth","outputs":[],"stateMutability":"nonpayable","type":"function"},{"inputs":[],"name":"renounceOwnership","outputs":[],"stateMutability":"nonpayable","type":"function"},{"inputs":[],"name":"setCoreOwner","outputs":[],"stateMutability":"nonpayable","type":"function"},{"inputs":[{"internalType":"uint256","name":"delaySeconds","type":"uint256"}],"name":"setGrowthDelay","outputs":[],"stateMutability":"nonpayable","type":"function"},{"inputs":[{"internalType":"uint256[2]","name":"_quorum","type":"uint256[2]"}],"name":"setQuorum","outputs":[],"stateMutability":"nonpayable","type":"function"},{"inputs":[{"internalType":"address","name":"","type":"address"}],"name":"t1AddressToId","outputs":[{"internalType":"uint256","name":"","type":"uint256"}],"stateMutability":"view","type":"function"},{"inputs":[{"internalType":"bytes32","name":"","type":"bytes32"}],"name":"t2PublicKeyToId","outputs":[{"internalType":"uint256","name":"","type":"uint256"}],"stateMutability":"view","type":"function"},{"inputs":[{"internalType":"bool","name":"state","type":"bool"}],"name":"toggleLifting","outputs":[],"stateMutability":"nonpayable","type":"function"},{"inputs":[{"internalType":"bool","name":"state","type":"bool"}],"name":"toggleLowering","outputs":[],"stateMutability":"nonpayable","type":"function"},{"inputs":[{"internalType":"bool","name":"state","type":"bool"}],"name":"toggleValidatorFunctions","outputs":[],"stateMutability":"nonpayable","type":"function"},{"inputs":[{"internalType":"address","name":"","type":"address"},{"internalType":"address","name":"from","type":"address"},{"internalType":"address","name":"to","type":"address"},{"internalType":"uint256","name":"amount","type":"uint256"},{"internalType":"bytes","name":"data","type":"bytes"},{"internalType":"bytes","name":"","type":"bytes"}],"name":"tokensReceived","outputs":[],"stateMutability":"nonpayable","type":"function"},{"inputs":[{"internalType":"address","name":"newOwner","type":"address"}],"name":"transferOwnership","outputs":[],"stateMutability":"nonpayable","type":"function"},{"inputs":[{"internalType":"uint128","name":"amount","type":"uint128"},{"internalType":"uint32","name":"period","type":"uint32"},{"internalType":"uint256","name":"t2TransactionId","type":"uint256"},{"internalType":"bytes","name":"confirmations","type":"bytes"}],"name":"triggerGrowth","outputs":[],"stateMutability":"nonpayable","type":"function"},{"inputs":[{"internalType":"bytes2","name":"callId","type":"bytes2"},{"internalType":"uint256","name":"numBytes","type":"uint256"}],"name":"updateLowerCall","outputs":[],"stateMutability":"nonpayable","type":"function"},{"inputs":[{"internalType":"address","name":"newImplementation","type":"address"}],"name":"upgradeTo","outputs":[],"stateMutability":"nonpayable","type":"function"},{"inputs":[{"internalType":"address","name":"newImplementation","type":"address"},{"internalType":"bytes","name":"data","type":"bytes"}],"name":"upgradeToAndCall","outputs":[],"stateMutability":"payable","type":"function"},{"inputs":[],"name":"validatorFunctionsAreEnabled","outputs":[{"internalType":"bool","name":"","type":"bool"}],"stateMutability":"view","type":"function"},{"stateMutability":"payable","type":"receive"}],"evm":{"bytecode":{"linkReferences":{},"object":"60a06040523060805234801561001457600080fd5b5060805161442461004c6000396000818161176d015281816117ad01528181611d1501528181611d550152611de801526144246000f3fe60806040526004361061027f5760003560e01c80638cacd6e71161014f578063c4c4e4a9116100c1578063e51d09211161007a578063e51d092114610845578063e5342ce614610875578063e8fed1d614610895578063f2fde38b146108c2578063f7c09189146108e2578063f8ce560a146108f857600080fd5b8063c4c4e4a91461076a578063c95970e514610780578063d2d6f4d5146107a1578063d3578a94146107e4578063d4b11e2614610805578063dcfe8fb31461082557600080fd5b80639e79fe6b116101135780639e79fe6b14610698578063aee37d39146106c5578063b9b17e7f146106d8578063bf69383914610708578063c4024f0e1461071d578063c460eb071461073d57600080fd5b80638cacd6e7146105ea5780638d2dde3f1461060a5780638da5cb5b1461062a5780638f78ea1b1461064857806399010d191461067857600080fd5b80633659cfe6116101f35780634fa182ea116101ac5780634fa182ea1461053357806352d1902d146105605780635b2b285b14610575578063715018a61461059557806388665ace146105aa57806389556bef146105ca57600080fd5b80633659cfe61461046f57806346971f4f1461048f578063485cc955146104bf57806349a19ac1146104df5780634a7d9f69146104ff5780634f1ef2861461052057600080fd5b80631a621052116102455780631a621052146103825780631b4097d8146103a257806328fa2fc8146103c2578063295eb8b7146103ff5780633083f7081461043957806334c192141461045957600080fd5b806223de29146102b65780624ac6bd146102d65780630c2b72e9146102f65780630caa99481461032c57806317a691aa1461034c57600080fd5b366102b15760db546001600160a01b031633146102af576040516302a9f21b60e41b815260040160405180910390fd5b005b600080fd5b3480156102c257600080fd5b506102af6102d1366004613219565b610918565b3480156102e257600080fd5b506102af6102f136600461332b565b610bb4565b34801561030257600080fd5b5060da54610316906001600160a01b031681565b6040516103239190613405565b60405180910390f35b34801561033857600080fd5b506102af610347366004613413565b610e00565b34801561035857600080fd5b50610316610367366004613482565b60cd602052600090815260409020546001600160a01b031681565b34801561038e57600080fd5b506102af61039d3660046135a4565b611130565b3480156103ae57600080fd5b506102af6103bd3660046135d8565b6111b1565b3480156103ce57600080fd5b506103f26103dd366004613482565b60c96020526000908152604090205460ff1681565b6040516103239190613601565b34801561040b57600080fd5b5061042c61041a366004613626565b60d36020526000908152604090205481565b604051610323919061364d565b34801561044557600080fd5b506102af6104543660046136f1565b611200565b34801561046557600080fd5b5061042c60d95481565b34801561047b57600080fd5b506102af61048a366004613765565b611763565b34801561049b57600080fd5b506103f26104aa366004613482565b60ca6020526000908152604090205460ff1681565b3480156104cb57600080fd5b506102af6104da366004613786565b611842565b3480156104eb57600080fd5b506102af6104fa3660046137c3565b611aa1565b34801561050b57600080fd5b5060db546103f290600160a01b900460ff1681565b6102af61052e36600461385f565b611d0b565b34801561053f57600080fd5b5061042c61054e3660046138c7565b60cf6020526000908152604090205481565b34801561056c57600080fd5b5061042c611ddb565b34801561058157600080fd5b506102af6105903660046137c3565b611e38565b3480156105a157600080fd5b506102af611fa7565b3480156105b657600080fd5b506102af6105c5366004613902565b611fbb565b3480156105d657600080fd5b506102af6105e53660046135d8565b6121bb565b3480156105f657600080fd5b506102af6106053660046135d8565b61220a565b34801561061657600080fd5b506102af610625366004613626565b612259565b34801561063657600080fd5b506097546001600160a01b0316610316565b34801561065457600080fd5b506103f2610663366004613482565b60d16020526000908152604090205460ff1681565b34801561068457600080fd5b506102af610693366004613482565b6122e9565b3480156106a457600080fd5b5061042c6106b3366004613482565b60ce6020526000908152604090205481565b6102af6106d336600461393a565b612331565b3480156106e457600080fd5b506103f26106f3366004613482565b60d06020526000908152604090205460ff1681565b34801561071457600080fd5b506102af61240f565b34801561072957600080fd5b506102af610738366004613981565b6124d1565b34801561074957600080fd5b5061042c610758366004613482565b60cc6020526000908152604090205481565b34801561077657600080fd5b5061042c60d75481565b34801561078c57600080fd5b5060db546103f290600160b01b900460ff1681565b3480156107ad57600080fd5b506107d76107bc366004613626565b60d4602052600090815260409020546001600160801b031681565b60405161032391906139fd565b3480156107f057600080fd5b5060db546103f290600160a81b900460ff1681565b34801561081157600080fd5b506102af610820366004613626565b6125c6565b34801561083157600080fd5b506102af610840366004613a0b565b612616565b34801561085157600080fd5b506103f2610860366004613482565b60d26020526000908152604090205460ff1681565b34801561088157600080fd5b506103f2610890366004613ad6565b612678565b3480156108a157600080fd5b5061042c6108b0366004613765565b60cb6020526000908152604090205481565b3480156108ce57600080fd5b506102af6108dd366004613765565b612730565b3480156108ee57600080fd5b5061042c60d85481565b34801561090457600080fd5b5061042c610913366004613482565b612767565b60db54600160a81b900460ff166109425760405163f51cba7760e01b815260040160405180910390fd5b60db546001600160a01b03888116911614610baa578215801561096c57506001600160a01b038716155b8015610982575060da546001600160a01b031633145b610baa57846000036109a75760405163d11b25af60e01b815260040160405180910390fd5b6001600160a01b03861630146109d057604051632e47ff8360e21b815260040160405180910390fd5b60405163555ddc6560e11b81523390731820a4b7618bde71dce8cdc73aab6c95905fad249063aabbb8ca90610a2b9084907fac7fbab5f54a3ca8194167523c6753bfeb96a445279294b6125b68cce217705490600401613b23565b602060405180830381865afa158015610a48573d6000803e3d6000fd5b505050506040513d601f19601f82011682018060405250810190610a6c9190613b49565b6001600160a01b031614610a9357604051634709cb2760e01b815260040160405180910390fd5b6040516370a0823160e01b81526001600160801b039033906370a0823190610abf903090600401613405565b602060405180830381865afa158015610adc573d6000803e3d6000fd5b505050506040513d601f19601f82011682018060405250810190610b009190613b75565b1115610b1f57604051636e2c048760e11b815260040160405180910390fd5b610b5e84848080601f01602080910402602001604051908101604052809392919081815260200183838082843760009201919091525061277e92505050565b876001600160a01b0316336001600160a01b03167f8964776336bc2fa8ecaaf70b6f8e8450807efb1ff78f8b87980707aa821f0ec088604051610ba1919061364d565b60405180910390a45b5050505050505050565b610bbc6127ab565b866000806060888414801590610bd25750868414155b8015610bde5750848414155b15610bfc57604051636ce6742360e11b815260040160405180910390fd5b60005b84811015610df1578c8c82818110610c1957610c19613b96565b9050602002016020810190610c2e9190613765565b9250868682818110610c4257610c42613b96565b6001600160a01b038616600090815260cb60209081526040909120549102929092013595505015610c9157826040516307bbad8160e51b8152600401610c889190613405565b60405180910390fd5b600084815260cc602052604090205415610cc0578360405163e75b239b60e01b8152600401610c88919061364d565b8a8a82818110610cd257610cd2613b96565b90506020020135898983818110610ceb57610ceb613b96565b90506020020135604051602001610d03929190613baf565b6040516020818303038152906040529150826001600160a01b0316828051906020012060001c6001600160a01b031614610d545782826040516335c5d73760e01b8152600401610c88929190613c2b565b60d88054600090815260cd6020908152604080832080546001600160a01b0319166001600160a01b0389169081179091558454845260ce8352818420899055845490845260cb835281842081905588845260cc8352818420819055835260c98252808320805460ff1990811660019081179092558554855260ca909352922080549091168217905560d78054820190558154810190915501610bff565b50505050505050505050505050565b60db54600160a81b900460ff16610e2a5760405163f51cba7760e01b815260040160405180910390fd5b60405163555ddc6560e11b8152600090731820a4b7618bde71dce8cdc73aab6c95905fad249063aabbb8ca90610e869088907fac7fbab5f54a3ca8194167523c6753bfeb96a445279294b6125b68cce217705490600401613b23565b602060405180830381865afa158015610ea3573d6000803e3d6000fd5b505050506040513d601f19601f82011682018060405250810190610ec79190613b49565b6001600160a01b031614610eee5760405163db6e87f160e01b815260040160405180910390fd5b80600003610f0f5760405163d11b25af60e01b815260040160405180910390fd5b6040516370a0823160e01b815284906000906001600160a01b038316906370a0823190610f40903090600401613405565b602060405180830381865afa158015610f5d573d6000803e3d6000fd5b505050506040513d601f19601f82011682018060405250810190610f819190613b75565b6040516323b872dd60e01b81529091506001600160a01b038316906323b872dd90610fb490339030908890600401613c4b565b6020604051808303816000875af1158015610fd3573d6000803e3d6000fd5b505050506040513d601f19601f82011682018060405250810190610ff79190613c7e565b61100357611003613c9f565b6040516370a0823160e01b81526000906001600160a01b038416906370a0823190611032903090600401613405565b602060405180830381865afa15801561104f573d6000803e3d6000fd5b505050506040513d601f19601f820116820180604052508101906110739190613b75565b90506001600160801b0381111561109d57604051636e2c048760e11b815260040160405180910390fd5b6110dc86868080601f01602080910402602001604051908101604052809392919081815260200183838082843760009201919091525061277e92505050565b336001600160a01b0389167f8964776336bc2fa8ecaaf70b6f8e8450807efb1ff78f8b87980707aa821f0ec06111128686613ccb565b60405161111f919061364d565b60405180910390a450505050505050565b6111386127ab565b8051158061114a575060208101518151115b156111685760405163d173577960e01b815260040160405180910390fd5b61117560d5826002613134565b507fc7d2ab69ce7a42db5ca306ca58373ae7719b64ba1a5d0a86abdccea27fcfd8f960d56040516111a69190613d37565b60405180910390a150565b6111b96127ab565b60db805460ff60a81b1916600160a81b831515021790556040517f1cd6419035c493f53970c075a2a1c916d76018df8e189468f4c21c360e7c8aa9906111a6908390613601565b60db54600160b01b900460ff1661122a576040516399860ded60e01b815260040160405180910390fd5b6000838051906020012090506112738184848080602002602001604051908101604052809392919081815260200183836020028082843760009201919091525061267892505050565b611290576040516357bf35b360e11b815260040160405180910390fd5b600081815260d2602052604090205460ff16156112c057604051630cc3317f60e41b815260040160405180910390fd5b600081815260d260205260408120805460ff19166001179055845181908190819081908190819061130f908c9083906112fb576112fb613b96565b01602001516001600160f81b0319166127d5565b860195508a868151811061132557611325613b96565b60209101015160f81c6080166000036113515760405163227c863b60e21b815260040160405180910390fd5b6063860195508a868151811061136957611369613b96565b01602001516001600160f81b03191615611384576002611387565b60015b60ff16860195506113a38b87815181106112fb576112fb613b96565b860195506113bc8b87815181106112fb576112fb613b96565b9095018a81016020908101516001600160f01b03198116600090815260cf8352604081205499509190920196508790036114095760405163469de68760e11b815260040160405180910390fd5b9486018a8101805160148201516024830151603890930151939891975095509193506eff000000ff000000ff000000ff0000600882811c9182166fff000000ff000000ff000000ff0000009390911b92831617601090811c6cff000000ff000000ff000000ff9092166dff000000ff000000ff000000ff009093169290921790911b17602081811c6bffffffff00000000ffffffff166fffffffff00000000ffffffff000000009290911b9190911617604081811c91901b17915073eeeeeeeeeeeeeeeeeeeeeeeeeeeeeeeeeeeeeeed196001600160a01b03851601611575576000836001600160a01b0316836001600160801b031660405161150b90613d4d565b60006040518083038185875af1925050503d8060008114611548576040519150601f19603f3d011682016040523d82523d6000602084013e61154d565b606091505b505090508061156f576040516307a4ced160e51b815260040160405180910390fd5b5061170a565b60405163555ddc6560e11b81526001600160a01b03851690731820a4b7618bde71dce8cdc73aab6c95905fad249063aabbb8ca906115d99088907fac7fbab5f54a3ca8194167523c6753bfeb96a445279294b6125b68cce217705490600401613b23565b602060405180830381865afa1580156115f6573d6000803e3d6000fd5b505050506040513d601f19601f8201168201806040525081019061161a9190613b49565b6001600160a01b03160361168d57604051634decdde360e11b81526001600160a01b03851690639bd9bbc6906116569086908690600401613d84565b600060405180830381600087803b15801561167057600080fd5b505af1158015611684573d6000803e3d6000fd5b5050505061170a565b60405163a9059cbb60e01b81526001600160a01b0385169063a9059cbb906116bb9086908690600401613db0565b6020604051808303816000875af11580156116da573d6000803e3d6000fd5b505050506040513d601f19601f820116820180604052508101906116fe9190613c7e565b61170a5761170a613c9f565b84836001600160a01b0316856001600160a01b03167fea1b69480b8e6df6e2fba9e1fa47698276db9338f7de0d7c3a58cce4a94f450f8560405161174e9190613dcb565b60405180910390a45050505050505050505050565b6001600160a01b037f00000000000000000000000000000000000000000000000000000000000000001630036117ab5760405162461bcd60e51b8152600401610c8890613e25565b7f00000000000000000000000000000000000000000000000000000000000000006001600160a01b03166117f46000805160206143a8833981519152546001600160a01b031690565b6001600160a01b03161461181a5760405162461bcd60e51b8152600401610c8890613e7e565b6118238161282b565b6040805160008082526020820190925261183f91839190612833565b50565b600054610100900460ff16158080156118625750600054600160ff909116105b8061187c5750303b15801561187c575060005460ff166001145b6118985760405162461bcd60e51b8152600401610c8890613ed9565b6000805460ff1916600117905580156118bb576000805461ff0019166101001790555b6001600160a01b0383166118e55760405160016201840560e51b0319815260040160405180910390fd5b6118ed612915565b60da80546001600160a01b038086166001600160a01b03199283161790925560db8054928516929091169190911790556040516329965a1d60e01b8152731820a4b7618bde71dce8cdc73aab6c95905fad24906329965a1d906119789030907fb281fc8c12954d22544db45de3159a39272895b169a852b314f9cc762e44c53b908290600401613ee9565b600060405180830381600087803b15801561199257600080fd5b505af11580156119a6573d6000803e3d6000fd5b505060cf602052505060857f474cf5cd8a156a285bdb013cd5ad88639478d8c2df5dd0da103de5e0c93be11f8190557f260a2a8177dfbdaed58acd0b3df5d4289c584f88be17037c5ed3bb018cde816955612b8160f11b60005260027f475ac2ade161108313ceef0815ca8140b4df68a82031c72f4e2f14414795106581905560db805462ffffff60a01b19166201010160a01b179055600160d85560d555600360d65562093a8060d9558015611a9c576000805461ff00191690556040517f7f26b83ff96e1f2b6a682f133852f6798a09c465da95921460cefb384740249890611a9390600190613f25565b60405180910390a15b505050565b60db54600160a01b900460ff16611acb57604051630cbcd94760e21b815260040160405180910390fd5b8451604014611aed57604051630d4a420160e11b815260040160405180910390fd5b84516020808701919091206001600160a01b038116600090815260cb835260408082205480835260c990945290205490919060ff1615611b405760405163132e7efb60e31b815260040160405180910390fd5b60008787604051602001611b55929190613f55565b604051602081830303815290604052805190602001209050611bb6611b7a8288612944565b86868080601f01602080910402602001604051908101604052809392919081815260200183838082843760009201919091525061299192505050565b611bbf86612c43565b81600003611c5c57600087815260cc602052604090205415611bf6578660405163e75b239b60e01b8152600401610c88919061364d565b60d88054600081815260cd6020908152604080832080546001600160a01b0319166001600160a01b038a16908117909155835260cb825280832084905583835260ce82528083208c90558b835260cc909152902081905581546001019091559150611c9b565b600082815260ce60205260409020548714611c9b57600082815260ce602052604090819020549051631241dd0560e21b8152610c88919060040161364d565b600082815260c96020908152604091829020805460ff1916600117905589015189820151915190919088908a9084907fff083a6e395a67771f3c9108922bc274c27b38b48c210b0f6a8c5f4710c0494b90611cf790869061364d565b60405180910390a450505050505050505050565b6001600160a01b037f0000000000000000000000000000000000000000000000000000000000000000163003611d535760405162461bcd60e51b8152600401610c8890613e25565b7f00000000000000000000000000000000000000000000000000000000000000006001600160a01b0316611d9c6000805160206143a8833981519152546001600160a01b031690565b6001600160a01b031614611dc25760405162461bcd60e51b8152600401610c8890613e7e565b611dcb8261282b565b611dd782826001612833565b5050565b6000306001600160a01b037f00000000000000000000000000000000000000000000000000000000000000001614611e255760405162461bcd60e51b8152600401610c8890613fc7565b506000805160206143a883398151915290565b60db54600160a01b900460ff16611e6257604051630cbcd94760e21b815260040160405180910390fd5b600084815260cc602090815260408083205480845260c99092529091205460ff16611ea05760405163510b8aad60e11b815260040160405180910390fd5b60008587604051602001611eb5929190613fd7565b604051602081830303815290604052805190602001209050611f16611eda8287612944565b85858080601f01602080910402602001604051908101604052809392919081815260200183838082843760009201919091525061299192505050565b611f1f85612c43565b600082815260c960209081526040808320805460ff1990811690915560ca835292819020805490931690925560d780546000190190558801518882015191519091908790899084907ff3ead85a271457d1249724c811bec3349855a5f1463cac7de6bb3e7801e6d17690611f9490869061364d565b60405180910390a4505050505050505050565b611faf6127ab565b611fb96000612c8e565b565b60db54600160a01b900460ff16611fe557604051630cbcd94760e21b815260040160405180910390fd5b846001600160801b031660000361200f5760405163d11b25af60e01b815260040160405180910390fd5b63ffffffff8416600090815260d460205260409020546001600160801b03161561204c57604051631e85d64560e11b815260040160405180910390fd5b63ffffffff8416600090815260d46020526040812080546fffffffffffffffffffffffffffffffff19166001600160801b0388161790558190036120c4576097546001600160a01b031633146120b557604051630b2db9b760e31b815260040160405180910390fd5b6120bf8585612ce0565b6121b4565b600085856040516020016120d9929190613fff565b60405160208183030381529060405280519060200120905061213a6120fe8286612944565b84848080601f01602080910402602001604051908101604052809392919081815260200183838082843760009201919091525061299192505050565b61214384612c43565b60d95460000361215c576121578686612ce0565b6121b2565b60d95463ffffffff8616600081815260d360205260408082204290940193849055518392916001600160801b038b16917f72ce45afe06a144fbb1f267fb94bcb4c9696c3628d36ef4795e65bb110f5e85f9190a4505b505b5050505050565b6121c36127ab565b60db805460ff60a01b1916600160a01b831515021790556040517fddbff3b04f8f09b378dea661b2bee67bbedea1db50196599cd887499d1f445d2906111a6908390613601565b6122126127ab565b60db805460ff60b01b1916600160b01b831515021790556040517f236540b1dc0f95bdefe04c9e02c5edcc415f7bf4d44dac6ab16528feba25f7ed906111a6908390613601565b63ffffffff8116600090815260d3602052604081205490819003612290576040516333b37f5f60e11b815260040160405180910390fd5b804210156122b35780604051633c4e91a560e11b8152600401610c88919061364d565b63ffffffff8216600090815260d36020908152604080832083905560d4909152902054611dd7906001600160801b031683612ce0565b6122f16127ab565b7f44cf508136a645cbe72b5020f8b6a5f8965d58b314e39c47878ea4429ecbe45960d9548260405161232492919061401a565b60405180910390a160d955565b60db54600160a81b900460ff1661235b5760405163f51cba7760e01b815260040160405180910390fd5b3460000361237c5760405163d11b25af60e01b815260040160405180910390fd5b6123bb82828080601f01602080910402602001604051908101604052809392919081815260200183838082843760009201919091525061277e92505050565b604051339073eeeeeeeeeeeeeeeeeeeeeeeeeeeeeeeeeeeeeeee907f8964776336bc2fa8ecaaf70b6f8e8450807efb1ff78f8b87980707aa821f0ec09061240390349061364d565b60405180910390a45050565b6124176127ab565b60da546040516000916001600160a01b031690612438903390602401613405565b60408051601f198184030181529181526020820180516001600160e01b03166313af403560e01b1790525161246d9190614028565b6000604051808303816000865af19150503d80600081146124aa576040519150601f19603f3d011682016040523d82523d6000602084013e6124af565b606091505b505090508061183f57604051633c33064360e21b815260040160405180910390fd5b60db54600160a01b900460ff166124fb57604051630cbcd94760e21b815260040160405180910390fd5b6125446125088585612944565b83838080601f01602080910402602001604051908101604052809392919081815260200183838082843760009201919091525061299192505050565b61254d83612c43565b600084815260d0602052604090205460ff161561257d576040516327a7ec4b60e01b815260040160405180910390fd5b600084815260d06020526040808220805460ff1916600117905551849186917ffe808338418de30500c1a16538c15061c01827981732033cf0d1b9bc046417039190a350505050565b6125ce6127ab565b63ffffffff8116600090815260d3602052604080822091909155517f548e97efcf29c8c170cf478f03b2258c006aa1489cd2de404c816e4da1cd3979906111a6908390614034565b61261e6127ab565b6001600160f01b03198216600090815260cf602052604090819020829055517f8a2052ee12aa0ad46deb771b8cc507be8e8e773fd206bf9bd3603c36d59de1229061266c9084908490614052565b60405180910390a15050565b8051600090839082805b828110156127125785818151811061269c5761269c613b96565b60200260200101519150818410156126de5783826040516020016126c192919061401a565b60405160208183030381529060405280519060200120935061270a565b81846040516020016126f192919061401a565b6040516020818303038152906040528051906020012093505b600101612682565b505050600090815260d0602052604090205460ff1690505b92915050565b6127386127ab565b6001600160a01b03811661275e5760405162461bcd60e51b8152600401610c88906140a3565b61183f81612c8e565b60d5816002811061277757600080fd5b0154905081565b600081516020146127a257604051630c41363960e31b815260040160405180910390fd5b61272a826140bd565b6097546001600160a01b03163314611fb95760405162461bcd60e51b8152600401610c88906140fc565b6000600360f883901c168082036127ef5760019150612825565b8060ff166001036128035760029150612825565b8060ff166002036128175760049150612825565b60ff600560fa85901c011691505b50919050565b61183f6127ab565b7f4910fdfa16fed3260ed0e7147f7cc6da11a60208b5b9406d12a635614ffd91435460ff161561286657611a9c83612f0c565b826001600160a01b03166352d1902d6040518163ffffffff1660e01b8152600401602060405180830381865afa9250505080156128c0575060408051601f3d908101601f191682019092526128bd91810190613b75565b60015b6128dc5760405162461bcd60e51b8152600401610c8890614181565b6000805160206143a883398151915281146129095760405162461bcd60e51b8152600401610c88906141d7565b50611a9c838383612f62565b600054610100900460ff1661293c5760405162461bcd60e51b8152600401610c889061422f565b611fb9612f8d565b33600090815260cb6020908152604080832054835260ce8252808320549051612973928692869290910161423f565b60405160208183030381529060405280519060200120905092915050565b6000826040516020016129a4919061425a565b60405160208183030381529060405280519060200120905060008060418451816129d0576129d0614295565b0491506129db612fbd565b905060008060008060008060d8546001600160401b03811115612a0057612a006134ab565b604051908082528060200260200182016040528015612a29578160200160208202803683370190505b50905060005b88811015612c1557604181028b016020810151604082015160609092015190965090945060001a9250601b831015612a6857601b830192505b8260ff16601b14158015612a8057508260ff16601c14155b80612aaa57507f7fffffffffffffffffffffffffffffff5d576e7357a4501ddfe92f46681b20a084115b15612ab757600101612a2f565b60cb600060018c86898960405160008152602001604052604051612ade94939291906142b4565b6020604051602081039080840390855afa158015612b00573d6000803e3d6000fd5b505060408051601f1901516001600160a01b0316835260208381019490945291820160009081205480825260ca90945291909120549197505060ff16612bbb57600086815260c9602052604090205460ff1615612bb657600086815260ca60205260409020805460ff1916600190811790915560d78054820190559690960195612b88612fbd565b9750868814612c15576001828781518110612ba557612ba5613b96565b911515602092830291909101909101525b612c0d565b818681518110612bcd57612bcd613b96565b6020026020010151612c0d576001808801978990030115612c15576001828781518110612bfc57612bfc613b96565b911515602092830291909101909101525b600101612a2f565b50868614612c36576040516311ed5d1f60e31b815260040160405180910390fd5b5050505050505050505050565b600081815260d1602052604090205460ff1615612c7357604051630970e53d60e21b815260040160405180910390fd5b600090815260d160205260409020805460ff19166001179055565b609780546001600160a01b038381166001600160a01b0319831681179093556040519116919082907f8be0079c531659141344cd1fd0a4f28419497f9722a3daafe3b4186f6b6457e090600090a35050565b60da546040516370a0823160e01b81526001600160a01b039091169060009082906370a0823190612d15903090600401613405565b602060405180830381865afa158015612d32573d6000803e3d6000fd5b505050506040513d601f19601f82011682018060405250810190612d569190613b75565b60da546040519192506000916001600160a01b0390911690612d7c9087906024016139fd565b60408051601f198184030181529181526020820180516001600160e01b03166334e9f10760e11b17905251612db19190614028565b6000604051808303816000865af19150503d8060008114612dee576040519150601f19603f3d011682016040523d82523d6000602084013e612df3565b606091505b505090506000836001600160a01b03166370a08231306040518263ffffffff1660e01b8152600401612e259190613405565b602060405180830381865afa158015612e42573d6000803e3d6000fd5b505050506040513d601f19601f82011682018060405250810190612e669190613b75565b90506001600160801b0386168301821580612e815750818114155b15612e9f57604051634a38145560e01b815260040160405180910390fd5b6001600160801b03821115612ec757604051636e2c048760e11b815260040160405180910390fd5b60405163ffffffff8716906001600160801b038916907f3ad58a8dc1110baa37ad88a68db14181b4ef0c69192dfa7699a9588960eca7fd90600090a350505050505050565b6001600160a01b0381163b612f335760405162461bcd60e51b8152600401610c8890614333565b6000805160206143a883398151915280546001600160a01b0319166001600160a01b0392909216919091179055565b612f6b83612ff5565b600082511180612f785750805b15611a9c57612f878383613035565b50505050565b600054610100900460ff16612fb45760405162461bcd60e51b8152600401610c889061422f565b611fb933612c8e565b60d75460d65460d5546000929190820281612fda57612fda614295565b049150808214612fed5781600101612fef565b815b91505090565b612ffe81612f0c565b6040516001600160a01b038216907fbc7cd75a20ee27fd9adebab32041f755214dbc6bffa90cc0225b39da2e5c2d3b90600090a250565b60606001600160a01b0383163b61305e5760405162461bcd60e51b8152600401610c8890614386565b600080846001600160a01b0316846040516130799190614028565b600060405180830381855af49150503d80600081146130b4576040519150601f19603f3d011682016040523d82523d6000602084013e6130b9565b606091505b50915091506130e182826040518060600160405280602781526020016143c8602791396130ea565b95945050505050565b606083156130f9575081613103565b613103838361310a565b9392505050565b81511561311a5781518083602001fd5b8060405162461bcd60e51b8152600401610c889190614396565b8260028101928215613162579160200282015b82811115613162578251825591602001919060010190613147565b5061316e929150613172565b5090565b5b8082111561316e5760008155600101613173565b60006001600160a01b03821661272a565b6131a181613187565b811461183f57600080fd5b803561272a81613198565b806131a1565b803561272a816131b7565b60008083601f8401126131dd576131dd600080fd5b5081356001600160401b038111156131f7576131f7600080fd5b60208301915083600182028301111561321257613212600080fd5b9250929050565b60008060008060008060008060c0898b03121561323857613238600080fd5b60006132448b8b6131ac565b98505060206132558b828c016131ac565b97505060406132668b828c016131ac565b96505060606132778b828c016131bd565b95505060808901356001600160401b0381111561329657613296600080fd5b6132a28b828c016131c8565b945094505060a08901356001600160401b038111156132c3576132c3600080fd5b6132cf8b828c016131c8565b92509250509295985092959890939650565b60008083601f8401126132f6576132f6600080fd5b5081356001600160401b0381111561331057613310600080fd5b60208301915083602082028301111561321257613212600080fd5b6000806000806000806000806080898b03121561334a5761334a600080fd5b88356001600160401b0381111561336357613363600080fd5b61336f8b828c016132e1565b985098505060208901356001600160401b0381111561339057613390600080fd5b61339c8b828c016132e1565b965096505060408901356001600160401b038111156133bd576133bd600080fd5b6133c98b828c016132e1565b945094505060608901356001600160401b038111156133ea576133ea600080fd5b6132cf8b828c016132e1565b6133ff81613187565b82525050565b6020810161272a82846133f6565b6000806000806060858703121561342c5761342c600080fd5b600061343887876131ac565b94505060208501356001600160401b0381111561345757613457600080fd5b613463878288016131c8565b93509350506040613476878288016131bd565b91505092959194509250565b60006020828403121561349757613497600080fd5b60006134a384846131bd565b949350505050565b634e487b7160e01b600052604160045260246000fd5b601f19601f83011681018181106001600160401b03821117156134e6576134e66134ab565b6040525050565b60006134f860405190565b905061350482826134c1565b919050565b60006001600160401b03821115613522576135226134ab565b5060200290565b600061353c61353784613509565b6134ed565b9050806020840283018581111561355557613555600080fd5b835b81811015613579578061356a88826131bd565b84525060209283019201613557565b5050509392505050565b600082601f83011261359757613597600080fd5b60026134a3848285613529565b6000604082840312156135b9576135b9600080fd5b60006134a38484613583565b8015156131a1565b803561272a816135c5565b6000602082840312156135ed576135ed600080fd5b60006134a384846135cd565b8015156133ff565b6020810161272a82846135f9565b63ffffffff81166131a1565b803561272a8161360f565b60006020828403121561363b5761363b600080fd5b60006134a3848461361b565b806133ff565b6020810161272a8284613647565b60006001600160401b03821115613674576136746134ab565b601f19601f83011660200192915050565b82818337506000910152565b600061369f6135378461365b565b9050828152602081018484840111156136ba576136ba600080fd5b6136c5848285613685565b509392505050565b600082601f8301126136e1576136e1600080fd5b81356134a3848260208601613691565b60008060006040848603121561370957613709600080fd5b83356001600160401b0381111561372257613722600080fd5b61372e868287016136cd565b93505060208401356001600160401b0381111561374d5761374d600080fd5b613759868287016132e1565b92509250509250925092565b60006020828403121561377a5761377a600080fd5b60006134a384846131ac565b6000806040838503121561379c5761379c600080fd5b60006137a885856131ac565b92505060206137b9858286016131ac565b9150509250929050565b6000806000806000608086880312156137de576137de600080fd5b85356001600160401b038111156137f7576137f7600080fd5b613803888289016136cd565b9550506020613814888289016131bd565b9450506040613825888289016131bd565b93505060608601356001600160401b0381111561384457613844600080fd5b613850888289016131c8565b92509250509295509295909350565b6000806040838503121561387557613875600080fd5b600061388185856131ac565b92505060208301356001600160401b038111156138a0576138a0600080fd5b6137b9858286016136cd565b6001600160f01b031981166131a1565b803561272a816138ac565b6000602082840312156138dc576138dc600080fd5b60006134a384846138bc565b6001600160801b0381166131a1565b803561272a816138e8565b60008060008060006080868803121561391d5761391d600080fd5b600061392988886138f7565b95505060206138148882890161361b565b6000806020838503121561395057613950600080fd5b82356001600160401b0381111561396957613969600080fd5b613975858286016131c8565b92509250509250929050565b6000806000806060858703121561399a5761399a600080fd5b60006139a687876131bd565b94505060206139b7878288016131bd565b93505060408501356001600160401b038111156139d6576139d6600080fd5b6139e2878288016131c8565b95989497509550505050565b6001600160801b0381166133ff565b6020810161272a82846139ee565b60008060408385031215613a2157613a21600080fd5b6000613a2d85856138bc565b92505060206137b9858286016131bd565b60006001600160401b03821115613a5757613a576134ab565b5060209081020190565b6000613a6f61353784613a3e565b83815290506020808201908402830185811115613a8e57613a8e600080fd5b835b818110156135795780613aa388826131bd565b84525060209283019201613a90565b600082601f830112613ac657613ac6600080fd5b81356134a3848260208601613a61565b60008060408385031215613aec57613aec600080fd5b6000613af885856131bd565b92505060208301356001600160401b03811115613b1757613b17600080fd5b6137b985828601613ab2565b60408101613b3182856133f6565b6131036020830184613647565b805161272a81613198565b600060208284031215613b5e57613b5e600080fd5b60006134a38484613b3e565b805161272a816131b7565b600060208284031215613b8a57613b8a600080fd5b60006134a38484613b6a565b634e487b7160e01b600052603260045260246000fd5b90565b6000613bbb8285613647565b602082019150613bcb8284613647565b5060200192915050565b60005b83811015613bf0578181015183820152602001613bd8565b50506000910152565b6000613c03825190565b808452602084019350613c1a818560208601613bd5565b601f01601f19169290920192915050565b60408101613c3982856133f6565b81810360208301526134a38184613bf9565b60608101613c5982866133f6565b613c6660208301856133f6565b6134a36040830184613647565b805161272a816135c5565b600060208284031215613c9357613c93600080fd5b60006134a38484613c73565b634e487b7160e01b600052600160045260246000fd5b634e487b7160e01b600052601160045260246000fd5b8181038181111561272a5761272a613cb5565b6000613cea8383613647565b505060200190565b60008161272a565b600061272a8254613cf2565b6002818060005b838110156121b257613d1e82613cfa565b613d288782613cde565b96505060019182019101613d0d565b6040810161272a8284613d06565b600081612fef565b600061272a82613d45565b600061272a613bac6001600160801b03841681565b6133ff81613d58565b600080825260208201612fef565b60608101613d9282856133f6565b613d9f6020830184613d6d565b81810360408301526134a381613d76565b60408101613dbe82856133f6565b6131036020830184613d6d565b6020810161272a8284613d6d565b602c81526000602082017f46756e6374696f6e206d7573742062652063616c6c6564207468726f7567682081526b19195b1959d85d1958d85b1b60a21b602082015291505b5060400190565b6020808252810161272a81613dd9565b602c81526000602082017f46756e6374696f6e206d7573742062652063616c6c6564207468726f7567682081526b6163746976652070726f787960a01b60208201529150613e1e565b6020808252810161272a81613e35565b602e81526000602082017f496e697469616c697a61626c653a20636f6e747261637420697320616c72656181526d191e481a5b9a5d1a585b1a5e995960921b60208201529150613e1e565b6020808252810161272a81613e8e565b60608101613ef782866133f6565b613f046020830185613647565b6134a360408301846133f6565b600060ff821661272a565b6133ff81613f11565b6020810161272a8284613f1c565b6000613f3d825190565b613f4b818560208601613bd5565b9290920192915050565b6000613f618285613f33565b9150613bcb8284613647565b603881526000602082017f555550535570677261646561626c653a206d757374206e6f742062652063616c81527f6c6564207468726f7567682064656c656761746563616c6c000000000000000060208201529150613e1e565b6020808252810161272a81613f6d565b6000613fe38285613647565b6020820191506134a38284613f33565b63ffffffff81166133ff565b6040810161400d82856139ee565b6131036020830184613ff3565b60408101613b318285613647565b60006131038284613f33565b6020810161272a8284613ff3565b6001600160f01b031981166133ff565b60408101613b318285614042565b602681526000602082017f4f776e61626c653a206e6577206f776e657220697320746865207a65726f206181526564647265737360d01b60208201529150613e1e565b6020808252810161272a81614060565b600061272a825190565b60006140c7825190565b602083016140d4816140b3565b925060208210156140f5576140f0600019836020036008021b90565b831692505b5050919050565b60208082528181019081527f4f776e61626c653a2063616c6c6572206973206e6f7420746865206f776e657260408301526060820161272a565b602e81526000602082017f45524331393637557067726164653a206e657720696d706c656d656e7461746981526d6f6e206973206e6f74205555505360901b60208201529150613e1e565b6020808252810161272a81614136565b602981526000602082017f45524331393637557067726164653a20756e737570706f727465642070726f788152681a58589b195555525160ba1b60208201529150613e1e565b6020808252810161272a81614191565b602b81526000602082017f496e697469616c697a61626c653a20636f6e7472616374206973206e6f74206981526a6e697469616c697a696e6760a81b60208201529150613e1e565b6020808252810161272a816141e7565b6060810161424d8286613647565b613c666020830185613647565b7f19457468657265756d205369676e6564204d6573736167653a0a3332000000008152601c01600061428c8284613647565b50602001919050565b634e487b7160e01b600052601260045260246000fd5b60ff81166133ff565b608081016142c28287613647565b6142cf60208301866142ab565b6142dc6040830185613647565b6130e16060830184613647565b602d81526000602082017f455243313936373a206e657720696d706c656d656e746174696f6e206973206e81526c1bdd08184818dbdb9d1c9858dd609a1b60208201529150613e1e565b6020808252810161272a816142e9565b602681526000602082017f416464726573733a2064656c65676174652063616c6c20746f206e6f6e2d636f8152651b9d1c9858dd60d21b60208201529150613e1e565b6020808252810161272a81614343565b602080825281016131038184613bf956fe360894a13ba1a3210667c828492db98dca3e2076cc3735a920a3ca505d382bbc416464726573733a206c6f772d6c6576656c2064656c65676174652063616c6c206661696c6564a26469706673582212204a997f0e28dc9a9ed968ed18069e85aa85ed070f028aec7ab1ce175a9c6cbe2264736f6c63430008110033","opcodes":"PUSH1 0xA0 PUSH1 0x40 MSTORE ADDRESS PUSH1 0x80 MSTORE CALLVALUE DUP1 ISZERO PUSH2 0x14 JUMPI PUSH1 0x0 DUP1 REVERT JUMPDEST POP PUSH1 0x80 MLOAD PUSH2 0x4424 PUSH2 0x4C PUSH1 0x0 CODECOPY PUSH1 0x0 DUP2 DUP2 PUSH2 0x176D ADD MSTORE DUP2 DUP2 PUSH2 0x17AD ADD MSTORE DUP2 DUP2 PUSH2 0x1D15 ADD MSTORE DUP2 DUP2 PUSH2 0x1D55 ADD MSTORE PUSH2 0x1DE8 ADD MSTORE PUSH2 0x4424 PUSH1 0x0 RETURN INVALID PUSH1 0x80 PUSH1 0x40 MSTORE PUSH1 0x4 CALLDATASIZE LT PUSH2 0x27F JUMPI PUSH1 0x0 CALLDATALOAD PUSH1 0xE0 SHR DUP1 PUSH4 0x8CACD6E7 GT PUSH2 0x14F JUMPI DUP1 PUSH4 0xC4C4E4A9 GT PUSH2 0xC1 JUMPI DUP1 PUSH4 0xE51D0921 GT PUSH2 0x7A JUMPI DUP1 PUSH4 0xE51D0921 EQ PUSH2 0x845 JUMPI DUP1 PUSH4 0xE5342CE6 EQ PUSH2 0x875 JUMPI DUP1 PUSH4 0xE8FED1D6 EQ PUSH2 0x895 JUMPI DUP1 PUSH4 0xF2FDE38B EQ PUSH2 0x8C2 JUMPI DUP1 PUSH4 0xF7C09189 EQ PUSH2 0x8E2 JUMPI DUP1 PUSH4 0xF8CE560A EQ PUSH2 0x8F8 JUMPI PUSH1 0x0 DUP1 REVERT JUMPDEST DUP1 PUSH4 0xC4C4E4A9 EQ PUSH2 0x76A JUMPI DUP1 PUSH4 0xC95970E5 EQ PUSH2 0x780 JUMPI DUP1 PUSH4 0xD2D6F4D5 EQ PUSH2 0x7A1 JUMPI DUP1 PUSH4 0xD3578A94 EQ PUSH2 0x7E4 JUMPI DUP1 PUSH4 0xD4B11E26 EQ PUSH2 0x805 JUMPI DUP1 PUSH4 0xDCFE8FB3 EQ PUSH2 0x825 JUMPI PUSH1 0x0 DUP1 REVERT JUMPDEST DUP1 PUSH4 0x9E79FE6B GT PUSH2 0x113 JUMPI DUP1 PUSH4 0x9E79FE6B EQ PUSH2 0x698 JUMPI DUP1 PUSH4 0xAEE37D39 EQ PUSH2 0x6C5 JUMPI DUP1 PUSH4 0xB9B17E7F EQ PUSH2 0x6D8 JUMPI DUP1 PUSH4 0xBF693839 EQ PUSH2 0x708 JUMPI DUP1 PUSH4 0xC4024F0E EQ PUSH2 0x71D JUMPI DUP1 PUSH4 0xC460EB07 EQ PUSH2 0x73D JUMPI PUSH1 0x0 DUP1 REVERT JUMPDEST DUP1 PUSH4 0x8CACD6E7 EQ PUSH2 0x5EA JUMPI DUP1 PUSH4 0x8D2DDE3F EQ PUSH2 0x60A JUMPI DUP1 PUSH4 0x8DA5CB5B EQ PUSH2 0x62A JUMPI DUP1 PUSH4 0x8F78EA1B EQ PUSH2 0x648 JUMPI DUP1 PUSH4 0x99010D19 EQ PUSH2 0x678 JUMPI PUSH1 0x0 DUP1 REVERT JUMPDEST DUP1 PUSH4 0x3659CFE6 GT PUSH2 0x1F3 JUMPI DUP1 PUSH4 0x4FA182EA GT PUSH2 0x1AC JUMPI DUP1 PUSH4 0x4FA182EA EQ PUSH2 0x533 JUMPI DUP1 PUSH4 0x52D1902D EQ PUSH2 0x560 JUMPI DUP1 PUSH4 0x5B2B285B EQ PUSH2 0x575 JUMPI DUP1 PUSH4 0x715018A6 EQ PUSH2 0x595 JUMPI DUP1 PUSH4 0x88665ACE EQ PUSH2 0x5AA JUMPI DUP1 PUSH4 0x89556BEF EQ PUSH2 0x5CA JUMPI PUSH1 0x0 DUP1 REVERT JUMPDEST DUP1 PUSH4 0x3659CFE6 EQ PUSH2 0x46F JUMPI DUP1 PUSH4 0x46971F4F EQ PUSH2 0x48F JUMPI DUP1 PUSH4 0x485CC955 EQ PUSH2 0x4BF JUMPI DUP1 PUSH4 0x49A19AC1 EQ PUSH2 0x4DF JUMPI DUP1 PUSH4 0x4A7D9F69 EQ PUSH2 0x4FF JUMPI DUP1 PUSH4 0x4F1EF286 EQ PUSH2 0x520 JUMPI PUSH1 0x0 DUP1 REVERT JUMPDEST DUP1 PUSH4 0x1A621052 GT PUSH2 0x245 JUMPI DUP1 PUSH4 0x1A621052 EQ PUSH2 0x382 JUMPI DUP1 PUSH4 0x1B4097D8 EQ PUSH2 0x3A2 JUMPI DUP1 PUSH4 0x28FA2FC8 EQ PUSH2 0x3C2 JUMPI DUP1 PUSH4 0x295EB8B7 EQ PUSH2 0x3FF JUMPI DUP1 PUSH4 0x3083F708 EQ PUSH2 0x439 JUMPI DUP1 PUSH4 0x34C19214 EQ PUSH2 0x459 JUMPI PUSH1 0x0 DUP1 REVERT JUMPDEST DUP1 PUSH3 0x23DE29 EQ PUSH2 0x2B6 JUMPI DUP1 PUSH3 0x4AC6BD EQ PUSH2 0x2D6 JUMPI DUP1 PUSH4 0xC2B72E9 EQ PUSH2 0x2F6 JUMPI DUP1 PUSH4 0xCAA9948 EQ PUSH2 0x32C JUMPI DUP1 PUSH4 0x17A691AA EQ PUSH2 0x34C JUMPI PUSH1 0x0 DUP1 REVERT JUMPDEST CALLDATASIZE PUSH2 0x2B1 JUMPI PUSH1 0xDB SLOAD PUSH1 0x1 PUSH1 0x1 PUSH1 0xA0 SHL SUB AND CALLER EQ PUSH2 0x2AF JUMPI PUSH1 0x40 MLOAD PUSH4 0x2A9F21B PUSH1 0xE4 SHL DUP2 MSTORE PUSH1 0x4 ADD PUSH1 0x40 MLOAD DUP1 SWAP2 SUB SWAP1 REVERT JUMPDEST STOP JUMPDEST PUSH1 0x0 DUP1 REVERT JUMPDEST CALLVALUE DUP1 ISZERO PUSH2 0x2C2 JUMPI PUSH1 0x0 DUP1 REVERT JUMPDEST POP PUSH2 0x2AF PUSH2 0x2D1 CALLDATASIZE PUSH1 0x4 PUSH2 0x3219 JUMP JUMPDEST PUSH2 0x918 JUMP JUMPDEST CALLVALUE DUP1 ISZERO PUSH2 0x2E2 JUMPI PUSH1 0x0 DUP1 REVERT JUMPDEST POP PUSH2 0x2AF PUSH2 0x2F1 CALLDATASIZE PUSH1 0x4 PUSH2 0x332B JUMP JUMPDEST PUSH2 0xBB4 JUMP JUMPDEST CALLVALUE DUP1 ISZERO PUSH2 0x302 JUMPI PUSH1 0x0 DUP1 REVERT JUMPDEST POP PUSH1 0xDA SLOAD PUSH2 0x316 SWAP1 PUSH1 0x1 PUSH1 0x1 PUSH1 0xA0 SHL SUB AND DUP2 JUMP JUMPDEST PUSH1 0x40 MLOAD PUSH2 0x323 SWAP2 SWAP1 PUSH2 0x3405 JUMP JUMPDEST PUSH1 0x40 MLOAD DUP1 SWAP2 SUB SWAP1 RETURN JUMPDEST CALLVALUE DUP1 ISZERO PUSH2 0x338 JUMPI PUSH1 0x0 DUP1 REVERT JUMPDEST POP PUSH2 0x2AF PUSH2 0x347 CALLDATASIZE PUSH1 0x4 PUSH2 0x3413 JUMP JUMPDEST PUSH2 0xE00 JUMP JUMPDEST CALLVALUE DUP1 ISZERO PUSH2 0x358 JUMPI PUSH1 0x0 DUP1 REVERT JUMPDEST POP PUSH2 0x316 PUSH2 0x367 CALLDATASIZE PUSH1 0x4 PUSH2 0x3482 JUMP JUMPDEST PUSH1 0xCD PUSH1 0x20 MSTORE PUSH1 0x0 SWAP1 DUP2 MSTORE PUSH1 0x40 SWAP1 KECCAK256 SLOAD PUSH1 0x1 PUSH1 0x1 PUSH1 0xA0 SHL SUB AND DUP2 JUMP JUMPDEST CALLVALUE DUP1 ISZERO PUSH2 0x38E JUMPI PUSH1 0x0 DUP1 REVERT JUMPDEST POP PUSH2 0x2AF PUSH2 0x39D CALLDATASIZE PUSH1 0x4 PUSH2 0x35A4 JUMP JUMPDEST PUSH2 0x1130 JUMP JUMPDEST CALLVALUE DUP1 ISZERO PUSH2 0x3AE JUMPI PUSH1 0x0 DUP1 REVERT JUMPDEST POP PUSH2 0x2AF PUSH2 0x3BD CALLDATASIZE PUSH1 0x4 PUSH2 0x35D8 JUMP JUMPDEST PUSH2 0x11B1 JUMP JUMPDEST CALLVALUE DUP1 ISZERO PUSH2 0x3CE JUMPI PUSH1 0x0 DUP1 REVERT JUMPDEST POP PUSH2 0x3F2 PUSH2 0x3DD CALLDATASIZE PUSH1 0x4 PUSH2 0x3482 JUMP JUMPDEST PUSH1 0xC9 PUSH1 0x20 MSTORE PUSH1 0x0 SWAP1 DUP2 MSTORE PUSH1 0x40 SWAP1 KECCAK256 SLOAD PUSH1 0xFF AND DUP2 JUMP JUMPDEST PUSH1 0x40 MLOAD PUSH2 0x323 SWAP2 SWAP1 PUSH2 0x3601 JUMP JUMPDEST CALLVALUE DUP1 ISZERO PUSH2 0x40B JUMPI PUSH1 0x0 DUP1 REVERT JUMPDEST POP PUSH2 0x42C PUSH2 0x41A CALLDATASIZE PUSH1 0x4 PUSH2 0x3626 JUMP JUMPDEST PUSH1 0xD3 PUSH1 0x20 MSTORE PUSH1 0x0 SWAP1 DUP2 MSTORE PUSH1 0x40 SWAP1 KECCAK256 SLOAD DUP2 JUMP JUMPDEST PUSH1 0x40 MLOAD PUSH2 0x323 SWAP2 SWAP1 PUSH2 0x364D JUMP JUMPDEST CALLVALUE DUP1 ISZERO PUSH2 0x445 JUMPI PUSH1 0x0 DUP1 REVERT JUMPDEST POP PUSH2 0x2AF PUSH2 0x454 CALLDATASIZE PUSH1 0x4 PUSH2 0x36F1 JUMP JUMPDEST PUSH2 0x1200 JUMP JUMPDEST CALLVALUE DUP1 ISZERO PUSH2 0x465 JUMPI PUSH1 0x0 DUP1 REVERT JUMPDEST POP PUSH2 0x42C PUSH1 0xD9 SLOAD DUP2 JUMP JUMPDEST CALLVALUE DUP1 ISZERO PUSH2 0x47B JUMPI PUSH1 0x0 DUP1 REVERT JUMPDEST POP PUSH2 0x2AF PUSH2 0x48A CALLDATASIZE PUSH1 0x4 PUSH2 0x3765 JUMP JUMPDEST PUSH2 0x1763 JUMP JUMPDEST CALLVALUE DUP1 ISZERO PUSH2 0x49B JUMPI PUSH1 0x0 DUP1 REVERT JUMPDEST POP PUSH2 0x3F2 PUSH2 0x4AA CALLDATASIZE PUSH1 0x4 PUSH2 0x3482 JUMP JUMPDEST PUSH1 0xCA PUSH1 0x20 MSTORE PUSH1 0x0 SWAP1 DUP2 MSTORE PUSH1 0x40 SWAP1 KECCAK256 SLOAD PUSH1 0xFF AND DUP2 JUMP JUMPDEST CALLVALUE DUP1 ISZERO PUSH2 0x4CB JUMPI PUSH1 0x0 DUP1 REVERT JUMPDEST POP PUSH2 0x2AF PUSH2 0x4DA CALLDATASIZE PUSH1 0x4 PUSH2 0x3786 JUMP JUMPDEST PUSH2 0x1842 JUMP JUMPDEST CALLVALUE DUP1 ISZERO PUSH2 0x4EB JUMPI PUSH1 0x0 DUP1 REVERT JUMPDEST POP PUSH2 0x2AF PUSH2 0x4FA CALLDATASIZE PUSH1 0x4 PUSH2 0x37C3 JUMP JUMPDEST PUSH2 0x1AA1 JUMP JUMPDEST CALLVALUE DUP1 ISZERO PUSH2 0x50B JUMPI PUSH1 0x0 DUP1 REVERT JUMPDEST POP PUSH1 0xDB SLOAD PUSH2 0x3F2 SWAP1 PUSH1 0x1 PUSH1 0xA0 SHL SWAP1 DIV PUSH1 0xFF AND DUP2 JUMP JUMPDEST PUSH2 0x2AF PUSH2 0x52E CALLDATASIZE PUSH1 0x4 PUSH2 0x385F JUMP JUMPDEST PUSH2 0x1D0B JUMP JUMPDEST CALLVALUE DUP1 ISZERO PUSH2 0x53F JUMPI PUSH1 0x0 DUP1 REVERT JUMPDEST POP PUSH2 0x42C PUSH2 0x54E CALLDATASIZE PUSH1 0x4 PUSH2 0x38C7 JUMP JUMPDEST PUSH1 0xCF PUSH1 0x20 MSTORE PUSH1 0x0 SWAP1 DUP2 MSTORE PUSH1 0x40 SWAP1 KECCAK256 SLOAD DUP2 JUMP JUMPDEST CALLVALUE DUP1 ISZERO PUSH2 0x56C JUMPI PUSH1 0x0 DUP1 REVERT JUMPDEST POP PUSH2 0x42C PUSH2 0x1DDB JUMP JUMPDEST CALLVALUE DUP1 ISZERO PUSH2 0x581 JUMPI PUSH1 0x0 DUP1 REVERT JUMPDEST POP PUSH2 0x2AF PUSH2 0x590 CALLDATASIZE PUSH1 0x4 PUSH2 0x37C3 JUMP JUMPDEST PUSH2 0x1E38 JUMP JUMPDEST CALLVALUE DUP1 ISZERO PUSH2 0x5A1 JUMPI PUSH1 0x0 DUP1 REVERT JUMPDEST POP PUSH2 0x2AF PUSH2 0x1FA7 JUMP JUMPDEST CALLVALUE DUP1 ISZERO PUSH2 0x5B6 JUMPI PUSH1 0x0 DUP1 REVERT JUMPDEST POP PUSH2 0x2AF PUSH2 0x5C5 CALLDATASIZE PUSH1 0x4 PUSH2 0x3902 JUMP JUMPDEST PUSH2 0x1FBB JUMP JUMPDEST CALLVALUE DUP1 ISZERO PUSH2 0x5D6 JUMPI PUSH1 0x0 DUP1 REVERT JUMPDEST POP PUSH2 0x2AF PUSH2 0x5E5 CALLDATASIZE PUSH1 0x4 PUSH2 0x35D8 JUMP JUMPDEST PUSH2 0x21BB JUMP JUMPDEST CALLVALUE DUP1 ISZERO PUSH2 0x5F6 JUMPI PUSH1 0x0 DUP1 REVERT JUMPDEST POP PUSH2 0x2AF PUSH2 0x605 CALLDATASIZE PUSH1 0x4 PUSH2 0x35D8 JUMP JUMPDEST PUSH2 0x220A JUMP JUMPDEST CALLVALUE DUP1 ISZERO PUSH2 0x616 JUMPI PUSH1 0x0 DUP1 REVERT JUMPDEST POP PUSH2 0x2AF PUSH2 0x625 CALLDATASIZE PUSH1 0x4 PUSH2 0x3626 JUMP JUMPDEST PUSH2 0x2259 JUMP JUMPDEST CALLVALUE DUP1 ISZERO PUSH2 0x636 JUMPI PUSH1 0x0 DUP1 REVERT JUMPDEST POP PUSH1 0x97 SLOAD PUSH1 0x1 PUSH1 0x1 PUSH1 0xA0 SHL SUB AND PUSH2 0x316 JUMP JUMPDEST CALLVALUE DUP1 ISZERO PUSH2 0x654 JUMPI PUSH1 0x0 DUP1 REVERT JUMPDEST POP PUSH2 0x3F2 PUSH2 0x663 CALLDATASIZE PUSH1 0x4 PUSH2 0x3482 JUMP JUMPDEST PUSH1 0xD1 PUSH1 0x20 MSTORE PUSH1 0x0 SWAP1 DUP2 MSTORE PUSH1 0x40 SWAP1 KECCAK256 SLOAD PUSH1 0xFF AND DUP2 JUMP JUMPDEST CALLVALUE DUP1 ISZERO PUSH2 0x684 JUMPI PUSH1 0x0 DUP1 REVERT JUMPDEST POP PUSH2 0x2AF PUSH2 0x693 CALLDATASIZE PUSH1 0x4 PUSH2 0x3482 JUMP JUMPDEST PUSH2 0x22E9 JUMP JUMPDEST CALLVALUE DUP1 ISZERO PUSH2 0x6A4 JUMPI PUSH1 0x0 DUP1 REVERT JUMPDEST POP PUSH2 0x42C PUSH2 0x6B3 CALLDATASIZE PUSH1 0x4 PUSH2 0x3482 JUMP JUMPDEST PUSH1 0xCE PUSH1 0x20 MSTORE PUSH1 0x0 SWAP1 DUP2 MSTORE PUSH1 0x40 SWAP1 KECCAK256 SLOAD DUP2 JUMP JUMPDEST PUSH2 0x2AF PUSH2 0x6D3 CALLDATASIZE PUSH1 0x4 PUSH2 0x393A JUMP JUMPDEST PUSH2 0x2331 JUMP JUMPDEST CALLVALUE DUP1 ISZERO PUSH2 0x6E4 JUMPI PUSH1 0x0 DUP1 REVERT JUMPDEST POP PUSH2 0x3F2 PUSH2 0x6F3 CALLDATASIZE PUSH1 0x4 PUSH2 0x3482 JUMP JUMPDEST PUSH1 0xD0 PUSH1 0x20 MSTORE PUSH1 0x0 SWAP1 DUP2 MSTORE PUSH1 0x40 SWAP1 KECCAK256 SLOAD PUSH1 0xFF AND DUP2 JUMP JUMPDEST CALLVALUE DUP1 ISZERO PUSH2 0x714 JUMPI PUSH1 0x0 DUP1 REVERT JUMPDEST POP PUSH2 0x2AF PUSH2 0x240F JUMP JUMPDEST CALLVALUE DUP1 ISZERO PUSH2 0x729 JUMPI PUSH1 0x0 DUP1 REVERT JUMPDEST POP PUSH2 0x2AF PUSH2 0x738 CALLDATASIZE PUSH1 0x4 PUSH2 0x3981 JUMP JUMPDEST PUSH2 0x24D1 JUMP JUMPDEST CALLVALUE DUP1 ISZERO PUSH2 0x749 JUMPI PUSH1 0x0 DUP1 REVERT JUMPDEST POP PUSH2 0x42C PUSH2 0x758 CALLDATASIZE PUSH1 0x4 PUSH2 0x3482 JUMP JUMPDEST PUSH1 0xCC PUSH1 0x20 MSTORE PUSH1 0x0 SWAP1 DUP2 MSTORE PUSH1 0x40 SWAP1 KECCAK256 SLOAD DUP2 JUMP JUMPDEST CALLVALUE DUP1 ISZERO PUSH2 0x776 JUMPI PUSH1 0x0 DUP1 REVERT JUMPDEST POP PUSH2 0x42C PUSH1 0xD7 SLOAD DUP2 JUMP JUMPDEST CALLVALUE DUP1 ISZERO PUSH2 0x78C JUMPI PUSH1 0x0 DUP1 REVERT JUMPDEST POP PUSH1 0xDB SLOAD PUSH2 0x3F2 SWAP1 PUSH1 0x1 PUSH1 0xB0 SHL SWAP1 DIV PUSH1 0xFF AND DUP2 JUMP JUMPDEST CALLVALUE DUP1 ISZERO PUSH2 0x7AD JUMPI PUSH1 0x0 DUP1 REVERT JUMPDEST POP PUSH2 0x7D7 PUSH2 0x7BC CALLDATASIZE PUSH1 0x4 PUSH2 0x3626 JUMP JUMPDEST PUSH1 0xD4 PUSH1 0x20 MSTORE PUSH1 0x0 SWAP1 DUP2 MSTORE PUSH1 0x40 SWAP1 KECCAK256 SLOAD PUSH1 0x1 PUSH1 0x1 PUSH1 0x80 SHL SUB AND DUP2 JUMP JUMPDEST PUSH1 0x40 MLOAD PUSH2 0x323 SWAP2 SWAP1 PUSH2 0x39FD JUMP JUMPDEST CALLVALUE DUP1 ISZERO PUSH2 0x7F0 JUMPI PUSH1 0x0 DUP1 REVERT JUMPDEST POP PUSH1 0xDB SLOAD PUSH2 0x3F2 SWAP1 PUSH1 0x1 PUSH1 0xA8 SHL SWAP1 DIV PUSH1 0xFF AND DUP2 JUMP JUMPDEST CALLVALUE DUP1 ISZERO PUSH2 0x811 JUMPI PUSH1 0x0 DUP1 REVERT JUMPDEST POP PUSH2 0x2AF PUSH2 0x820 CALLDATASIZE PUSH1 0x4 PUSH2 0x3626 JUMP JUMPDEST PUSH2 0x25C6 JUMP JUMPDEST CALLVALUE DUP1 ISZERO PUSH2 0x831 JUMPI PUSH1 0x0 DUP1 REVERT JUMPDEST POP PUSH2 0x2AF PUSH2 0x840 CALLDATASIZE PUSH1 0x4 PUSH2 0x3A0B JUMP JUMPDEST PUSH2 0x2616 JUMP JUMPDEST CALLVALUE DUP1 ISZERO PUSH2 0x851 JUMPI PUSH1 0x0 DUP1 REVERT JUMPDEST POP PUSH2 0x3F2 PUSH2 0x860 CALLDATASIZE PUSH1 0x4 PUSH2 0x3482 JUMP JUMPDEST PUSH1 0xD2 PUSH1 0x20 MSTORE PUSH1 0x0 SWAP1 DUP2 MSTORE PUSH1 0x40 SWAP1 KECCAK256 SLOAD PUSH1 0xFF AND DUP2 JUMP JUMPDEST CALLVALUE DUP1 ISZERO PUSH2 0x881 JUMPI PUSH1 0x0 DUP1 REVERT JUMPDEST POP PUSH2 0x3F2 PUSH2 0x890 CALLDATASIZE PUSH1 0x4 PUSH2 0x3AD6 JUMP JUMPDEST PUSH2 0x2678 JUMP JUMPDEST CALLVALUE DUP1 ISZERO PUSH2 0x8A1 JUMPI PUSH1 0x0 DUP1 REVERT JUMPDEST POP PUSH2 0x42C PUSH2 0x8B0 CALLDATASIZE PUSH1 0x4 PUSH2 0x3765 JUMP JUMPDEST PUSH1 0xCB PUSH1 0x20 MSTORE PUSH1 0x0 SWAP1 DUP2 MSTORE PUSH1 0x40 SWAP1 KECCAK256 SLOAD DUP2 JUMP JUMPDEST CALLVALUE DUP1 ISZERO PUSH2 0x8CE JUMPI PUSH1 0x0 DUP1 REVERT JUMPDEST POP PUSH2 0x2AF PUSH2 0x8DD CALLDATASIZE PUSH1 0x4 PUSH2 0x3765 JUMP JUMPDEST PUSH2 0x2730 JUMP JUMPDEST CALLVALUE DUP1 ISZERO PUSH2 0x8EE JUMPI PUSH1 0x0 DUP1 REVERT JUMPDEST POP PUSH2 0x42C PUSH1 0xD8 SLOAD DUP2 JUMP JUMPDEST CALLVALUE DUP1 ISZERO PUSH2 0x904 JUMPI PUSH1 0x0 DUP1 REVERT JUMPDEST POP PUSH2 0x42C PUSH2 0x913 CALLDATASIZE PUSH1 0x4 PUSH2 0x3482 JUMP JUMPDEST PUSH2 0x2767 JUMP JUMPDEST PUSH1 0xDB SLOAD PUSH1 0x1 PUSH1 0xA8 SHL SWAP1 DIV PUSH1 0xFF AND PUSH2 0x942 JUMPI PUSH1 0x40 MLOAD PUSH4 0xF51CBA77 PUSH1 0xE0 SHL DUP2 MSTORE PUSH1 0x4 ADD PUSH1 0x40 MLOAD DUP1 SWAP2 SUB SWAP1 REVERT JUMPDEST PUSH1 0xDB SLOAD PUSH1 0x1 PUSH1 0x1 PUSH1 0xA0 SHL SUB DUP9 DUP2 AND SWAP2 AND EQ PUSH2 0xBAA JUMPI DUP3 ISZERO DUP1 ISZERO PUSH2 0x96C JUMPI POP PUSH1 0x1 PUSH1 0x1 PUSH1 0xA0 SHL SUB DUP8 AND ISZERO JUMPDEST DUP1 ISZERO PUSH2 0x982 JUMPI POP PUSH1 0xDA SLOAD PUSH1 0x1 PUSH1 0x1 PUSH1 0xA0 SHL SUB AND CALLER EQ JUMPDEST PUSH2 0xBAA JUMPI DUP5 PUSH1 0x0 SUB PUSH2 0x9A7 JUMPI PUSH1 0x40 MLOAD PUSH4 0xD11B25AF PUSH1 0xE0 SHL DUP2 MSTORE PUSH1 0x4 ADD PUSH1 0x40 MLOAD DUP1 SWAP2 SUB SWAP1 REVERT JUMPDEST PUSH1 0x1 PUSH1 0x1 PUSH1 0xA0 SHL SUB DUP7 AND ADDRESS EQ PUSH2 0x9D0 JUMPI PUSH1 0x40 MLOAD PUSH4 0x2E47FF83 PUSH1 0xE2 SHL DUP2 MSTORE PUSH1 0x4 ADD PUSH1 0x40 MLOAD DUP1 SWAP2 SUB SWAP1 REVERT JUMPDEST PUSH1 0x40 MLOAD PUSH4 0x555DDC65 PUSH1 0xE1 SHL DUP2 MSTORE CALLER SWAP1 PUSH20 0x1820A4B7618BDE71DCE8CDC73AAB6C95905FAD24 SWAP1 PUSH4 0xAABBB8CA SWAP1 PUSH2 0xA2B SWAP1 DUP5 SWAP1 PUSH32 0xAC7FBAB5F54A3CA8194167523C6753BFEB96A445279294B6125B68CCE2177054 SWAP1 PUSH1 0x4 ADD PUSH2 0x3B23 JUMP JUMPDEST PUSH1 0x20 PUSH1 0x40 MLOAD DUP1 DUP4 SUB DUP2 DUP7 GAS STATICCALL ISZERO DUP1 ISZERO PUSH2 0xA48 JUMPI RETURNDATASIZE PUSH1 0x0 DUP1 RETURNDATACOPY RETURNDATASIZE PUSH1 0x0 REVERT JUMPDEST POP POP POP POP PUSH1 0x40 MLOAD RETURNDATASIZE PUSH1 0x1F NOT PUSH1 0x1F DUP3 ADD AND DUP3 ADD DUP1 PUSH1 0x40 MSTORE POP DUP2 ADD SWAP1 PUSH2 0xA6C SWAP2 SWAP1 PUSH2 0x3B49 JUMP JUMPDEST PUSH1 0x1 PUSH1 0x1 PUSH1 0xA0 SHL SUB AND EQ PUSH2 0xA93 JUMPI PUSH1 0x40 MLOAD PUSH4 0x4709CB27 PUSH1 0xE0 SHL DUP2 MSTORE PUSH1 0x4 ADD PUSH1 0x40 MLOAD DUP1 SWAP2 SUB SWAP1 REVERT JUMPDEST PUSH1 0x40 MLOAD PUSH4 0x70A08231 PUSH1 0xE0 SHL DUP2 MSTORE PUSH1 0x1 PUSH1 0x1 PUSH1 0x80 SHL SUB SWAP1 CALLER SWAP1 PUSH4 0x70A08231 SWAP1 PUSH2 0xABF SWAP1 ADDRESS SWAP1 PUSH1 0x4 ADD PUSH2 0x3405 JUMP JUMPDEST PUSH1 0x20 PUSH1 0x40 MLOAD DUP1 DUP4 SUB DUP2 DUP7 GAS STATICCALL ISZERO DUP1 ISZERO PUSH2 0xADC JUMPI RETURNDATASIZE PUSH1 0x0 DUP1 RETURNDATACOPY RETURNDATASIZE PUSH1 0x0 REVERT JUMPDEST POP POP POP POP PUSH1 0x40 MLOAD RETURNDATASIZE PUSH1 0x1F NOT PUSH1 0x1F DUP3 ADD AND DUP3 ADD DUP1 PUSH1 0x40 MSTORE POP DUP2 ADD SWAP1 PUSH2 0xB00 SWAP2 SWAP1 PUSH2 0x3B75 JUMP JUMPDEST GT ISZERO PUSH2 0xB1F JUMPI PUSH1 0x40 MLOAD PUSH4 0x6E2C0487 PUSH1 0xE1 SHL DUP2 MSTORE PUSH1 0x4 ADD PUSH1 0x40 MLOAD DUP1 SWAP2 SUB SWAP1 REVERT JUMPDEST PUSH2 0xB5E DUP5 DUP5 DUP1 DUP1 PUSH1 0x1F ADD PUSH1 0x20 DUP1 SWAP2 DIV MUL PUSH1 0x20 ADD PUSH1 0x40 MLOAD SWAP1 DUP2 ADD PUSH1 0x40 MSTORE DUP1 SWAP4 SWAP3 SWAP2 SWAP1 DUP2 DUP2 MSTORE PUSH1 0x20 ADD DUP4 DUP4 DUP1 DUP3 DUP5 CALLDATACOPY PUSH1 0x0 SWAP3 ADD SWAP2 SWAP1 SWAP2 MSTORE POP PUSH2 0x277E SWAP3 POP POP POP JUMP JUMPDEST DUP8 PUSH1 0x1 PUSH1 0x1 PUSH1 0xA0 SHL SUB AND CALLER PUSH1 0x1 PUSH1 0x1 PUSH1 0xA0 SHL SUB AND PUSH32 0x8964776336BC2FA8ECAAF70B6F8E8450807EFB1FF78F8B87980707AA821F0EC0 DUP9 PUSH1 0x40 MLOAD PUSH2 0xBA1 SWAP2 SWAP1 PUSH2 0x364D JUMP JUMPDEST PUSH1 0x40 MLOAD DUP1 SWAP2 SUB SWAP1 LOG4 JUMPDEST POP POP POP POP POP POP POP POP JUMP JUMPDEST PUSH2 0xBBC PUSH2 0x27AB JUMP JUMPDEST DUP7 PUSH1 0x0 DUP1 PUSH1 0x60 DUP9 DUP5 EQ DUP1 ISZERO SWAP1 PUSH2 0xBD2 JUMPI POP DUP7 DUP5 EQ ISZERO JUMPDEST DUP1 ISZERO PUSH2 0xBDE JUMPI POP DUP5 DUP5 EQ ISZERO JUMPDEST ISZERO PUSH2 0xBFC JUMPI PUSH1 0x40 MLOAD PUSH4 0x6CE67423 PUSH1 0xE1 SHL DUP2 MSTORE PUSH1 0x4 ADD PUSH1 0x40 MLOAD DUP1 SWAP2 SUB SWAP1 REVERT JUMPDEST PUSH1 0x0 JUMPDEST DUP5 DUP2 LT ISZERO PUSH2 0xDF1 JUMPI DUP13 DUP13 DUP3 DUP2 DUP2 LT PUSH2 0xC19 JUMPI PUSH2 0xC19 PUSH2 0x3B96 JUMP JUMPDEST SWAP1 POP PUSH1 0x20 MUL ADD PUSH1 0x20 DUP2 ADD SWAP1 PUSH2 0xC2E SWAP2 SWAP1 PUSH2 0x3765 JUMP JUMPDEST SWAP3 POP DUP7 DUP7 DUP3 DUP2 DUP2 LT PUSH2 0xC42 JUMPI PUSH2 0xC42 PUSH2 0x3B96 JUMP JUMPDEST PUSH1 0x1 PUSH1 0x1 PUSH1 0xA0 SHL SUB DUP7 AND PUSH1 0x0 SWAP1 DUP2 MSTORE PUSH1 0xCB PUSH1 0x20 SWAP1 DUP2 MSTORE PUSH1 0x40 SWAP1 SWAP2 KECCAK256 SLOAD SWAP2 MUL SWAP3 SWAP1 SWAP3 ADD CALLDATALOAD SWAP6 POP POP ISZERO PUSH2 0xC91 JUMPI DUP3 PUSH1 0x40 MLOAD PUSH4 0x7BBAD81 PUSH1 0xE5 SHL DUP2 MSTORE PUSH1 0x4 ADD PUSH2 0xC88 SWAP2 SWAP1 PUSH2 0x3405 JUMP JUMPDEST PUSH1 0x40 MLOAD DUP1 SWAP2 SUB SWAP1 REVERT JUMPDEST PUSH1 0x0 DUP5 DUP2 MSTORE PUSH1 0xCC PUSH1 0x20 MSTORE PUSH1 0x40 SWAP1 KECCAK256 SLOAD ISZERO PUSH2 0xCC0 JUMPI DUP4 PUSH1 0x40 MLOAD PUSH4 0xE75B239B PUSH1 0xE0 SHL DUP2 MSTORE PUSH1 0x4 ADD PUSH2 0xC88 SWAP2 SWAP1 PUSH2 0x364D JUMP JUMPDEST DUP11 DUP11 DUP3 DUP2 DUP2 LT PUSH2 0xCD2 JUMPI PUSH2 0xCD2 PUSH2 0x3B96 JUMP JUMPDEST SWAP1 POP PUSH1 0x20 MUL ADD CALLDATALOAD DUP10 DUP10 DUP4 DUP2 DUP2 LT PUSH2 0xCEB JUMPI PUSH2 0xCEB PUSH2 0x3B96 JUMP JUMPDEST SWAP1 POP PUSH1 0x20 MUL ADD CALLDATALOAD PUSH1 0x40 MLOAD PUSH1 0x20 ADD PUSH2 0xD03 SWAP3 SWAP2 SWAP1 PUSH2 0x3BAF JUMP JUMPDEST PUSH1 0x40 MLOAD PUSH1 0x20 DUP2 DUP4 SUB SUB DUP2 MSTORE SWAP1 PUSH1 0x40 MSTORE SWAP2 POP DUP3 PUSH1 0x1 PUSH1 0x1 PUSH1 0xA0 SHL SUB AND DUP3 DUP1 MLOAD SWAP1 PUSH1 0x20 ADD KECCAK256 PUSH1 0x0 SHR PUSH1 0x1 PUSH1 0x1 PUSH1 0xA0 SHL SUB AND EQ PUSH2 0xD54 JUMPI DUP3 DUP3 PUSH1 0x40 MLOAD PUSH4 0x35C5D737 PUSH1 0xE0 SHL DUP2 MSTORE PUSH1 0x4 ADD PUSH2 0xC88 SWAP3 SWAP2 SWAP1 PUSH2 0x3C2B JUMP JUMPDEST PUSH1 0xD8 DUP1 SLOAD PUSH1 0x0 SWAP1 DUP2 MSTORE PUSH1 0xCD PUSH1 0x20 SWAP1 DUP2 MSTORE PUSH1 0x40 DUP1 DUP4 KECCAK256 DUP1 SLOAD PUSH1 0x1 PUSH1 0x1 PUSH1 0xA0 SHL SUB NOT AND PUSH1 0x1 PUSH1 0x1 PUSH1 0xA0 SHL SUB DUP10 AND SWAP1 DUP2 OR SWAP1 SWAP2 SSTORE DUP5 SLOAD DUP5 MSTORE PUSH1 0xCE DUP4 MSTORE DUP2 DUP5 KECCAK256 DUP10 SWAP1 SSTORE DUP5 SLOAD SWAP1 DUP5 MSTORE PUSH1 0xCB DUP4 MSTORE DUP2 DUP5 KECCAK256 DUP2 SWAP1 SSTORE DUP9 DUP5 MSTORE PUSH1 0xCC DUP4 MSTORE DUP2 DUP5 KECCAK256 DUP2 SWAP1 SSTORE DUP4 MSTORE PUSH1 0xC9 DUP3 MSTORE DUP1 DUP4 KECCAK256 DUP1 SLOAD PUSH1 0xFF NOT SWAP1 DUP2 AND PUSH1 0x1 SWAP1 DUP2 OR SWAP1 SWAP3 SSTORE DUP6 SLOAD DUP6 MSTORE PUSH1 0xCA SWAP1 SWAP4 MSTORE SWAP3 KECCAK256 DUP1 SLOAD SWAP1 SWAP2 AND DUP3 OR SWAP1 SSTORE PUSH1 0xD7 DUP1 SLOAD DUP3 ADD SWAP1 SSTORE DUP2 SLOAD DUP2 ADD SWAP1 SWAP2 SSTORE ADD PUSH2 0xBFF JUMP JUMPDEST POP POP POP POP POP POP POP POP POP POP POP POP POP JUMP JUMPDEST PUSH1 0xDB SLOAD PUSH1 0x1 PUSH1 0xA8 SHL SWAP1 DIV PUSH1 0xFF AND PUSH2 0xE2A JUMPI PUSH1 0x40 MLOAD PUSH4 0xF51CBA77 PUSH1 0xE0 SHL DUP2 MSTORE PUSH1 0x4 ADD PUSH1 0x40 MLOAD DUP1 SWAP2 SUB SWAP1 REVERT JUMPDEST PUSH1 0x40 MLOAD PUSH4 0x555DDC65 PUSH1 0xE1 SHL DUP2 MSTORE PUSH1 0x0 SWAP1 PUSH20 0x1820A4B7618BDE71DCE8CDC73AAB6C95905FAD24 SWAP1 PUSH4 0xAABBB8CA SWAP1 PUSH2 0xE86 SWAP1 DUP9 SWAP1 PUSH32 0xAC7FBAB5F54A3CA8194167523C6753BFEB96A445279294B6125B68CCE2177054 SWAP1 PUSH1 0x4 ADD PUSH2 0x3B23 JUMP JUMPDEST PUSH1 0x20 PUSH1 0x40 MLOAD DUP1 DUP4 SUB DUP2 DUP7 GAS STATICCALL ISZERO DUP1 ISZERO PUSH2 0xEA3 JUMPI RETURNDATASIZE PUSH1 0x0 DUP1 RETURNDATACOPY RETURNDATASIZE PUSH1 0x0 REVERT JUMPDEST POP POP POP POP PUSH1 0x40 MLOAD RETURNDATASIZE PUSH1 0x1F NOT PUSH1 0x1F DUP3 ADD AND DUP3 ADD DUP1 PUSH1 0x40 MSTORE POP DUP2 ADD SWAP1 PUSH2 0xEC7 SWAP2 SWAP1 PUSH2 0x3B49 JUMP JUMPDEST PUSH1 0x1 PUSH1 0x1 PUSH1 0xA0 SHL SUB AND EQ PUSH2 0xEEE JUMPI PUSH1 0x40 MLOAD PUSH4 0xDB6E87F1 PUSH1 0xE0 SHL DUP2 MSTORE PUSH1 0x4 ADD PUSH1 0x40 MLOAD DUP1 SWAP2 SUB SWAP1 REVERT JUMPDEST DUP1 PUSH1 0x0 SUB PUSH2 0xF0F JUMPI PUSH1 0x40 MLOAD PUSH4 0xD11B25AF PUSH1 0xE0 SHL DUP2 MSTORE PUSH1 0x4 ADD PUSH1 0x40 MLOAD DUP1 SWAP2 SUB SWAP1 REVERT JUMPDEST PUSH1 0x40 MLOAD PUSH4 0x70A08231 PUSH1 0xE0 SHL DUP2 MSTORE DUP5 SWAP1 PUSH1 0x0 SWAP1 PUSH1 0x1 PUSH1 0x1 PUSH1 0xA0 SHL SUB DUP4 AND SWAP1 PUSH4 0x70A08231 SWAP1 PUSH2 0xF40 SWAP1 ADDRESS SWAP1 PUSH1 0x4 ADD PUSH2 0x3405 JUMP JUMPDEST PUSH1 0x20 PUSH1 0x40 MLOAD DUP1 DUP4 SUB DUP2 DUP7 GAS STATICCALL ISZERO DUP1 ISZERO PUSH2 0xF5D JUMPI RETURNDATASIZE PUSH1 0x0 DUP1 RETURNDATACOPY RETURNDATASIZE PUSH1 0x0 REVERT JUMPDEST POP POP POP POP PUSH1 0x40 MLOAD RETURNDATASIZE PUSH1 0x1F NOT PUSH1 0x1F DUP3 ADD AND DUP3 ADD DUP1 PUSH1 0x40 MSTORE POP DUP2 ADD SWAP1 PUSH2 0xF81 SWAP2 SWAP1 PUSH2 0x3B75 JUMP JUMPDEST PUSH1 0x40 MLOAD PUSH4 0x23B872DD PUSH1 0xE0 SHL DUP2 MSTORE SWAP1 SWAP2 POP PUSH1 0x1 PUSH1 0x1 PUSH1 0xA0 SHL SUB DUP4 AND SWAP1 PUSH4 0x23B872DD SWAP1 PUSH2 0xFB4 SWAP1 CALLER SWAP1 ADDRESS SWAP1 DUP9 SWAP1 PUSH1 0x4 ADD PUSH2 0x3C4B JUMP JUMPDEST PUSH1 0x20 PUSH1 0x40 MLOAD DUP1 DUP4 SUB DUP2 PUSH1 0x0 DUP8 GAS CALL ISZERO DUP1 ISZERO PUSH2 0xFD3 JUMPI RETURNDATASIZE PUSH1 0x0 DUP1 RETURNDATACOPY RETURNDATASIZE PUSH1 0x0 REVERT JUMPDEST POP POP POP POP PUSH1 0x40 MLOAD RETURNDATASIZE PUSH1 0x1F NOT PUSH1 0x1F DUP3 ADD AND DUP3 ADD DUP1 PUSH1 0x40 MSTORE POP DUP2 ADD SWAP1 PUSH2 0xFF7 SWAP2 SWAP1 PUSH2 0x3C7E JUMP JUMPDEST PUSH2 0x1003 JUMPI PUSH2 0x1003 PUSH2 0x3C9F JUMP JUMPDEST PUSH1 0x40 MLOAD PUSH4 0x70A08231 PUSH1 0xE0 SHL DUP2 MSTORE PUSH1 0x0 SWAP1 PUSH1 0x1 PUSH1 0x1 PUSH1 0xA0 SHL SUB DUP5 AND SWAP1 PUSH4 0x70A08231 SWAP1 PUSH2 0x1032 SWAP1 ADDRESS SWAP1 PUSH1 0x4 ADD PUSH2 0x3405 JUMP JUMPDEST PUSH1 0x20 PUSH1 0x40 MLOAD DUP1 DUP4 SUB DUP2 DUP7 GAS STATICCALL ISZERO DUP1 ISZERO PUSH2 0x104F JUMPI RETURNDATASIZE PUSH1 0x0 DUP1 RETURNDATACOPY RETURNDATASIZE PUSH1 0x0 REVERT JUMPDEST POP POP POP POP PUSH1 0x40 MLOAD RETURNDATASIZE PUSH1 0x1F NOT PUSH1 0x1F DUP3 ADD AND DUP3 ADD DUP1 PUSH1 0x40 MSTORE POP DUP2 ADD SWAP1 PUSH2 0x1073 SWAP2 SWAP1 PUSH2 0x3B75 JUMP JUMPDEST SWAP1 POP PUSH1 0x1 PUSH1 0x1 PUSH1 0x80 SHL SUB DUP2 GT ISZERO PUSH2 0x109D JUMPI PUSH1 0x40 MLOAD PUSH4 0x6E2C0487 PUSH1 0xE1 SHL DUP2 MSTORE PUSH1 0x4 ADD PUSH1 0x40 MLOAD DUP1 SWAP2 SUB SWAP1 REVERT JUMPDEST PUSH2 0x10DC DUP7 DUP7 DUP1 DUP1 PUSH1 0x1F ADD PUSH1 0x20 DUP1 SWAP2 DIV MUL PUSH1 0x20 ADD PUSH1 0x40 MLOAD SWAP1 DUP2 ADD PUSH1 0x40 MSTORE DUP1 SWAP4 SWAP3 SWAP2 SWAP1 DUP2 DUP2 MSTORE PUSH1 0x20 ADD DUP4 DUP4 DUP1 DUP3 DUP5 CALLDATACOPY PUSH1 0x0 SWAP3 ADD SWAP2 SWAP1 SWAP2 MSTORE POP PUSH2 0x277E SWAP3 POP POP POP JUMP JUMPDEST CALLER PUSH1 0x1 PUSH1 0x1 PUSH1 0xA0 SHL SUB DUP10 AND PUSH32 0x8964776336BC2FA8ECAAF70B6F8E8450807EFB1FF78F8B87980707AA821F0EC0 PUSH2 0x1112 DUP7 DUP7 PUSH2 0x3CCB JUMP JUMPDEST PUSH1 0x40 MLOAD PUSH2 0x111F SWAP2 SWAP1 PUSH2 0x364D JUMP JUMPDEST PUSH1 0x40 MLOAD DUP1 SWAP2 SUB SWAP1 LOG4 POP POP POP POP POP POP POP JUMP JUMPDEST PUSH2 0x1138 PUSH2 0x27AB JUMP JUMPDEST DUP1 MLOAD ISZERO DUP1 PUSH2 0x114A JUMPI POP PUSH1 0x20 DUP2 ADD MLOAD DUP2 MLOAD GT JUMPDEST ISZERO PUSH2 0x1168 JUMPI PUSH1 0x40 MLOAD PUSH4 0xD1735779 PUSH1 0xE0 SHL DUP2 MSTORE PUSH1 0x4 ADD PUSH1 0x40 MLOAD DUP1 SWAP2 SUB SWAP1 REVERT JUMPDEST PUSH2 0x1175 PUSH1 0xD5 DUP3 PUSH1 0x2 PUSH2 0x3134 JUMP JUMPDEST POP PUSH32 0xC7D2AB69CE7A42DB5CA306CA58373AE7719B64BA1A5D0A86ABDCCEA27FCFD8F9 PUSH1 0xD5 PUSH1 0x40 MLOAD PUSH2 0x11A6 SWAP2 SWAP1 PUSH2 0x3D37 JUMP JUMPDEST PUSH1 0x40 MLOAD DUP1 SWAP2 SUB SWAP1 LOG1 POP JUMP JUMPDEST PUSH2 0x11B9 PUSH2 0x27AB JUMP JUMPDEST PUSH1 0xDB DUP1 SLOAD PUSH1 0xFF PUSH1 0xA8 SHL NOT AND PUSH1 0x1 PUSH1 0xA8 SHL DUP4 ISZERO ISZERO MUL OR SWAP1 SSTORE PUSH1 0x40 MLOAD PUSH32 0x1CD6419035C493F53970C075A2A1C916D76018DF8E189468F4C21C360E7C8AA9 SWAP1 PUSH2 0x11A6 SWAP1 DUP4 SWAP1 PUSH2 0x3601 JUMP JUMPDEST PUSH1 0xDB SLOAD PUSH1 0x1 PUSH1 0xB0 SHL SWAP1 DIV PUSH1 0xFF AND PUSH2 0x122A JUMPI PUSH1 0x40 MLOAD PUSH4 0x99860DED PUSH1 0xE0 SHL DUP2 MSTORE PUSH1 0x4 ADD PUSH1 0x40 MLOAD DUP1 SWAP2 SUB SWAP1 REVERT JUMPDEST PUSH1 0x0 DUP4 DUP1 MLOAD SWAP1 PUSH1 0x20 ADD KECCAK256 SWAP1 POP PUSH2 0x1273 DUP2 DUP5 DUP5 DUP1 DUP1 PUSH1 0x20 MUL PUSH1 0x20 ADD PUSH1 0x40 MLOAD SWAP1 DUP2 ADD PUSH1 0x40 MSTORE DUP1 SWAP4 SWAP3 SWAP2 SWAP1 DUP2 DUP2 MSTORE PUSH1 0x20 ADD DUP4 DUP4 PUSH1 0x20 MUL DUP1 DUP3 DUP5 CALLDATACOPY PUSH1 0x0 SWAP3 ADD SWAP2 SWAP1 SWAP2 MSTORE POP PUSH2 0x2678 SWAP3 POP POP POP JUMP JUMPDEST PUSH2 0x1290 JUMPI PUSH1 0x40 MLOAD PUSH4 0x57BF35B3 PUSH1 0xE1 SHL DUP2 MSTORE PUSH1 0x4 ADD PUSH1 0x40 MLOAD DUP1 SWAP2 SUB SWAP1 REVERT JUMPDEST PUSH1 0x0 DUP2 DUP2 MSTORE PUSH1 0xD2 PUSH1 0x20 MSTORE PUSH1 0x40 SWAP1 KECCAK256 SLOAD PUSH1 0xFF AND ISZERO PUSH2 0x12C0 JUMPI PUSH1 0x40 MLOAD PUSH4 0xCC3317F PUSH1 0xE4 SHL DUP2 MSTORE PUSH1 0x4 ADD PUSH1 0x40 MLOAD DUP1 SWAP2 SUB SWAP1 REVERT JUMPDEST PUSH1 0x0 DUP2 DUP2 MSTORE PUSH1 0xD2 PUSH1 0x20 MSTORE PUSH1 0x40 DUP2 KECCAK256 DUP1 SLOAD PUSH1 0xFF NOT AND PUSH1 0x1 OR SWAP1 SSTORE DUP5 MLOAD DUP2 SWAP1 DUP2 SWAP1 DUP2 SWAP1 DUP2 SWAP1 DUP2 SWAP1 DUP2 SWAP1 PUSH2 0x130F SWAP1 DUP13 SWAP1 DUP4 SWAP1 PUSH2 0x12FB JUMPI PUSH2 0x12FB PUSH2 0x3B96 JUMP JUMPDEST ADD PUSH1 0x20 ADD MLOAD PUSH1 0x1 PUSH1 0x1 PUSH1 0xF8 SHL SUB NOT AND PUSH2 0x27D5 JUMP JUMPDEST DUP7 ADD SWAP6 POP DUP11 DUP7 DUP2 MLOAD DUP2 LT PUSH2 0x1325 JUMPI PUSH2 0x1325 PUSH2 0x3B96 JUMP JUMPDEST PUSH1 0x20 SWAP2 ADD ADD MLOAD PUSH1 0xF8 SHR PUSH1 0x80 AND PUSH1 0x0 SUB PUSH2 0x1351 JUMPI PUSH1 0x40 MLOAD PUSH4 0x227C863B PUSH1 0xE2 SHL DUP2 MSTORE PUSH1 0x4 ADD PUSH1 0x40 MLOAD DUP1 SWAP2 SUB SWAP1 REVERT JUMPDEST PUSH1 0x63 DUP7 ADD SWAP6 POP DUP11 DUP7 DUP2 MLOAD DUP2 LT PUSH2 0x1369 JUMPI PUSH2 0x1369 PUSH2 0x3B96 JUMP JUMPDEST ADD PUSH1 0x20 ADD MLOAD PUSH1 0x1 PUSH1 0x1 PUSH1 0xF8 SHL SUB NOT AND ISZERO PUSH2 0x1384 JUMPI PUSH1 0x2 PUSH2 0x1387 JUMP JUMPDEST PUSH1 0x1 JUMPDEST PUSH1 0xFF AND DUP7 ADD SWAP6 POP PUSH2 0x13A3 DUP12 DUP8 DUP2 MLOAD DUP2 LT PUSH2 0x12FB JUMPI PUSH2 0x12FB PUSH2 0x3B96 JUMP JUMPDEST DUP7 ADD SWAP6 POP PUSH2 0x13BC DUP12 DUP8 DUP2 MLOAD DUP2 LT PUSH2 0x12FB JUMPI PUSH2 0x12FB PUSH2 0x3B96 JUMP JUMPDEST SWAP1 SWAP6 ADD DUP11 DUP2 ADD PUSH1 0x20 SWAP1 DUP2 ADD MLOAD PUSH1 0x1 PUSH1 0x1 PUSH1 0xF0 SHL SUB NOT DUP2 AND PUSH1 0x0 SWAP1 DUP2 MSTORE PUSH1 0xCF DUP4 MSTORE PUSH1 0x40 DUP2 KECCAK256 SLOAD SWAP10 POP SWAP2 SWAP1 SWAP3 ADD SWAP7 POP DUP8 SWAP1 SUB PUSH2 0x1409 JUMPI PUSH1 0x40 MLOAD PUSH4 0x469DE687 PUSH1 0xE1 SHL DUP2 MSTORE PUSH1 0x4 ADD PUSH1 0x40 MLOAD DUP1 SWAP2 SUB SWAP1 REVERT JUMPDEST SWAP5 DUP7 ADD DUP11 DUP2 ADD DUP1 MLOAD PUSH1 0x14 DUP3 ADD MLOAD PUSH1 0x24 DUP4 ADD MLOAD PUSH1 0x38 SWAP1 SWAP4 ADD MLOAD SWAP4 SWAP9 SWAP2 SWAP8 POP SWAP6 POP SWAP2 SWAP4 POP PUSH15 0xFF000000FF000000FF000000FF0000 PUSH1 0x8 DUP3 DUP2 SHR SWAP2 DUP3 AND PUSH16 0xFF000000FF000000FF000000FF000000 SWAP4 SWAP1 SWAP2 SHL SWAP3 DUP4 AND OR PUSH1 0x10 SWAP1 DUP2 SHR PUSH13 0xFF000000FF000000FF000000FF SWAP1 SWAP3 AND PUSH14 0xFF000000FF000000FF000000FF00 SWAP1 SWAP4 AND SWAP3 SWAP1 SWAP3 OR SWAP1 SWAP2 SHL OR PUSH1 0x20 DUP2 DUP2 SHR PUSH12 0xFFFFFFFF00000000FFFFFFFF AND PUSH16 0xFFFFFFFF00000000FFFFFFFF00000000 SWAP3 SWAP1 SWAP2 SHL SWAP2 SWAP1 SWAP2 AND OR PUSH1 0x40 DUP2 DUP2 SHR SWAP2 SWAP1 SHL OR SWAP2 POP PUSH20 0xEEEEEEEEEEEEEEEEEEEEEEEEEEEEEEEEEEEEEEED NOT PUSH1 0x1 PUSH1 0x1 PUSH1 0xA0 SHL SUB DUP6 AND ADD PUSH2 0x1575 JUMPI PUSH1 0x0 DUP4 PUSH1 0x1 PUSH1 0x1 PUSH1 0xA0 SHL SUB AND DUP4 PUSH1 0x1 PUSH1 0x1 PUSH1 0x80 SHL SUB AND PUSH1 0x40 MLOAD PUSH2 0x150B SWAP1 PUSH2 0x3D4D JUMP JUMPDEST PUSH1 0x0 PUSH1 0x40 MLOAD DUP1 DUP4 SUB DUP2 DUP6 DUP8 GAS CALL SWAP3 POP POP POP RETURNDATASIZE DUP1 PUSH1 0x0 DUP2 EQ PUSH2 0x1548 JUMPI PUSH1 0x40 MLOAD SWAP2 POP PUSH1 0x1F NOT PUSH1 0x3F RETURNDATASIZE ADD AND DUP3 ADD PUSH1 0x40 MSTORE RETURNDATASIZE DUP3 MSTORE RETURNDATASIZE PUSH1 0x0 PUSH1 0x20 DUP5 ADD RETURNDATACOPY PUSH2 0x154D JUMP JUMPDEST PUSH1 0x60 SWAP2 POP JUMPDEST POP POP SWAP1 POP DUP1 PUSH2 0x156F JUMPI PUSH1 0x40 MLOAD PUSH4 0x7A4CED1 PUSH1 0xE5 SHL DUP2 MSTORE PUSH1 0x4 ADD PUSH1 0x40 MLOAD DUP1 SWAP2 SUB SWAP1 REVERT JUMPDEST POP PUSH2 0x170A JUMP JUMPDEST PUSH1 0x40 MLOAD PUSH4 0x555DDC65 PUSH1 0xE1 SHL DUP2 MSTORE PUSH1 0x1 PUSH1 0x1 PUSH1 0xA0 SHL SUB DUP6 AND SWAP1 PUSH20 0x1820A4B7618BDE71DCE8CDC73AAB6C95905FAD24 SWAP1 PUSH4 0xAABBB8CA SWAP1 PUSH2 0x15D9 SWAP1 DUP9 SWAP1 PUSH32 0xAC7FBAB5F54A3CA8194167523C6753BFEB96A445279294B6125B68CCE2177054 SWAP1 PUSH1 0x4 ADD PUSH2 0x3B23 JUMP JUMPDEST PUSH1 0x20 PUSH1 0x40 MLOAD DUP1 DUP4 SUB DUP2 DUP7 GAS STATICCALL ISZERO DUP1 ISZERO PUSH2 0x15F6 JUMPI RETURNDATASIZE PUSH1 0x0 DUP1 RETURNDATACOPY RETURNDATASIZE PUSH1 0x0 REVERT JUMPDEST POP POP POP POP PUSH1 0x40 MLOAD RETURNDATASIZE PUSH1 0x1F NOT PUSH1 0x1F DUP3 ADD AND DUP3 ADD DUP1 PUSH1 0x40 MSTORE POP DUP2 ADD SWAP1 PUSH2 0x161A SWAP2 SWAP1 PUSH2 0x3B49 JUMP JUMPDEST PUSH1 0x1 PUSH1 0x1 PUSH1 0xA0 SHL SUB AND SUB PUSH2 0x168D JUMPI PUSH1 0x40 MLOAD PUSH4 0x4DECDDE3 PUSH1 0xE1 SHL DUP2 MSTORE PUSH1 0x1 PUSH1 0x1 PUSH1 0xA0 SHL SUB DUP6 AND SWAP1 PUSH4 0x9BD9BBC6 SWAP1 PUSH2 0x1656 SWAP1 DUP7 SWAP1 DUP7 SWAP1 PUSH1 0x4 ADD PUSH2 0x3D84 JUMP JUMPDEST PUSH1 0x0 PUSH1 0x40 MLOAD DUP1 DUP4 SUB DUP2 PUSH1 0x0 DUP8 DUP1 EXTCODESIZE ISZERO DUP1 ISZERO PUSH2 0x1670 JUMPI PUSH1 0x0 DUP1 REVERT JUMPDEST POP GAS CALL ISZERO DUP1 ISZERO PUSH2 0x1684 JUMPI RETURNDATASIZE PUSH1 0x0 DUP1 RETURNDATACOPY RETURNDATASIZE PUSH1 0x0 REVERT JUMPDEST POP POP POP POP PUSH2 0x170A JUMP JUMPDEST PUSH1 0x40 MLOAD PUSH4 0xA9059CBB PUSH1 0xE0 SHL DUP2 MSTORE PUSH1 0x1 PUSH1 0x1 PUSH1 0xA0 SHL SUB DUP6 AND SWAP1 PUSH4 0xA9059CBB SWAP1 PUSH2 0x16BB SWAP1 DUP7 SWAP1 DUP7 SWAP1 PUSH1 0x4 ADD PUSH2 0x3DB0 JUMP JUMPDEST PUSH1 0x20 PUSH1 0x40 MLOAD DUP1 DUP4 SUB DUP2 PUSH1 0x0 DUP8 GAS CALL ISZERO DUP1 ISZERO PUSH2 0x16DA JUMPI RETURNDATASIZE PUSH1 0x0 DUP1 RETURNDATACOPY RETURNDATASIZE PUSH1 0x0 REVERT JUMPDEST POP POP POP POP PUSH1 0x40 MLOAD RETURNDATASIZE PUSH1 0x1F NOT PUSH1 0x1F DUP3 ADD AND DUP3 ADD DUP1 PUSH1 0x40 MSTORE POP DUP2 ADD SWAP1 PUSH2 0x16FE SWAP2 SWAP1 PUSH2 0x3C7E JUMP JUMPDEST PUSH2 0x170A JUMPI PUSH2 0x170A PUSH2 0x3C9F JUMP JUMPDEST DUP5 DUP4 PUSH1 0x1 PUSH1 0x1 PUSH1 0xA0 SHL SUB AND DUP6 PUSH1 0x1 PUSH1 0x1 PUSH1 0xA0 SHL SUB AND PUSH32 0xEA1B69480B8E6DF6E2FBA9E1FA47698276DB9338F7DE0D7C3A58CCE4A94F450F DUP6 PUSH1 0x40 MLOAD PUSH2 0x174E SWAP2 SWAP1 PUSH2 0x3DCB JUMP JUMPDEST PUSH1 0x40 MLOAD DUP1 SWAP2 SUB SWAP1 LOG4 POP POP POP POP POP POP POP POP POP POP POP JUMP JUMPDEST PUSH1 0x1 PUSH1 0x1 PUSH1 0xA0 SHL SUB PUSH32 0x0 AND ADDRESS SUB PUSH2 0x17AB JUMPI PUSH1 0x40 MLOAD PUSH3 0x461BCD PUSH1 0xE5 SHL DUP2 MSTORE PUSH1 0x4 ADD PUSH2 0xC88 SWAP1 PUSH2 0x3E25 JUMP JUMPDEST PUSH32 0x0 PUSH1 0x1 PUSH1 0x1 PUSH1 0xA0 SHL SUB AND PUSH2 0x17F4 PUSH1 0x0 DUP1 MLOAD PUSH1 0x20 PUSH2 0x43A8 DUP4 CODECOPY DUP2 MLOAD SWAP2 MSTORE SLOAD PUSH1 0x1 PUSH1 0x1 PUSH1 0xA0 SHL SUB AND SWAP1 JUMP JUMPDEST PUSH1 0x1 PUSH1 0x1 PUSH1 0xA0 SHL SUB AND EQ PUSH2 0x181A JUMPI PUSH1 0x40 MLOAD PUSH3 0x461BCD PUSH1 0xE5 SHL DUP2 MSTORE PUSH1 0x4 ADD PUSH2 0xC88 SWAP1 PUSH2 0x3E7E JUMP JUMPDEST PUSH2 0x1823 DUP2 PUSH2 0x282B JUMP JUMPDEST PUSH1 0x40 DUP1 MLOAD PUSH1 0x0 DUP1 DUP3 MSTORE PUSH1 0x20 DUP3 ADD SWAP1 SWAP3 MSTORE PUSH2 0x183F SWAP2 DUP4 SWAP2 SWAP1 PUSH2 0x2833 JUMP JUMPDEST POP JUMP JUMPDEST PUSH1 0x0 SLOAD PUSH2 0x100 SWAP1 DIV PUSH1 0xFF AND ISZERO DUP1 DUP1 ISZERO PUSH2 0x1862 JUMPI POP PUSH1 0x0 SLOAD PUSH1 0x1 PUSH1 0xFF SWAP1 SWAP2 AND LT JUMPDEST DUP1 PUSH2 0x187C JUMPI POP ADDRESS EXTCODESIZE ISZERO DUP1 ISZERO PUSH2 0x187C JUMPI POP PUSH1 0x0 SLOAD PUSH1 0xFF AND PUSH1 0x1 EQ JUMPDEST PUSH2 0x1898 JUMPI PUSH1 0x40 MLOAD PUSH3 0x461BCD PUSH1 0xE5 SHL DUP2 MSTORE PUSH1 0x4 ADD PUSH2 0xC88 SWAP1 PUSH2 0x3ED9 JUMP JUMPDEST PUSH1 0x0 DUP1 SLOAD PUSH1 0xFF NOT AND PUSH1 0x1 OR SWAP1 SSTORE DUP1 ISZERO PUSH2 0x18BB JUMPI PUSH1 0x0 DUP1 SLOAD PUSH2 0xFF00 NOT AND PUSH2 0x100 OR SWAP1 SSTORE JUMPDEST PUSH1 0x1 PUSH1 0x1 PUSH1 0xA0 SHL SUB DUP4 AND PUSH2 0x18E5 JUMPI PUSH1 0x40 MLOAD PUSH1 0x1 PUSH3 0x18405 PUSH1 0xE5 SHL SUB NOT DUP2 MSTORE PUSH1 0x4 ADD PUSH1 0x40 MLOAD DUP1 SWAP2 SUB SWAP1 REVERT JUMPDEST PUSH2 0x18ED PUSH2 0x2915 JUMP JUMPDEST PUSH1 0xDA DUP1 SLOAD PUSH1 0x1 PUSH1 0x1 PUSH1 0xA0 SHL SUB DUP1 DUP7 AND PUSH1 0x1 PUSH1 0x1 PUSH1 0xA0 SHL SUB NOT SWAP3 DUP4 AND OR SWAP1 SWAP3 SSTORE PUSH1 0xDB DUP1 SLOAD SWAP3 DUP6 AND SWAP3 SWAP1 SWAP2 AND SWAP2 SWAP1 SWAP2 OR SWAP1 SSTORE PUSH1 0x40 MLOAD PUSH4 0x29965A1D PUSH1 0xE0 SHL DUP2 MSTORE PUSH20 0x1820A4B7618BDE71DCE8CDC73AAB6C95905FAD24 SWAP1 PUSH4 0x29965A1D SWAP1 PUSH2 0x1978 SWAP1 ADDRESS SWAP1 PUSH32 0xB281FC8C12954D22544DB45DE3159A39272895B169A852B314F9CC762E44C53B SWAP1 DUP3 SWAP1 PUSH1 0x4 ADD PUSH2 0x3EE9 JUMP JUMPDEST PUSH1 0x0 PUSH1 0x40 MLOAD DUP1 DUP4 SUB DUP2 PUSH1 0x0 DUP8 DUP1 EXTCODESIZE ISZERO DUP1 ISZERO PUSH2 0x1992 JUMPI PUSH1 0x0 DUP1 REVERT JUMPDEST POP GAS CALL ISZERO DUP1 ISZERO PUSH2 0x19A6 JUMPI RETURNDATASIZE PUSH1 0x0 DUP1 RETURNDATACOPY RETURNDATASIZE PUSH1 0x0 REVERT JUMPDEST POP POP PUSH1 0xCF PUSH1 0x20 MSTORE POP POP PUSH1 0x85 PUSH32 0x474CF5CD8A156A285BDB013CD5AD88639478D8C2DF5DD0DA103DE5E0C93BE11F DUP2 SWAP1 SSTORE PUSH32 0x260A2A8177DFBDAED58ACD0B3DF5D4289C584F88BE17037C5ED3BB018CDE8169 SSTORE PUSH2 0x2B81 PUSH1 0xF1 SHL PUSH1 0x0 MSTORE PUSH1 0x2 PUSH32 0x475AC2ADE161108313CEEF0815CA8140B4DF68A82031C72F4E2F144147951065 DUP2 SWAP1 SSTORE PUSH1 0xDB DUP1 SLOAD PUSH3 0xFFFFFF PUSH1 0xA0 SHL NOT AND PUSH3 0x10101 PUSH1 0xA0 SHL OR SWAP1 SSTORE PUSH1 0x1 PUSH1 0xD8 SSTORE PUSH1 0xD5 SSTORE PUSH1 0x3 PUSH1 0xD6 SSTORE PUSH3 0x93A80 PUSH1 0xD9 SSTORE DUP1 ISZERO PUSH2 0x1A9C JUMPI PUSH1 0x0 DUP1 SLOAD PUSH2 0xFF00 NOT AND SWAP1 SSTORE PUSH1 0x40 MLOAD PUSH32 0x7F26B83FF96E1F2B6A682F133852F6798A09C465DA95921460CEFB3847402498 SWAP1 PUSH2 0x1A93 SWAP1 PUSH1 0x1 SWAP1 PUSH2 0x3F25 JUMP JUMPDEST PUSH1 0x40 MLOAD DUP1 SWAP2 SUB SWAP1 LOG1 JUMPDEST POP POP POP JUMP JUMPDEST PUSH1 0xDB SLOAD PUSH1 0x1 PUSH1 0xA0 SHL SWAP1 DIV PUSH1 0xFF AND PUSH2 0x1ACB JUMPI PUSH1 0x40 MLOAD PUSH4 0xCBCD947 PUSH1 0xE2 SHL DUP2 MSTORE PUSH1 0x4 ADD PUSH1 0x40 MLOAD DUP1 SWAP2 SUB SWAP1 REVERT JUMPDEST DUP5 MLOAD PUSH1 0x40 EQ PUSH2 0x1AED JUMPI PUSH1 0x40 MLOAD PUSH4 0xD4A4201 PUSH1 0xE1 SHL DUP2 MSTORE PUSH1 0x4 ADD PUSH1 0x40 MLOAD DUP1 SWAP2 SUB SWAP1 REVERT JUMPDEST DUP5 MLOAD PUSH1 0x20 DUP1 DUP8 ADD SWAP2 SWAP1 SWAP2 KECCAK256 PUSH1 0x1 PUSH1 0x1 PUSH1 0xA0 SHL SUB DUP2 AND PUSH1 0x0 SWAP1 DUP2 MSTORE PUSH1 0xCB DUP4 MSTORE PUSH1 0x40 DUP1 DUP3 KECCAK256 SLOAD DUP1 DUP4 MSTORE PUSH1 0xC9 SWAP1 SWAP5 MSTORE SWAP1 KECCAK256 SLOAD SWAP1 SWAP2 SWAP1 PUSH1 0xFF AND ISZERO PUSH2 0x1B40 JUMPI PUSH1 0x40 MLOAD PUSH4 0x132E7EFB PUSH1 0xE3 SHL DUP2 MSTORE PUSH1 0x4 ADD PUSH1 0x40 MLOAD DUP1 SWAP2 SUB SWAP1 REVERT JUMPDEST PUSH1 0x0 DUP8 DUP8 PUSH1 0x40 MLOAD PUSH1 0x20 ADD PUSH2 0x1B55 SWAP3 SWAP2 SWAP1 PUSH2 0x3F55 JUMP JUMPDEST PUSH1 0x40 MLOAD PUSH1 0x20 DUP2 DUP4 SUB SUB DUP2 MSTORE SWAP1 PUSH1 0x40 MSTORE DUP1 MLOAD SWAP1 PUSH1 0x20 ADD KECCAK256 SWAP1 POP PUSH2 0x1BB6 PUSH2 0x1B7A DUP3 DUP9 PUSH2 0x2944 JUMP JUMPDEST DUP7 DUP7 DUP1 DUP1 PUSH1 0x1F ADD PUSH1 0x20 DUP1 SWAP2 DIV MUL PUSH1 0x20 ADD PUSH1 0x40 MLOAD SWAP1 DUP2 ADD PUSH1 0x40 MSTORE DUP1 SWAP4 SWAP3 SWAP2 SWAP1 DUP2 DUP2 MSTORE PUSH1 0x20 ADD DUP4 DUP4 DUP1 DUP3 DUP5 CALLDATACOPY PUSH1 0x0 SWAP3 ADD SWAP2 SWAP1 SWAP2 MSTORE POP PUSH2 0x2991 SWAP3 POP POP POP JUMP JUMPDEST PUSH2 0x1BBF DUP7 PUSH2 0x2C43 JUMP JUMPDEST DUP2 PUSH1 0x0 SUB PUSH2 0x1C5C JUMPI PUSH1 0x0 DUP8 DUP2 MSTORE PUSH1 0xCC PUSH1 0x20 MSTORE PUSH1 0x40 SWAP1 KECCAK256 SLOAD ISZERO PUSH2 0x1BF6 JUMPI DUP7 PUSH1 0x40 MLOAD PUSH4 0xE75B239B PUSH1 0xE0 SHL DUP2 MSTORE PUSH1 0x4 ADD PUSH2 0xC88 SWAP2 SWAP1 PUSH2 0x364D JUMP JUMPDEST PUSH1 0xD8 DUP1 SLOAD PUSH1 0x0 DUP2 DUP2 MSTORE PUSH1 0xCD PUSH1 0x20 SWAP1 DUP2 MSTORE PUSH1 0x40 DUP1 DUP4 KECCAK256 DUP1 SLOAD PUSH1 0x1 PUSH1 0x1 PUSH1 0xA0 SHL SUB NOT AND PUSH1 0x1 PUSH1 0x1 PUSH1 0xA0 SHL SUB DUP11 AND SWAP1 DUP2 OR SWAP1 SWAP2 SSTORE DUP4 MSTORE PUSH1 0xCB DUP3 MSTORE DUP1 DUP4 KECCAK256 DUP5 SWAP1 SSTORE DUP4 DUP4 MSTORE PUSH1 0xCE DUP3 MSTORE DUP1 DUP4 KECCAK256 DUP13 SWAP1 SSTORE DUP12 DUP4 MSTORE PUSH1 0xCC SWAP1 SWAP2 MSTORE SWAP1 KECCAK256 DUP2 SWAP1 SSTORE DUP2 SLOAD PUSH1 0x1 ADD SWAP1 SWAP2 SSTORE SWAP2 POP PUSH2 0x1C9B JUMP JUMPDEST PUSH1 0x0 DUP3 DUP2 MSTORE PUSH1 0xCE PUSH1 0x20 MSTORE PUSH1 0x40 SWAP1 KECCAK256 SLOAD DUP8 EQ PUSH2 0x1C9B JUMPI PUSH1 0x0 DUP3 DUP2 MSTORE PUSH1 0xCE PUSH1 0x20 MSTORE PUSH1 0x40 SWAP1 DUP2 SWAP1 KECCAK256 SLOAD SWAP1 MLOAD PUSH4 0x1241DD05 PUSH1 0xE2 SHL DUP2 MSTORE PUSH2 0xC88 SWAP2 SWAP1 PUSH1 0x4 ADD PUSH2 0x364D JUMP JUMPDEST PUSH1 0x0 DUP3 DUP2 MSTORE PUSH1 0xC9 PUSH1 0x20 SWAP1 DUP2 MSTORE PUSH1 0x40 SWAP2 DUP3 SWAP1 KECCAK256 DUP1 SLOAD PUSH1 0xFF NOT AND PUSH1 0x1 OR SWAP1 SSTORE DUP10 ADD MLOAD DUP10 DUP3 ADD MLOAD SWAP2 MLOAD SWAP1 SWAP2 SWAP1 DUP9 SWAP1 DUP11 SWAP1 DUP5 SWAP1 PUSH32 0xFF083A6E395A67771F3C9108922BC274C27B38B48C210B0F6A8C5F4710C0494B SWAP1 PUSH2 0x1CF7 SWAP1 DUP7 SWAP1 PUSH2 0x364D JUMP JUMPDEST PUSH1 0x40 MLOAD DUP1 SWAP2 SUB SWAP1 LOG4 POP POP POP POP POP POP POP POP POP POP JUMP JUMPDEST PUSH1 0x1 PUSH1 0x1 PUSH1 0xA0 SHL SUB PUSH32 0x0 AND ADDRESS SUB PUSH2 0x1D53 JUMPI PUSH1 0x40 MLOAD PUSH3 0x461BCD PUSH1 0xE5 SHL DUP2 MSTORE PUSH1 0x4 ADD PUSH2 0xC88 SWAP1 PUSH2 0x3E25 JUMP JUMPDEST PUSH32 0x0 PUSH1 0x1 PUSH1 0x1 PUSH1 0xA0 SHL SUB AND PUSH2 0x1D9C PUSH1 0x0 DUP1 MLOAD PUSH1 0x20 PUSH2 0x43A8 DUP4 CODECOPY DUP2 MLOAD SWAP2 MSTORE SLOAD PUSH1 0x1 PUSH1 0x1 PUSH1 0xA0 SHL SUB AND SWAP1 JUMP JUMPDEST PUSH1 0x1 PUSH1 0x1 PUSH1 0xA0 SHL SUB AND EQ PUSH2 0x1DC2 JUMPI PUSH1 0x40 MLOAD PUSH3 0x461BCD PUSH1 0xE5 SHL DUP2 MSTORE PUSH1 0x4 ADD PUSH2 0xC88 SWAP1 PUSH2 0x3E7E JUMP JUMPDEST PUSH2 0x1DCB DUP3 PUSH2 0x282B JUMP JUMPDEST PUSH2 0x1DD7 DUP3 DUP3 PUSH1 0x1 PUSH2 0x2833 JUMP JUMPDEST POP POP JUMP JUMPDEST PUSH1 0x0 ADDRESS PUSH1 0x1 PUSH1 0x1 PUSH1 0xA0 SHL SUB PUSH32 0x0 AND EQ PUSH2 0x1E25 JUMPI PUSH1 0x40 MLOAD PUSH3 0x461BCD PUSH1 0xE5 SHL DUP2 MSTORE PUSH1 0x4 ADD PUSH2 0xC88 SWAP1 PUSH2 0x3FC7 JUMP JUMPDEST POP PUSH1 0x0 DUP1 MLOAD PUSH1 0x20 PUSH2 0x43A8 DUP4 CODECOPY DUP2 MLOAD SWAP2 MSTORE SWAP1 JUMP JUMPDEST PUSH1 0xDB SLOAD PUSH1 0x1 PUSH1 0xA0 SHL SWAP1 DIV PUSH1 0xFF AND PUSH2 0x1E62 JUMPI PUSH1 0x40 MLOAD PUSH4 0xCBCD947 PUSH1 0xE2 SHL DUP2 MSTORE PUSH1 0x4 ADD PUSH1 0x40 MLOAD DUP1 SWAP2 SUB SWAP1 REVERT JUMPDEST PUSH1 0x0 DUP5 DUP2 MSTORE PUSH1 0xCC PUSH1 0x20 SWAP1 DUP2 MSTORE PUSH1 0x40 DUP1 DUP4 KECCAK256 SLOAD DUP1 DUP5 MSTORE PUSH1 0xC9 SWAP1 SWAP3 MSTORE SWAP1 SWAP2 KECCAK256 SLOAD PUSH1 0xFF AND PUSH2 0x1EA0 JUMPI PUSH1 0x40 MLOAD PUSH4 0x510B8AAD PUSH1 0xE1 SHL DUP2 MSTORE PUSH1 0x4 ADD PUSH1 0x40 MLOAD DUP1 SWAP2 SUB SWAP1 REVERT JUMPDEST PUSH1 0x0 DUP6 DUP8 PUSH1 0x40 MLOAD PUSH1 0x20 ADD PUSH2 0x1EB5 SWAP3 SWAP2 SWAP1 PUSH2 0x3FD7 JUMP JUMPDEST PUSH1 0x40 MLOAD PUSH1 0x20 DUP2 DUP4 SUB SUB DUP2 MSTORE SWAP1 PUSH1 0x40 MSTORE DUP1 MLOAD SWAP1 PUSH1 0x20 ADD KECCAK256 SWAP1 POP PUSH2 0x1F16 PUSH2 0x1EDA DUP3 DUP8 PUSH2 0x2944 JUMP JUMPDEST DUP6 DUP6 DUP1 DUP1 PUSH1 0x1F ADD PUSH1 0x20 DUP1 SWAP2 DIV MUL PUSH1 0x20 ADD PUSH1 0x40 MLOAD SWAP1 DUP2 ADD PUSH1 0x40 MSTORE DUP1 SWAP4 SWAP3 SWAP2 SWAP1 DUP2 DUP2 MSTORE PUSH1 0x20 ADD DUP4 DUP4 DUP1 DUP3 DUP5 CALLDATACOPY PUSH1 0x0 SWAP3 ADD SWAP2 SWAP1 SWAP2 MSTORE POP PUSH2 0x2991 SWAP3 POP POP POP JUMP JUMPDEST PUSH2 0x1F1F DUP6 PUSH2 0x2C43 JUMP JUMPDEST PUSH1 0x0 DUP3 DUP2 MSTORE PUSH1 0xC9 PUSH1 0x20 SWAP1 DUP2 MSTORE PUSH1 0x40 DUP1 DUP4 KECCAK256 DUP1 SLOAD PUSH1 0xFF NOT SWAP1 DUP2 AND SWAP1 SWAP2 SSTORE PUSH1 0xCA DUP4 MSTORE SWAP3 DUP2 SWAP1 KECCAK256 DUP1 SLOAD SWAP1 SWAP4 AND SWAP1 SWAP3 SSTORE PUSH1 0xD7 DUP1 SLOAD PUSH1 0x0 NOT ADD SWAP1 SSTORE DUP9 ADD MLOAD DUP9 DUP3 ADD MLOAD SWAP2 MLOAD SWAP1 SWAP2 SWAP1 DUP8 SWAP1 DUP10 SWAP1 DUP5 SWAP1 PUSH32 0xF3EAD85A271457D1249724C811BEC3349855A5F1463CAC7DE6BB3E7801E6D176 SWAP1 PUSH2 0x1F94 SWAP1 DUP7 SWAP1 PUSH2 0x364D JUMP JUMPDEST PUSH1 0x40 MLOAD DUP1 SWAP2 SUB SWAP1 LOG4 POP POP POP POP POP POP POP POP POP JUMP JUMPDEST PUSH2 0x1FAF PUSH2 0x27AB JUMP JUMPDEST PUSH2 0x1FB9 PUSH1 0x0 PUSH2 0x2C8E JUMP JUMPDEST JUMP JUMPDEST PUSH1 0xDB SLOAD PUSH1 0x1 PUSH1 0xA0 SHL SWAP1 DIV PUSH1 0xFF AND PUSH2 0x1FE5 JUMPI PUSH1 0x40 MLOAD PUSH4 0xCBCD947 PUSH1 0xE2 SHL DUP2 MSTORE PUSH1 0x4 ADD PUSH1 0x40 MLOAD DUP1 SWAP2 SUB SWAP1 REVERT JUMPDEST DUP5 PUSH1 0x1 PUSH1 0x1 PUSH1 0x80 SHL SUB AND PUSH1 0x0 SUB PUSH2 0x200F JUMPI PUSH1 0x40 MLOAD PUSH4 0xD11B25AF PUSH1 0xE0 SHL DUP2 MSTORE PUSH1 0x4 ADD PUSH1 0x40 MLOAD DUP1 SWAP2 SUB SWAP1 REVERT JUMPDEST PUSH4 0xFFFFFFFF DUP5 AND PUSH1 0x0 SWAP1 DUP2 MSTORE PUSH1 0xD4 PUSH1 0x20 MSTORE PUSH1 0x40 SWAP1 KECCAK256 SLOAD PUSH1 0x1 PUSH1 0x1 PUSH1 0x80 SHL SUB AND ISZERO PUSH2 0x204C JUMPI PUSH1 0x40 MLOAD PUSH4 0x1E85D645 PUSH1 0xE1 SHL DUP2 MSTORE PUSH1 0x4 ADD PUSH1 0x40 MLOAD DUP1 SWAP2 SUB SWAP1 REVERT JUMPDEST PUSH4 0xFFFFFFFF DUP5 AND PUSH1 0x0 SWAP1 DUP2 MSTORE PUSH1 0xD4 PUSH1 0x20 MSTORE PUSH1 0x40 DUP2 KECCAK256 DUP1 SLOAD PUSH16 0xFFFFFFFFFFFFFFFFFFFFFFFFFFFFFFFF NOT AND PUSH1 0x1 PUSH1 0x1 PUSH1 0x80 SHL SUB DUP9 AND OR SWAP1 SSTORE DUP2 SWAP1 SUB PUSH2 0x20C4 JUMPI PUSH1 0x97 SLOAD PUSH1 0x1 PUSH1 0x1 PUSH1 0xA0 SHL SUB AND CALLER EQ PUSH2 0x20B5 JUMPI PUSH1 0x40 MLOAD PUSH4 0xB2DB9B7 PUSH1 0xE3 SHL DUP2 MSTORE PUSH1 0x4 ADD PUSH1 0x40 MLOAD DUP1 SWAP2 SUB SWAP1 REVERT JUMPDEST PUSH2 0x20BF DUP6 DUP6 PUSH2 0x2CE0 JUMP JUMPDEST PUSH2 0x21B4 JUMP JUMPDEST PUSH1 0x0 DUP6 DUP6 PUSH1 0x40 MLOAD PUSH1 0x20 ADD PUSH2 0x20D9 SWAP3 SWAP2 SWAP1 PUSH2 0x3FFF JUMP JUMPDEST PUSH1 0x40 MLOAD PUSH1 0x20 DUP2 DUP4 SUB SUB DUP2 MSTORE SWAP1 PUSH1 0x40 MSTORE DUP1 MLOAD SWAP1 PUSH1 0x20 ADD KECCAK256 SWAP1 POP PUSH2 0x213A PUSH2 0x20FE DUP3 DUP7 PUSH2 0x2944 JUMP JUMPDEST DUP5 DUP5 DUP1 DUP1 PUSH1 0x1F ADD PUSH1 0x20 DUP1 SWAP2 DIV MUL PUSH1 0x20 ADD PUSH1 0x40 MLOAD SWAP1 DUP2 ADD PUSH1 0x40 MSTORE DUP1 SWAP4 SWAP3 SWAP2 SWAP1 DUP2 DUP2 MSTORE PUSH1 0x20 ADD DUP4 DUP4 DUP1 DUP3 DUP5 CALLDATACOPY PUSH1 0x0 SWAP3 ADD SWAP2 SWAP1 SWAP2 MSTORE POP PUSH2 0x2991 SWAP3 POP POP POP JUMP JUMPDEST PUSH2 0x2143 DUP5 PUSH2 0x2C43 JUMP JUMPDEST PUSH1 0xD9 SLOAD PUSH1 0x0 SUB PUSH2 0x215C JUMPI PUSH2 0x2157 DUP7 DUP7 PUSH2 0x2CE0 JUMP JUMPDEST PUSH2 0x21B2 JUMP JUMPDEST PUSH1 0xD9 SLOAD PUSH4 0xFFFFFFFF DUP7 AND PUSH1 0x0 DUP2 DUP2 MSTORE PUSH1 0xD3 PUSH1 0x20 MSTORE PUSH1 0x40 DUP1 DUP3 KECCAK256 TIMESTAMP SWAP1 SWAP5 ADD SWAP4 DUP5 SWAP1 SSTORE MLOAD DUP4 SWAP3 SWAP2 PUSH1 0x1 PUSH1 0x1 PUSH1 0x80 SHL SUB DUP12 AND SWAP2 PUSH32 0x72CE45AFE06A144FBB1F267FB94BCB4C9696C3628D36EF4795E65BB110F5E85F SWAP2 SWAP1 LOG4 POP JUMPDEST POP JUMPDEST POP POP POP POP POP JUMP JUMPDEST PUSH2 0x21C3 PUSH2 0x27AB JUMP JUMPDEST PUSH1 0xDB DUP1 SLOAD PUSH1 0xFF PUSH1 0xA0 SHL NOT AND PUSH1 0x1 PUSH1 0xA0 SHL DUP4 ISZERO ISZERO MUL OR SWAP1 SSTORE PUSH1 0x40 MLOAD PUSH32 0xDDBFF3B04F8F09B378DEA661B2BEE67BBEDEA1DB50196599CD887499D1F445D2 SWAP1 PUSH2 0x11A6 SWAP1 DUP4 SWAP1 PUSH2 0x3601 JUMP JUMPDEST PUSH2 0x2212 PUSH2 0x27AB JUMP JUMPDEST PUSH1 0xDB DUP1 SLOAD PUSH1 0xFF PUSH1 0xB0 SHL NOT AND PUSH1 0x1 PUSH1 0xB0 SHL DUP4 ISZERO ISZERO MUL OR SWAP1 SSTORE PUSH1 0x40 MLOAD PUSH32 0x236540B1DC0F95BDEFE04C9E02C5EDCC415F7BF4D44DAC6AB16528FEBA25F7ED SWAP1 PUSH2 0x11A6 SWAP1 DUP4 SWAP1 PUSH2 0x3601 JUMP JUMPDEST PUSH4 0xFFFFFFFF DUP2 AND PUSH1 0x0 SWAP1 DUP2 MSTORE PUSH1 0xD3 PUSH1 0x20 MSTORE PUSH1 0x40 DUP2 KECCAK256 SLOAD SWAP1 DUP2 SWAP1 SUB PUSH2 0x2290 JUMPI PUSH1 0x40 MLOAD PUSH4 0x33B37F5F PUSH1 0xE1 SHL DUP2 MSTORE PUSH1 0x4 ADD PUSH1 0x40 MLOAD DUP1 SWAP2 SUB SWAP1 REVERT JUMPDEST DUP1 TIMESTAMP LT ISZERO PUSH2 0x22B3 JUMPI DUP1 PUSH1 0x40 MLOAD PUSH4 0x3C4E91A5 PUSH1 0xE1 SHL DUP2 MSTORE PUSH1 0x4 ADD PUSH2 0xC88 SWAP2 SWAP1 PUSH2 0x364D JUMP JUMPDEST PUSH4 0xFFFFFFFF DUP3 AND PUSH1 0x0 SWAP1 DUP2 MSTORE PUSH1 0xD3 PUSH1 0x20 SWAP1 DUP2 MSTORE PUSH1 0x40 DUP1 DUP4 KECCAK256 DUP4 SWAP1 SSTORE PUSH1 0xD4 SWAP1 SWAP2 MSTORE SWAP1 KECCAK256 SLOAD PUSH2 0x1DD7 SWAP1 PUSH1 0x1 PUSH1 0x1 PUSH1 0x80 SHL SUB AND DUP4 PUSH2 0x2CE0 JUMP JUMPDEST PUSH2 0x22F1 PUSH2 0x27AB JUMP JUMPDEST PUSH32 0x44CF508136A645CBE72B5020F8B6A5F8965D58B314E39C47878EA4429ECBE459 PUSH1 0xD9 SLOAD DUP3 PUSH1 0x40 MLOAD PUSH2 0x2324 SWAP3 SWAP2 SWAP1 PUSH2 0x401A JUMP JUMPDEST PUSH1 0x40 MLOAD DUP1 SWAP2 SUB SWAP1 LOG1 PUSH1 0xD9 SSTORE JUMP JUMPDEST PUSH1 0xDB SLOAD PUSH1 0x1 PUSH1 0xA8 SHL SWAP1 DIV PUSH1 0xFF AND PUSH2 0x235B JUMPI PUSH1 0x40 MLOAD PUSH4 0xF51CBA77 PUSH1 0xE0 SHL DUP2 MSTORE PUSH1 0x4 ADD PUSH1 0x40 MLOAD DUP1 SWAP2 SUB SWAP1 REVERT JUMPDEST CALLVALUE PUSH1 0x0 SUB PUSH2 0x237C JUMPI PUSH1 0x40 MLOAD PUSH4 0xD11B25AF PUSH1 0xE0 SHL DUP2 MSTORE PUSH1 0x4 ADD PUSH1 0x40 MLOAD DUP1 SWAP2 SUB SWAP1 REVERT JUMPDEST PUSH2 0x23BB DUP3 DUP3 DUP1 DUP1 PUSH1 0x1F ADD PUSH1 0x20 DUP1 SWAP2 DIV MUL PUSH1 0x20 ADD PUSH1 0x40 MLOAD SWAP1 DUP2 ADD PUSH1 0x40 MSTORE DUP1 SWAP4 SWAP3 SWAP2 SWAP1 DUP2 DUP2 MSTORE PUSH1 0x20 ADD DUP4 DUP4 DUP1 DUP3 DUP5 CALLDATACOPY PUSH1 0x0 SWAP3 ADD SWAP2 SWAP1 SWAP2 MSTORE POP PUSH2 0x277E SWAP3 POP POP POP JUMP JUMPDEST PUSH1 0x40 MLOAD CALLER SWAP1 PUSH20 0xEEEEEEEEEEEEEEEEEEEEEEEEEEEEEEEEEEEEEEEE SWAP1 PUSH32 0x8964776336BC2FA8ECAAF70B6F8E8450807EFB1FF78F8B87980707AA821F0EC0 SWAP1 PUSH2 0x2403 SWAP1 CALLVALUE SWAP1 PUSH2 0x364D JUMP JUMPDEST PUSH1 0x40 MLOAD DUP1 SWAP2 SUB SWAP1 LOG4 POP POP JUMP JUMPDEST PUSH2 0x2417 PUSH2 0x27AB JUMP JUMPDEST PUSH1 0xDA SLOAD PUSH1 0x40 MLOAD PUSH1 0x0 SWAP2 PUSH1 0x1 PUSH1 0x1 PUSH1 0xA0 SHL SUB AND SWAP1 PUSH2 0x2438 SWAP1 CALLER SWAP1 PUSH1 0x24 ADD PUSH2 0x3405 JUMP JUMPDEST PUSH1 0x40 DUP1 MLOAD PUSH1 0x1F NOT DUP2 DUP5 SUB ADD DUP2 MSTORE SWAP2 DUP2 MSTORE PUSH1 0x20 DUP3 ADD DUP1 MLOAD PUSH1 0x1 PUSH1 0x1 PUSH1 0xE0 SHL SUB AND PUSH4 0x13AF4035 PUSH1 0xE0 SHL OR SWAP1 MSTORE MLOAD PUSH2 0x246D SWAP2 SWAP1 PUSH2 0x4028 JUMP JUMPDEST PUSH1 0x0 PUSH1 0x40 MLOAD DUP1 DUP4 SUB DUP2 PUSH1 0x0 DUP7 GAS CALL SWAP2 POP POP RETURNDATASIZE DUP1 PUSH1 0x0 DUP2 EQ PUSH2 0x24AA JUMPI PUSH1 0x40 MLOAD SWAP2 POP PUSH1 0x1F NOT PUSH1 0x3F RETURNDATASIZE ADD AND DUP3 ADD PUSH1 0x40 MSTORE RETURNDATASIZE DUP3 MSTORE RETURNDATASIZE PUSH1 0x0 PUSH1 0x20 DUP5 ADD RETURNDATACOPY PUSH2 0x24AF JUMP JUMPDEST PUSH1 0x60 SWAP2 POP JUMPDEST POP POP SWAP1 POP DUP1 PUSH2 0x183F JUMPI PUSH1 0x40 MLOAD PUSH4 0x3C330643 PUSH1 0xE2 SHL DUP2 MSTORE PUSH1 0x4 ADD PUSH1 0x40 MLOAD DUP1 SWAP2 SUB SWAP1 REVERT JUMPDEST PUSH1 0xDB SLOAD PUSH1 0x1 PUSH1 0xA0 SHL SWAP1 DIV PUSH1 0xFF AND PUSH2 0x24FB JUMPI PUSH1 0x40 MLOAD PUSH4 0xCBCD947 PUSH1 0xE2 SHL DUP2 MSTORE PUSH1 0x4 ADD PUSH1 0x40 MLOAD DUP1 SWAP2 SUB SWAP1 REVERT JUMPDEST PUSH2 0x2544 PUSH2 0x2508 DUP6 DUP6 PUSH2 0x2944 JUMP JUMPDEST DUP4 DUP4 DUP1 DUP1 PUSH1 0x1F ADD PUSH1 0x20 DUP1 SWAP2 DIV MUL PUSH1 0x20 ADD PUSH1 0x40 MLOAD SWAP1 DUP2 ADD PUSH1 0x40 MSTORE DUP1 SWAP4 SWAP3 SWAP2 SWAP1 DUP2 DUP2 MSTORE PUSH1 0x20 ADD DUP4 DUP4 DUP1 DUP3 DUP5 CALLDATACOPY PUSH1 0x0 SWAP3 ADD SWAP2 SWAP1 SWAP2 MSTORE POP PUSH2 0x2991 SWAP3 POP POP POP JUMP JUMPDEST PUSH2 0x254D DUP4 PUSH2 0x2C43 JUMP JUMPDEST PUSH1 0x0 DUP5 DUP2 MSTORE PUSH1 0xD0 PUSH1 0x20 MSTORE PUSH1 0x40 SWAP1 KECCAK256 SLOAD PUSH1 0xFF AND ISZERO PUSH2 0x257D JUMPI PUSH1 0x40 MLOAD PUSH4 0x27A7EC4B PUSH1 0xE0 SHL DUP2 MSTORE PUSH1 0x4 ADD PUSH1 0x40 MLOAD DUP1 SWAP2 SUB SWAP1 REVERT JUMPDEST PUSH1 0x0 DUP5 DUP2 MSTORE PUSH1 0xD0 PUSH1 0x20 MSTORE PUSH1 0x40 DUP1 DUP3 KECCAK256 DUP1 SLOAD PUSH1 0xFF NOT AND PUSH1 0x1 OR SWAP1 SSTORE MLOAD DUP5 SWAP2 DUP7 SWAP2 PUSH32 0xFE808338418DE30500C1A16538C15061C01827981732033CF0D1B9BC04641703 SWAP2 SWAP1 LOG3 POP POP POP POP JUMP JUMPDEST PUSH2 0x25CE PUSH2 0x27AB JUMP JUMPDEST PUSH4 0xFFFFFFFF DUP2 AND PUSH1 0x0 SWAP1 DUP2 MSTORE PUSH1 0xD3 PUSH1 0x20 MSTORE PUSH1 0x40 DUP1 DUP3 KECCAK256 SWAP2 SWAP1 SWAP2 SSTORE MLOAD PUSH32 0x548E97EFCF29C8C170CF478F03B2258C006AA1489CD2DE404C816E4DA1CD3979 SWAP1 PUSH2 0x11A6 SWAP1 DUP4 SWAP1 PUSH2 0x4034 JUMP JUMPDEST PUSH2 0x261E PUSH2 0x27AB JUMP JUMPDEST PUSH1 0x1 PUSH1 0x1 PUSH1 0xF0 SHL SUB NOT DUP3 AND PUSH1 0x0 SWAP1 DUP2 MSTORE PUSH1 0xCF PUSH1 0x20 MSTORE PUSH1 0x40 SWAP1 DUP2 SWAP1 KECCAK256 DUP3 SWAP1 SSTORE MLOAD PUSH32 0x8A2052EE12AA0AD46DEB771B8CC507BE8E8E773FD206BF9BD3603C36D59DE122 SWAP1 PUSH2 0x266C SWAP1 DUP5 SWAP1 DUP5 SWAP1 PUSH2 0x4052 JUMP JUMPDEST PUSH1 0x40 MLOAD DUP1 SWAP2 SUB SWAP1 LOG1 POP POP JUMP JUMPDEST DUP1 MLOAD PUSH1 0x0 SWAP1 DUP4 SWAP1 DUP3 DUP1 JUMPDEST DUP3 DUP2 LT ISZERO PUSH2 0x2712 JUMPI DUP6 DUP2 DUP2 MLOAD DUP2 LT PUSH2 0x269C JUMPI PUSH2 0x269C PUSH2 0x3B96 JUMP JUMPDEST PUSH1 0x20 MUL PUSH1 0x20 ADD ADD MLOAD SWAP2 POP DUP2 DUP5 LT ISZERO PUSH2 0x26DE JUMPI DUP4 DUP3 PUSH1 0x40 MLOAD PUSH1 0x20 ADD PUSH2 0x26C1 SWAP3 SWAP2 SWAP1 PUSH2 0x401A JUMP JUMPDEST PUSH1 0x40 MLOAD PUSH1 0x20 DUP2 DUP4 SUB SUB DUP2 MSTORE SWAP1 PUSH1 0x40 MSTORE DUP1 MLOAD SWAP1 PUSH1 0x20 ADD KECCAK256 SWAP4 POP PUSH2 0x270A JUMP JUMPDEST DUP2 DUP5 PUSH1 0x40 MLOAD PUSH1 0x20 ADD PUSH2 0x26F1 SWAP3 SWAP2 SWAP1 PUSH2 0x401A JUMP JUMPDEST PUSH1 0x40 MLOAD PUSH1 0x20 DUP2 DUP4 SUB SUB DUP2 MSTORE SWAP1 PUSH1 0x40 MSTORE DUP1 MLOAD SWAP1 PUSH1 0x20 ADD KECCAK256 SWAP4 POP JUMPDEST PUSH1 0x1 ADD PUSH2 0x2682 JUMP JUMPDEST POP POP POP PUSH1 0x0 SWAP1 DUP2 MSTORE PUSH1 0xD0 PUSH1 0x20 MSTORE PUSH1 0x40 SWAP1 KECCAK256 SLOAD PUSH1 0xFF AND SWAP1 POP JUMPDEST SWAP3 SWAP2 POP POP JUMP JUMPDEST PUSH2 0x2738 PUSH2 0x27AB JUMP JUMPDEST PUSH1 0x1 PUSH1 0x1 PUSH1 0xA0 SHL SUB DUP2 AND PUSH2 0x275E JUMPI PUSH1 0x40 MLOAD PUSH3 0x461BCD PUSH1 0xE5 SHL DUP2 MSTORE PUSH1 0x4 ADD PUSH2 0xC88 SWAP1 PUSH2 0x40A3 JUMP JUMPDEST PUSH2 0x183F DUP2 PUSH2 0x2C8E JUMP JUMPDEST PUSH1 0xD5 DUP2 PUSH1 0x2 DUP2 LT PUSH2 0x2777 JUMPI PUSH1 0x0 DUP1 REVERT JUMPDEST ADD SLOAD SWAP1 POP DUP2 JUMP JUMPDEST PUSH1 0x0 DUP2 MLOAD PUSH1 0x20 EQ PUSH2 0x27A2 JUMPI PUSH1 0x40 MLOAD PUSH4 0xC413639 PUSH1 0xE3 SHL DUP2 MSTORE PUSH1 0x4 ADD PUSH1 0x40 MLOAD DUP1 SWAP2 SUB SWAP1 REVERT JUMPDEST PUSH2 0x272A DUP3 PUSH2 0x40BD JUMP JUMPDEST PUSH1 0x97 SLOAD PUSH1 0x1 PUSH1 0x1 PUSH1 0xA0 SHL SUB AND CALLER EQ PUSH2 0x1FB9 JUMPI PUSH1 0x40 MLOAD PUSH3 0x461BCD PUSH1 0xE5 SHL DUP2 MSTORE PUSH1 0x4 ADD PUSH2 0xC88 SWAP1 PUSH2 0x40FC JUMP JUMPDEST PUSH1 0x0 PUSH1 0x3 PUSH1 0xF8 DUP4 SWAP1 SHR AND DUP1 DUP3 SUB PUSH2 0x27EF JUMPI PUSH1 0x1 SWAP2 POP PUSH2 0x2825 JUMP JUMPDEST DUP1 PUSH1 0xFF AND PUSH1 0x1 SUB PUSH2 0x2803 JUMPI PUSH1 0x2 SWAP2 POP PUSH2 0x2825 JUMP JUMPDEST DUP1 PUSH1 0xFF AND PUSH1 0x2 SUB PUSH2 0x2817 JUMPI PUSH1 0x4 SWAP2 POP PUSH2 0x2825 JUMP JUMPDEST PUSH1 0xFF PUSH1 0x5 PUSH1 0xFA DUP6 SWAP1 SHR ADD AND SWAP2 POP JUMPDEST POP SWAP2 SWAP1 POP JUMP JUMPDEST PUSH2 0x183F PUSH2 0x27AB JUMP JUMPDEST PUSH32 0x4910FDFA16FED3260ED0E7147F7CC6DA11A60208B5B9406D12A635614FFD9143 SLOAD PUSH1 0xFF AND ISZERO PUSH2 0x2866 JUMPI PUSH2 0x1A9C DUP4 PUSH2 0x2F0C JUMP JUMPDEST DUP3 PUSH1 0x1 PUSH1 0x1 PUSH1 0xA0 SHL SUB AND PUSH4 0x52D1902D PUSH1 0x40 MLOAD DUP2 PUSH4 0xFFFFFFFF AND PUSH1 0xE0 SHL DUP2 MSTORE PUSH1 0x4 ADD PUSH1 0x20 PUSH1 0x40 MLOAD DUP1 DUP4 SUB DUP2 DUP7 GAS STATICCALL SWAP3 POP POP POP DUP1 ISZERO PUSH2 0x28C0 JUMPI POP PUSH1 0x40 DUP1 MLOAD PUSH1 0x1F RETURNDATASIZE SWAP1 DUP2 ADD PUSH1 0x1F NOT AND DUP3 ADD SWAP1 SWAP3 MSTORE PUSH2 0x28BD SWAP2 DUP2 ADD SWAP1 PUSH2 0x3B75 JUMP JUMPDEST PUSH1 0x1 JUMPDEST PUSH2 0x28DC JUMPI PUSH1 0x40 MLOAD PUSH3 0x461BCD PUSH1 0xE5 SHL DUP2 MSTORE PUSH1 0x4 ADD PUSH2 0xC88 SWAP1 PUSH2 0x4181 JUMP JUMPDEST PUSH1 0x0 DUP1 MLOAD PUSH1 0x20 PUSH2 0x43A8 DUP4 CODECOPY DUP2 MLOAD SWAP2 MSTORE DUP2 EQ PUSH2 0x2909 JUMPI PUSH1 0x40 MLOAD PUSH3 0x461BCD PUSH1 0xE5 SHL DUP2 MSTORE PUSH1 0x4 ADD PUSH2 0xC88 SWAP1 PUSH2 0x41D7 JUMP JUMPDEST POP PUSH2 0x1A9C DUP4 DUP4 DUP4 PUSH2 0x2F62 JUMP JUMPDEST PUSH1 0x0 SLOAD PUSH2 0x100 SWAP1 DIV PUSH1 0xFF AND PUSH2 0x293C JUMPI PUSH1 0x40 MLOAD PUSH3 0x461BCD PUSH1 0xE5 SHL DUP2 MSTORE PUSH1 0x4 ADD PUSH2 0xC88 SWAP1 PUSH2 0x422F JUMP JUMPDEST PUSH2 0x1FB9 PUSH2 0x2F8D JUMP JUMPDEST CALLER PUSH1 0x0 SWAP1 DUP2 MSTORE PUSH1 0xCB PUSH1 0x20 SWAP1 DUP2 MSTORE PUSH1 0x40 DUP1 DUP4 KECCAK256 SLOAD DUP4 MSTORE PUSH1 0xCE DUP3 MSTORE DUP1 DUP4 KECCAK256 SLOAD SWAP1 MLOAD PUSH2 0x2973 SWAP3 DUP7 SWAP3 DUP7 SWAP3 SWAP1 SWAP2 ADD PUSH2 0x423F JUMP JUMPDEST PUSH1 0x40 MLOAD PUSH1 0x20 DUP2 DUP4 SUB SUB DUP2 MSTORE SWAP1 PUSH1 0x40 MSTORE DUP1 MLOAD SWAP1 PUSH1 0x20 ADD KECCAK256 SWAP1 POP SWAP3 SWAP2 POP POP JUMP JUMPDEST PUSH1 0x0 DUP3 PUSH1 0x40 MLOAD PUSH1 0x20 ADD PUSH2 0x29A4 SWAP2 SWAP1 PUSH2 0x425A JUMP JUMPDEST PUSH1 0x40 MLOAD PUSH1 0x20 DUP2 DUP4 SUB SUB DUP2 MSTORE SWAP1 PUSH1 0x40 MSTORE DUP1 MLOAD SWAP1 PUSH1 0x20 ADD KECCAK256 SWAP1 POP PUSH1 0x0 DUP1 PUSH1 0x41 DUP5 MLOAD DUP2 PUSH2 0x29D0 JUMPI PUSH2 0x29D0 PUSH2 0x4295 JUMP JUMPDEST DIV SWAP2 POP PUSH2 0x29DB PUSH2 0x2FBD JUMP JUMPDEST SWAP1 POP PUSH1 0x0 DUP1 PUSH1 0x0 DUP1 PUSH1 0x0 DUP1 PUSH1 0xD8 SLOAD PUSH1 0x1 PUSH1 0x1 PUSH1 0x40 SHL SUB DUP2 GT ISZERO PUSH2 0x2A00 JUMPI PUSH2 0x2A00 PUSH2 0x34AB JUMP JUMPDEST PUSH1 0x40 MLOAD SWAP1 DUP1 DUP3 MSTORE DUP1 PUSH1 0x20 MUL PUSH1 0x20 ADD DUP3 ADD PUSH1 0x40 MSTORE DUP1 ISZERO PUSH2 0x2A29 JUMPI DUP2 PUSH1 0x20 ADD PUSH1 0x20 DUP3 MUL DUP1 CALLDATASIZE DUP4 CALLDATACOPY ADD SWAP1 POP JUMPDEST POP SWAP1 POP PUSH1 0x0 JUMPDEST DUP9 DUP2 LT ISZERO PUSH2 0x2C15 JUMPI PUSH1 0x41 DUP2 MUL DUP12 ADD PUSH1 0x20 DUP2 ADD MLOAD PUSH1 0x40 DUP3 ADD MLOAD PUSH1 0x60 SWAP1 SWAP3 ADD MLOAD SWAP1 SWAP7 POP SWAP1 SWAP5 POP PUSH1 0x0 BYTE SWAP3 POP PUSH1 0x1B DUP4 LT ISZERO PUSH2 0x2A68 JUMPI PUSH1 0x1B DUP4 ADD SWAP3 POP JUMPDEST DUP3 PUSH1 0xFF AND PUSH1 0x1B EQ ISZERO DUP1 ISZERO PUSH2 0x2A80 JUMPI POP DUP3 PUSH1 0xFF AND PUSH1 0x1C EQ ISZERO JUMPDEST DUP1 PUSH2 0x2AAA JUMPI POP PUSH32 0x7FFFFFFFFFFFFFFFFFFFFFFFFFFFFFFF5D576E7357A4501DDFE92F46681B20A0 DUP5 GT JUMPDEST ISZERO PUSH2 0x2AB7 JUMPI PUSH1 0x1 ADD PUSH2 0x2A2F JUMP JUMPDEST PUSH1 0xCB PUSH1 0x0 PUSH1 0x1 DUP13 DUP7 DUP10 DUP10 PUSH1 0x40 MLOAD PUSH1 0x0 DUP2 MSTORE PUSH1 0x20 ADD PUSH1 0x40 MSTORE PUSH1 0x40 MLOAD PUSH2 0x2ADE SWAP5 SWAP4 SWAP3 SWAP2 SWAP1 PUSH2 0x42B4 JUMP JUMPDEST PUSH1 0x20 PUSH1 0x40 MLOAD PUSH1 0x20 DUP2 SUB SWAP1 DUP1 DUP5 SUB SWAP1 DUP6 GAS STATICCALL ISZERO DUP1 ISZERO PUSH2 0x2B00 JUMPI RETURNDATASIZE PUSH1 0x0 DUP1 RETURNDATACOPY RETURNDATASIZE PUSH1 0x0 REVERT JUMPDEST POP POP PUSH1 0x40 DUP1 MLOAD PUSH1 0x1F NOT ADD MLOAD PUSH1 0x1 PUSH1 0x1 PUSH1 0xA0 SHL SUB AND DUP4 MSTORE PUSH1 0x20 DUP4 DUP2 ADD SWAP5 SWAP1 SWAP5 MSTORE SWAP2 DUP3 ADD PUSH1 0x0 SWAP1 DUP2 KECCAK256 SLOAD DUP1 DUP3 MSTORE PUSH1 0xCA SWAP1 SWAP5 MSTORE SWAP2 SWAP1 SWAP2 KECCAK256 SLOAD SWAP2 SWAP8 POP POP PUSH1 0xFF AND PUSH2 0x2BBB JUMPI PUSH1 0x0 DUP7 DUP2 MSTORE PUSH1 0xC9 PUSH1 0x20 MSTORE PUSH1 0x40 SWAP1 KECCAK256 SLOAD PUSH1 0xFF AND ISZERO PUSH2 0x2BB6 JUMPI PUSH1 0x0 DUP7 DUP2 MSTORE PUSH1 0xCA PUSH1 0x20 MSTORE PUSH1 0x40 SWAP1 KECCAK256 DUP1 SLOAD PUSH1 0xFF NOT AND PUSH1 0x1 SWAP1 DUP2 OR SWAP1 SWAP2 SSTORE PUSH1 0xD7 DUP1 SLOAD DUP3 ADD SWAP1 SSTORE SWAP7 SWAP1 SWAP7 ADD SWAP6 PUSH2 0x2B88 PUSH2 0x2FBD JUMP JUMPDEST SWAP8 POP DUP7 DUP9 EQ PUSH2 0x2C15 JUMPI PUSH1 0x1 DUP3 DUP8 DUP2 MLOAD DUP2 LT PUSH2 0x2BA5 JUMPI PUSH2 0x2BA5 PUSH2 0x3B96 JUMP JUMPDEST SWAP2 ISZERO ISZERO PUSH1 0x20 SWAP3 DUP4 MUL SWAP2 SWAP1 SWAP2 ADD SWAP1 SWAP2 ADD MSTORE JUMPDEST PUSH2 0x2C0D JUMP JUMPDEST DUP2 DUP7 DUP2 MLOAD DUP2 LT PUSH2 0x2BCD JUMPI PUSH2 0x2BCD PUSH2 0x3B96 JUMP JUMPDEST PUSH1 0x20 MUL PUSH1 0x20 ADD ADD MLOAD PUSH2 0x2C0D JUMPI PUSH1 0x1 DUP1 DUP9 ADD SWAP8 DUP10 SWAP1 SUB ADD ISZERO PUSH2 0x2C15 JUMPI PUSH1 0x1 DUP3 DUP8 DUP2 MLOAD DUP2 LT PUSH2 0x2BFC JUMPI PUSH2 0x2BFC PUSH2 0x3B96 JUMP JUMPDEST SWAP2 ISZERO ISZERO PUSH1 0x20 SWAP3 DUP4 MUL SWAP2 SWAP1 SWAP2 ADD SWAP1 SWAP2 ADD MSTORE JUMPDEST PUSH1 0x1 ADD PUSH2 0x2A2F JUMP JUMPDEST POP DUP7 DUP7 EQ PUSH2 0x2C36 JUMPI PUSH1 0x40 MLOAD PUSH4 0x11ED5D1F PUSH1 0xE3 SHL DUP2 MSTORE PUSH1 0x4 ADD PUSH1 0x40 MLOAD DUP1 SWAP2 SUB SWAP1 REVERT JUMPDEST POP POP POP POP POP POP POP POP POP POP POP JUMP JUMPDEST PUSH1 0x0 DUP2 DUP2 MSTORE PUSH1 0xD1 PUSH1 0x20 MSTORE PUSH1 0x40 SWAP1 KECCAK256 SLOAD PUSH1 0xFF AND ISZERO PUSH2 0x2C73 JUMPI PUSH1 0x40 MLOAD PUSH4 0x970E53D PUSH1 0xE2 SHL DUP2 MSTORE PUSH1 0x4 ADD PUSH1 0x40 MLOAD DUP1 SWAP2 SUB SWAP1 REVERT JUMPDEST PUSH1 0x0 SWAP1 DUP2 MSTORE PUSH1 0xD1 PUSH1 0x20 MSTORE PUSH1 0x40 SWAP1 KECCAK256 DUP1 SLOAD PUSH1 0xFF NOT AND PUSH1 0x1 OR SWAP1 SSTORE JUMP JUMPDEST PUSH1 0x97 DUP1 SLOAD PUSH1 0x1 PUSH1 0x1 PUSH1 0xA0 SHL SUB DUP4 DUP2 AND PUSH1 0x1 PUSH1 0x1 PUSH1 0xA0 SHL SUB NOT DUP4 AND DUP2 OR SWAP1 SWAP4 SSTORE PUSH1 0x40 MLOAD SWAP2 AND SWAP2 SWAP1 DUP3 SWAP1 PUSH32 0x8BE0079C531659141344CD1FD0A4F28419497F9722A3DAAFE3B4186F6B6457E0 SWAP1 PUSH1 0x0 SWAP1 LOG3 POP POP JUMP JUMPDEST PUSH1 0xDA SLOAD PUSH1 0x40 MLOAD PUSH4 0x70A08231 PUSH1 0xE0 SHL DUP2 MSTORE PUSH1 0x1 PUSH1 0x1 PUSH1 0xA0 SHL SUB SWAP1 SWAP2 AND SWAP1 PUSH1 0x0 SWAP1 DUP3 SWAP1 PUSH4 0x70A08231 SWAP1 PUSH2 0x2D15 SWAP1 ADDRESS SWAP1 PUSH1 0x4 ADD PUSH2 0x3405 JUMP JUMPDEST PUSH1 0x20 PUSH1 0x40 MLOAD DUP1 DUP4 SUB DUP2 DUP7 GAS STATICCALL ISZERO DUP1 ISZERO PUSH2 0x2D32 JUMPI RETURNDATASIZE PUSH1 0x0 DUP1 RETURNDATACOPY RETURNDATASIZE PUSH1 0x0 REVERT JUMPDEST POP POP POP POP PUSH1 0x40 MLOAD RETURNDATASIZE PUSH1 0x1F NOT PUSH1 0x1F DUP3 ADD AND DUP3 ADD DUP1 PUSH1 0x40 MSTORE POP DUP2 ADD SWAP1 PUSH2 0x2D56 SWAP2 SWAP1 PUSH2 0x3B75 JUMP JUMPDEST PUSH1 0xDA SLOAD PUSH1 0x40 MLOAD SWAP2 SWAP3 POP PUSH1 0x0 SWAP2 PUSH1 0x1 PUSH1 0x1 PUSH1 0xA0 SHL SUB SWAP1 SWAP2 AND SWAP1 PUSH2 0x2D7C SWAP1 DUP8 SWAP1 PUSH1 0x24 ADD PUSH2 0x39FD JUMP JUMPDEST PUSH1 0x40 DUP1 MLOAD PUSH1 0x1F NOT DUP2 DUP5 SUB ADD DUP2 MSTORE SWAP2 DUP2 MSTORE PUSH1 0x20 DUP3 ADD DUP1 MLOAD PUSH1 0x1 PUSH1 0x1 PUSH1 0xE0 SHL SUB AND PUSH4 0x34E9F107 PUSH1 0xE1 SHL OR SWAP1 MSTORE MLOAD PUSH2 0x2DB1 SWAP2 SWAP1 PUSH2 0x4028 JUMP JUMPDEST PUSH1 0x0 PUSH1 0x40 MLOAD DUP1 DUP4 SUB DUP2 PUSH1 0x0 DUP7 GAS CALL SWAP2 POP POP RETURNDATASIZE DUP1 PUSH1 0x0 DUP2 EQ PUSH2 0x2DEE JUMPI PUSH1 0x40 MLOAD SWAP2 POP PUSH1 0x1F NOT PUSH1 0x3F RETURNDATASIZE ADD AND DUP3 ADD PUSH1 0x40 MSTORE RETURNDATASIZE DUP3 MSTORE RETURNDATASIZE PUSH1 0x0 PUSH1 0x20 DUP5 ADD RETURNDATACOPY PUSH2 0x2DF3 JUMP JUMPDEST PUSH1 0x60 SWAP2 POP JUMPDEST POP POP SWAP1 POP PUSH1 0x0 DUP4 PUSH1 0x1 PUSH1 0x1 PUSH1 0xA0 SHL SUB AND PUSH4 0x70A08231 ADDRESS PUSH1 0x40 MLOAD DUP3 PUSH4 0xFFFFFFFF AND PUSH1 0xE0 SHL DUP2 MSTORE PUSH1 0x4 ADD PUSH2 0x2E25 SWAP2 SWAP1 PUSH2 0x3405 JUMP JUMPDEST PUSH1 0x20 PUSH1 0x40 MLOAD DUP1 DUP4 SUB DUP2 DUP7 GAS STATICCALL ISZERO DUP1 ISZERO PUSH2 0x2E42 JUMPI RETURNDATASIZE PUSH1 0x0 DUP1 RETURNDATACOPY RETURNDATASIZE PUSH1 0x0 REVERT JUMPDEST POP POP POP POP PUSH1 0x40 MLOAD RETURNDATASIZE PUSH1 0x1F NOT PUSH1 0x1F DUP3 ADD AND DUP3 ADD DUP1 PUSH1 0x40 MSTORE POP DUP2 ADD SWAP1 PUSH2 0x2E66 SWAP2 SWAP1 PUSH2 0x3B75 JUMP JUMPDEST SWAP1 POP PUSH1 0x1 PUSH1 0x1 PUSH1 0x80 SHL SUB DUP7 AND DUP4 ADD DUP3 ISZERO DUP1 PUSH2 0x2E81 JUMPI POP DUP2 DUP2 EQ ISZERO JUMPDEST ISZERO PUSH2 0x2E9F JUMPI PUSH1 0x40 MLOAD PUSH4 0x4A381455 PUSH1 0xE0 SHL DUP2 MSTORE PUSH1 0x4 ADD PUSH1 0x40 MLOAD DUP1 SWAP2 SUB SWAP1 REVERT JUMPDEST PUSH1 0x1 PUSH1 0x1 PUSH1 0x80 SHL SUB DUP3 GT ISZERO PUSH2 0x2EC7 JUMPI PUSH1 0x40 MLOAD PUSH4 0x6E2C0487 PUSH1 0xE1 SHL DUP2 MSTORE PUSH1 0x4 ADD PUSH1 0x40 MLOAD DUP1 SWAP2 SUB SWAP1 REVERT JUMPDEST PUSH1 0x40 MLOAD PUSH4 0xFFFFFFFF DUP8 AND SWAP1 PUSH1 0x1 PUSH1 0x1 PUSH1 0x80 SHL SUB DUP10 AND SWAP1 PUSH32 0x3AD58A8DC1110BAA37AD88A68DB14181B4EF0C69192DFA7699A9588960ECA7FD SWAP1 PUSH1 0x0 SWAP1 LOG3 POP POP POP POP POP POP POP JUMP JUMPDEST PUSH1 0x1 PUSH1 0x1 PUSH1 0xA0 SHL SUB DUP2 AND EXTCODESIZE PUSH2 0x2F33 JUMPI PUSH1 0x40 MLOAD PUSH3 0x461BCD PUSH1 0xE5 SHL DUP2 MSTORE PUSH1 0x4 ADD PUSH2 0xC88 SWAP1 PUSH2 0x4333 JUMP JUMPDEST PUSH1 0x0 DUP1 MLOAD PUSH1 0x20 PUSH2 0x43A8 DUP4 CODECOPY DUP2 MLOAD SWAP2 MSTORE DUP1 SLOAD PUSH1 0x1 PUSH1 0x1 PUSH1 0xA0 SHL SUB NOT AND PUSH1 0x1 PUSH1 0x1 PUSH1 0xA0 SHL SUB SWAP3 SWAP1 SWAP3 AND SWAP2 SWAP1 SWAP2 OR SWAP1 SSTORE JUMP JUMPDEST PUSH2 0x2F6B DUP4 PUSH2 0x2FF5 JUMP JUMPDEST PUSH1 0x0 DUP3 MLOAD GT DUP1 PUSH2 0x2F78 JUMPI POP DUP1 JUMPDEST ISZERO PUSH2 0x1A9C JUMPI PUSH2 0x2F87 DUP4 DUP4 PUSH2 0x3035 JUMP JUMPDEST POP POP POP POP JUMP JUMPDEST PUSH1 0x0 SLOAD PUSH2 0x100 SWAP1 DIV PUSH1 0xFF AND PUSH2 0x2FB4 JUMPI PUSH1 0x40 MLOAD PUSH3 0x461BCD PUSH1 0xE5 SHL DUP2 MSTORE PUSH1 0x4 ADD PUSH2 0xC88 SWAP1 PUSH2 0x422F JUMP JUMPDEST PUSH2 0x1FB9 CALLER PUSH2 0x2C8E JUMP JUMPDEST PUSH1 0xD7 SLOAD PUSH1 0xD6 SLOAD PUSH1 0xD5 SLOAD PUSH1 0x0 SWAP3 SWAP2 SWAP1 DUP3 MUL DUP2 PUSH2 0x2FDA JUMPI PUSH2 0x2FDA PUSH2 0x4295 JUMP JUMPDEST DIV SWAP2 POP DUP1 DUP3 EQ PUSH2 0x2FED JUMPI DUP2 PUSH1 0x1 ADD PUSH2 0x2FEF JUMP JUMPDEST DUP2 JUMPDEST SWAP2 POP POP SWAP1 JUMP JUMPDEST PUSH2 0x2FFE DUP2 PUSH2 0x2F0C JUMP JUMPDEST PUSH1 0x40 MLOAD PUSH1 0x1 PUSH1 0x1 PUSH1 0xA0 SHL SUB DUP3 AND SWAP1 PUSH32 0xBC7CD75A20EE27FD9ADEBAB32041F755214DBC6BFFA90CC0225B39DA2E5C2D3B SWAP1 PUSH1 0x0 SWAP1 LOG2 POP JUMP JUMPDEST PUSH1 0x60 PUSH1 0x1 PUSH1 0x1 PUSH1 0xA0 SHL SUB DUP4 AND EXTCODESIZE PUSH2 0x305E JUMPI PUSH1 0x40 MLOAD PUSH3 0x461BCD PUSH1 0xE5 SHL DUP2 MSTORE PUSH1 0x4 ADD PUSH2 0xC88 SWAP1 PUSH2 0x4386 JUMP JUMPDEST PUSH1 0x0 DUP1 DUP5 PUSH1 0x1 PUSH1 0x1 PUSH1 0xA0 SHL SUB AND DUP5 PUSH1 0x40 MLOAD PUSH2 0x3079 SWAP2 SWAP1 PUSH2 0x4028 JUMP JUMPDEST PUSH1 0x0 PUSH1 0x40 MLOAD DUP1 DUP4 SUB DUP2 DUP6 GAS DELEGATECALL SWAP2 POP POP RETURNDATASIZE DUP1 PUSH1 0x0 DUP2 EQ PUSH2 0x30B4 JUMPI PUSH1 0x40 MLOAD SWAP2 POP PUSH1 0x1F NOT PUSH1 0x3F RETURNDATASIZE ADD AND DUP3 ADD PUSH1 0x40 MSTORE RETURNDATASIZE DUP3 MSTORE RETURNDATASIZE PUSH1 0x0 PUSH1 0x20 DUP5 ADD RETURNDATACOPY PUSH2 0x30B9 JUMP JUMPDEST PUSH1 0x60 SWAP2 POP JUMPDEST POP SWAP2 POP SWAP2 POP PUSH2 0x30E1 DUP3 DUP3 PUSH1 0x40 MLOAD DUP1 PUSH1 0x60 ADD PUSH1 0x40 MSTORE DUP1 PUSH1 0x27 DUP2 MSTORE PUSH1 0x20 ADD PUSH2 0x43C8 PUSH1 0x27 SWAP2 CODECOPY PUSH2 0x30EA JUMP JUMPDEST SWAP6 SWAP5 POP POP POP POP POP JUMP JUMPDEST PUSH1 0x60 DUP4 ISZERO PUSH2 0x30F9 JUMPI POP DUP2 PUSH2 0x3103 JUMP JUMPDEST PUSH2 0x3103 DUP4 DUP4 PUSH2 0x310A JUMP JUMPDEST SWAP4 SWAP3 POP POP POP JUMP JUMPDEST DUP2 MLOAD ISZERO PUSH2 0x311A JUMPI DUP2 MLOAD DUP1 DUP4 PUSH1 0x20 ADD REVERT JUMPDEST DUP1 PUSH1 0x40 MLOAD PUSH3 0x461BCD PUSH1 0xE5 SHL DUP2 MSTORE PUSH1 0x4 ADD PUSH2 0xC88 SWAP2 SWAP1 PUSH2 0x4396 JUMP JUMPDEST DUP3 PUSH1 0x2 DUP2 ADD SWAP3 DUP3 ISZERO PUSH2 0x3162 JUMPI SWAP2 PUSH1 0x20 MUL DUP3 ADD JUMPDEST DUP3 DUP2 GT ISZERO PUSH2 0x3162 JUMPI DUP3 MLOAD DUP3 SSTORE SWAP2 PUSH1 0x20 ADD SWAP2 SWAP1 PUSH1 0x1 ADD SWAP1 PUSH2 0x3147 JUMP JUMPDEST POP PUSH2 0x316E SWAP3 SWAP2 POP PUSH2 0x3172 JUMP JUMPDEST POP SWAP1 JUMP JUMPDEST JUMPDEST DUP1 DUP3 GT ISZERO PUSH2 0x316E JUMPI PUSH1 0x0 DUP2 SSTORE PUSH1 0x1 ADD PUSH2 0x3173 JUMP JUMPDEST PUSH1 0x0 PUSH1 0x1 PUSH1 0x1 PUSH1 0xA0 SHL SUB DUP3 AND PUSH2 0x272A JUMP JUMPDEST PUSH2 0x31A1 DUP2 PUSH2 0x3187 JUMP JUMPDEST DUP2 EQ PUSH2 0x183F JUMPI PUSH1 0x0 DUP1 REVERT JUMPDEST DUP1 CALLDATALOAD PUSH2 0x272A DUP2 PUSH2 0x3198 JUMP JUMPDEST DUP1 PUSH2 0x31A1 JUMP JUMPDEST DUP1 CALLDATALOAD PUSH2 0x272A DUP2 PUSH2 0x31B7 JUMP JUMPDEST PUSH1 0x0 DUP1 DUP4 PUSH1 0x1F DUP5 ADD SLT PUSH2 0x31DD JUMPI PUSH2 0x31DD PUSH1 0x0 DUP1 REVERT JUMPDEST POP DUP2 CALLDATALOAD PUSH1 0x1 PUSH1 0x1 PUSH1 0x40 SHL SUB DUP2 GT ISZERO PUSH2 0x31F7 JUMPI PUSH2 0x31F7 PUSH1 0x0 DUP1 REVERT JUMPDEST PUSH1 0x20 DUP4 ADD SWAP2 POP DUP4 PUSH1 0x1 DUP3 MUL DUP4 ADD GT ISZERO PUSH2 0x3212 JUMPI PUSH2 0x3212 PUSH1 0x0 DUP1 REVERT JUMPDEST SWAP3 POP SWAP3 SWAP1 POP JUMP JUMPDEST PUSH1 0x0 DUP1 PUSH1 0x0 DUP1 PUSH1 0x0 DUP1 PUSH1 0x0 DUP1 PUSH1 0xC0 DUP10 DUP12 SUB SLT ISZERO PUSH2 0x3238 JUMPI PUSH2 0x3238 PUSH1 0x0 DUP1 REVERT JUMPDEST PUSH1 0x0 PUSH2 0x3244 DUP12 DUP12 PUSH2 0x31AC JUMP JUMPDEST SWAP9 POP POP PUSH1 0x20 PUSH2 0x3255 DUP12 DUP3 DUP13 ADD PUSH2 0x31AC JUMP JUMPDEST SWAP8 POP POP PUSH1 0x40 PUSH2 0x3266 DUP12 DUP3 DUP13 ADD PUSH2 0x31AC JUMP JUMPDEST SWAP7 POP POP PUSH1 0x60 PUSH2 0x3277 DUP12 DUP3 DUP13 ADD PUSH2 0x31BD JUMP JUMPDEST SWAP6 POP POP PUSH1 0x80 DUP10 ADD CALLDATALOAD PUSH1 0x1 PUSH1 0x1 PUSH1 0x40 SHL SUB DUP2 GT ISZERO PUSH2 0x3296 JUMPI PUSH2 0x3296 PUSH1 0x0 DUP1 REVERT JUMPDEST PUSH2 0x32A2 DUP12 DUP3 DUP13 ADD PUSH2 0x31C8 JUMP JUMPDEST SWAP5 POP SWAP5 POP POP PUSH1 0xA0 DUP10 ADD CALLDATALOAD PUSH1 0x1 PUSH1 0x1 PUSH1 0x40 SHL SUB DUP2 GT ISZERO PUSH2 0x32C3 JUMPI PUSH2 0x32C3 PUSH1 0x0 DUP1 REVERT JUMPDEST PUSH2 0x32CF DUP12 DUP3 DUP13 ADD PUSH2 0x31C8 JUMP JUMPDEST SWAP3 POP SWAP3 POP POP SWAP3 SWAP6 SWAP9 POP SWAP3 SWAP6 SWAP9 SWAP1 SWAP4 SWAP7 POP JUMP JUMPDEST PUSH1 0x0 DUP1 DUP4 PUSH1 0x1F DUP5 ADD SLT PUSH2 0x32F6 JUMPI PUSH2 0x32F6 PUSH1 0x0 DUP1 REVERT JUMPDEST POP DUP2 CALLDATALOAD PUSH1 0x1 PUSH1 0x1 PUSH1 0x40 SHL SUB DUP2 GT ISZERO PUSH2 0x3310 JUMPI PUSH2 0x3310 PUSH1 0x0 DUP1 REVERT JUMPDEST PUSH1 0x20 DUP4 ADD SWAP2 POP DUP4 PUSH1 0x20 DUP3 MUL DUP4 ADD GT ISZERO PUSH2 0x3212 JUMPI PUSH2 0x3212 PUSH1 0x0 DUP1 REVERT JUMPDEST PUSH1 0x0 DUP1 PUSH1 0x0 DUP1 PUSH1 0x0 DUP1 PUSH1 0x0 DUP1 PUSH1 0x80 DUP10 DUP12 SUB SLT ISZERO PUSH2 0x334A JUMPI PUSH2 0x334A PUSH1 0x0 DUP1 REVERT JUMPDEST DUP9 CALLDATALOAD PUSH1 0x1 PUSH1 0x1 PUSH1 0x40 SHL SUB DUP2 GT ISZERO PUSH2 0x3363 JUMPI PUSH2 0x3363 PUSH1 0x0 DUP1 REVERT JUMPDEST PUSH2 0x336F DUP12 DUP3 DUP13 ADD PUSH2 0x32E1 JUMP JUMPDEST SWAP9 POP SWAP9 POP POP PUSH1 0x20 DUP10 ADD CALLDATALOAD PUSH1 0x1 PUSH1 0x1 PUSH1 0x40 SHL SUB DUP2 GT ISZERO PUSH2 0x3390 JUMPI PUSH2 0x3390 PUSH1 0x0 DUP1 REVERT JUMPDEST PUSH2 0x339C DUP12 DUP3 DUP13 ADD PUSH2 0x32E1 JUMP JUMPDEST SWAP7 POP SWAP7 POP POP PUSH1 0x40 DUP10 ADD CALLDATALOAD PUSH1 0x1 PUSH1 0x1 PUSH1 0x40 SHL SUB DUP2 GT ISZERO PUSH2 0x33BD JUMPI PUSH2 0x33BD PUSH1 0x0 DUP1 REVERT JUMPDEST PUSH2 0x33C9 DUP12 DUP3 DUP13 ADD PUSH2 0x32E1 JUMP JUMPDEST SWAP5 POP SWAP5 POP POP PUSH1 0x60 DUP10 ADD CALLDATALOAD PUSH1 0x1 PUSH1 0x1 PUSH1 0x40 SHL SUB DUP2 GT ISZERO PUSH2 0x33EA JUMPI PUSH2 0x33EA PUSH1 0x0 DUP1 REVERT JUMPDEST PUSH2 0x32CF DUP12 DUP3 DUP13 ADD PUSH2 0x32E1 JUMP JUMPDEST PUSH2 0x33FF DUP2 PUSH2 0x3187 JUMP JUMPDEST DUP3 MSTORE POP POP JUMP JUMPDEST PUSH1 0x20 DUP2 ADD PUSH2 0x272A DUP3 DUP5 PUSH2 0x33F6 JUMP JUMPDEST PUSH1 0x0 DUP1 PUSH1 0x0 DUP1 PUSH1 0x60 DUP6 DUP8 SUB SLT ISZERO PUSH2 0x342C JUMPI PUSH2 0x342C PUSH1 0x0 DUP1 REVERT JUMPDEST PUSH1 0x0 PUSH2 0x3438 DUP8 DUP8 PUSH2 0x31AC JUMP JUMPDEST SWAP5 POP POP PUSH1 0x20 DUP6 ADD CALLDATALOAD PUSH1 0x1 PUSH1 0x1 PUSH1 0x40 SHL SUB DUP2 GT ISZERO PUSH2 0x3457 JUMPI PUSH2 0x3457 PUSH1 0x0 DUP1 REVERT JUMPDEST PUSH2 0x3463 DUP8 DUP3 DUP9 ADD PUSH2 0x31C8 JUMP JUMPDEST SWAP4 POP SWAP4 POP POP PUSH1 0x40 PUSH2 0x3476 DUP8 DUP3 DUP9 ADD PUSH2 0x31BD JUMP JUMPDEST SWAP2 POP POP SWAP3 SWAP6 SWAP2 SWAP5 POP SWAP3 POP JUMP JUMPDEST PUSH1 0x0 PUSH1 0x20 DUP3 DUP5 SUB SLT ISZERO PUSH2 0x3497 JUMPI PUSH2 0x3497 PUSH1 0x0 DUP1 REVERT JUMPDEST PUSH1 0x0 PUSH2 0x34A3 DUP5 DUP5 PUSH2 0x31BD JUMP JUMPDEST SWAP5 SWAP4 POP POP POP POP JUMP JUMPDEST PUSH4 0x4E487B71 PUSH1 0xE0 SHL PUSH1 0x0 MSTORE PUSH1 0x41 PUSH1 0x4 MSTORE PUSH1 0x24 PUSH1 0x0 REVERT JUMPDEST PUSH1 0x1F NOT PUSH1 0x1F DUP4 ADD AND DUP2 ADD DUP2 DUP2 LT PUSH1 0x1 PUSH1 0x1 PUSH1 0x40 SHL SUB DUP3 GT OR ISZERO PUSH2 0x34E6 JUMPI PUSH2 0x34E6 PUSH2 0x34AB JUMP JUMPDEST PUSH1 0x40 MSTORE POP POP JUMP JUMPDEST PUSH1 0x0 PUSH2 0x34F8 PUSH1 0x40 MLOAD SWAP1 JUMP JUMPDEST SWAP1 POP PUSH2 0x3504 DUP3 DUP3 PUSH2 0x34C1 JUMP JUMPDEST SWAP2 SWAP1 POP JUMP JUMPDEST PUSH1 0x0 PUSH1 0x1 PUSH1 0x1 PUSH1 0x40 SHL SUB DUP3 GT ISZERO PUSH2 0x3522 JUMPI PUSH2 0x3522 PUSH2 0x34AB JUMP JUMPDEST POP PUSH1 0x20 MUL SWAP1 JUMP JUMPDEST PUSH1 0x0 PUSH2 0x353C PUSH2 0x3537 DUP5 PUSH2 0x3509 JUMP JUMPDEST PUSH2 0x34ED JUMP JUMPDEST SWAP1 POP DUP1 PUSH1 0x20 DUP5 MUL DUP4 ADD DUP6 DUP2 GT ISZERO PUSH2 0x3555 JUMPI PUSH2 0x3555 PUSH1 0x0 DUP1 REVERT JUMPDEST DUP4 JUMPDEST DUP2 DUP2 LT ISZERO PUSH2 0x3579 JUMPI DUP1 PUSH2 0x356A DUP9 DUP3 PUSH2 0x31BD JUMP JUMPDEST DUP5 MSTORE POP PUSH1 0x20 SWAP3 DUP4 ADD SWAP3 ADD PUSH2 0x3557 JUMP JUMPDEST POP POP POP SWAP4 SWAP3 POP POP POP JUMP JUMPDEST PUSH1 0x0 DUP3 PUSH1 0x1F DUP4 ADD SLT PUSH2 0x3597 JUMPI PUSH2 0x3597 PUSH1 0x0 DUP1 REVERT JUMPDEST PUSH1 0x2 PUSH2 0x34A3 DUP5 DUP3 DUP6 PUSH2 0x3529 JUMP JUMPDEST PUSH1 0x0 PUSH1 0x40 DUP3 DUP5 SUB SLT ISZERO PUSH2 0x35B9 JUMPI PUSH2 0x35B9 PUSH1 0x0 DUP1 REVERT JUMPDEST PUSH1 0x0 PUSH2 0x34A3 DUP5 DUP5 PUSH2 0x3583 JUMP JUMPDEST DUP1 ISZERO ISZERO PUSH2 0x31A1 JUMP JUMPDEST DUP1 CALLDATALOAD PUSH2 0x272A DUP2 PUSH2 0x35C5 JUMP JUMPDEST PUSH1 0x0 PUSH1 0x20 DUP3 DUP5 SUB SLT ISZERO PUSH2 0x35ED JUMPI PUSH2 0x35ED PUSH1 0x0 DUP1 REVERT JUMPDEST PUSH1 0x0 PUSH2 0x34A3 DUP5 DUP5 PUSH2 0x35CD JUMP JUMPDEST DUP1 ISZERO ISZERO PUSH2 0x33FF JUMP JUMPDEST PUSH1 0x20 DUP2 ADD PUSH2 0x272A DUP3 DUP5 PUSH2 0x35F9 JUMP JUMPDEST PUSH4 0xFFFFFFFF DUP2 AND PUSH2 0x31A1 JUMP JUMPDEST DUP1 CALLDATALOAD PUSH2 0x272A DUP2 PUSH2 0x360F JUMP JUMPDEST PUSH1 0x0 PUSH1 0x20 DUP3 DUP5 SUB SLT ISZERO PUSH2 0x363B JUMPI PUSH2 0x363B PUSH1 0x0 DUP1 REVERT JUMPDEST PUSH1 0x0 PUSH2 0x34A3 DUP5 DUP5 PUSH2 0x361B JUMP JUMPDEST DUP1 PUSH2 0x33FF JUMP JUMPDEST PUSH1 0x20 DUP2 ADD PUSH2 0x272A DUP3 DUP5 PUSH2 0x3647 JUMP JUMPDEST PUSH1 0x0 PUSH1 0x1 PUSH1 0x1 PUSH1 0x40 SHL SUB DUP3 GT ISZERO PUSH2 0x3674 JUMPI PUSH2 0x3674 PUSH2 0x34AB JUMP JUMPDEST PUSH1 0x1F NOT PUSH1 0x1F DUP4 ADD AND PUSH1 0x20 ADD SWAP3 SWAP2 POP POP JUMP JUMPDEST DUP3 DUP2 DUP4 CALLDATACOPY POP PUSH1 0x0 SWAP2 ADD MSTORE JUMP JUMPDEST PUSH1 0x0 PUSH2 0x369F PUSH2 0x3537 DUP5 PUSH2 0x365B JUMP JUMPDEST SWAP1 POP DUP3 DUP2 MSTORE PUSH1 0x20 DUP2 ADD DUP5 DUP5 DUP5 ADD GT ISZERO PUSH2 0x36BA JUMPI PUSH2 0x36BA PUSH1 0x0 DUP1 REVERT JUMPDEST PUSH2 0x36C5 DUP5 DUP3 DUP6 PUSH2 0x3685 JUMP JUMPDEST POP SWAP4 SWAP3 POP POP POP JUMP JUMPDEST PUSH1 0x0 DUP3 PUSH1 0x1F DUP4 ADD SLT PUSH2 0x36E1 JUMPI PUSH2 0x36E1 PUSH1 0x0 DUP1 REVERT JUMPDEST DUP2 CALLDATALOAD PUSH2 0x34A3 DUP5 DUP3 PUSH1 0x20 DUP7 ADD PUSH2 0x3691 JUMP JUMPDEST PUSH1 0x0 DUP1 PUSH1 0x0 PUSH1 0x40 DUP5 DUP7 SUB SLT ISZERO PUSH2 0x3709 JUMPI PUSH2 0x3709 PUSH1 0x0 DUP1 REVERT JUMPDEST DUP4 CALLDATALOAD PUSH1 0x1 PUSH1 0x1 PUSH1 0x40 SHL SUB DUP2 GT ISZERO PUSH2 0x3722 JUMPI PUSH2 0x3722 PUSH1 0x0 DUP1 REVERT JUMPDEST PUSH2 0x372E DUP7 DUP3 DUP8 ADD PUSH2 0x36CD JUMP JUMPDEST SWAP4 POP POP PUSH1 0x20 DUP5 ADD CALLDATALOAD PUSH1 0x1 PUSH1 0x1 PUSH1 0x40 SHL SUB DUP2 GT ISZERO PUSH2 0x374D JUMPI PUSH2 0x374D PUSH1 0x0 DUP1 REVERT JUMPDEST PUSH2 0x3759 DUP7 DUP3 DUP8 ADD PUSH2 0x32E1 JUMP JUMPDEST SWAP3 POP SWAP3 POP POP SWAP3 POP SWAP3 POP SWAP3 JUMP JUMPDEST PUSH1 0x0 PUSH1 0x20 DUP3 DUP5 SUB SLT ISZERO PUSH2 0x377A JUMPI PUSH2 0x377A PUSH1 0x0 DUP1 REVERT JUMPDEST PUSH1 0x0 PUSH2 0x34A3 DUP5 DUP5 PUSH2 0x31AC JUMP JUMPDEST PUSH1 0x0 DUP1 PUSH1 0x40 DUP4 DUP6 SUB SLT ISZERO PUSH2 0x379C JUMPI PUSH2 0x379C PUSH1 0x0 DUP1 REVERT JUMPDEST PUSH1 0x0 PUSH2 0x37A8 DUP6 DUP6 PUSH2 0x31AC JUMP JUMPDEST SWAP3 POP POP PUSH1 0x20 PUSH2 0x37B9 DUP6 DUP3 DUP7 ADD PUSH2 0x31AC JUMP JUMPDEST SWAP2 POP POP SWAP3 POP SWAP3 SWAP1 POP JUMP JUMPDEST PUSH1 0x0 DUP1 PUSH1 0x0 DUP1 PUSH1 0x0 PUSH1 0x80 DUP7 DUP9 SUB SLT ISZERO PUSH2 0x37DE JUMPI PUSH2 0x37DE PUSH1 0x0 DUP1 REVERT JUMPDEST DUP6 CALLDATALOAD PUSH1 0x1 PUSH1 0x1 PUSH1 0x40 SHL SUB DUP2 GT ISZERO PUSH2 0x37F7 JUMPI PUSH2 0x37F7 PUSH1 0x0 DUP1 REVERT JUMPDEST PUSH2 0x3803 DUP9 DUP3 DUP10 ADD PUSH2 0x36CD JUMP JUMPDEST SWAP6 POP POP PUSH1 0x20 PUSH2 0x3814 DUP9 DUP3 DUP10 ADD PUSH2 0x31BD JUMP JUMPDEST SWAP5 POP POP PUSH1 0x40 PUSH2 0x3825 DUP9 DUP3 DUP10 ADD PUSH2 0x31BD JUMP JUMPDEST SWAP4 POP POP PUSH1 0x60 DUP7 ADD CALLDATALOAD PUSH1 0x1 PUSH1 0x1 PUSH1 0x40 SHL SUB DUP2 GT ISZERO PUSH2 0x3844 JUMPI PUSH2 0x3844 PUSH1 0x0 DUP1 REVERT JUMPDEST PUSH2 0x3850 DUP9 DUP3 DUP10 ADD PUSH2 0x31C8 JUMP JUMPDEST SWAP3 POP SWAP3 POP POP SWAP3 SWAP6 POP SWAP3 SWAP6 SWAP1 SWAP4 POP JUMP JUMPDEST PUSH1 0x0 DUP1 PUSH1 0x40 DUP4 DUP6 SUB SLT ISZERO PUSH2 0x3875 JUMPI PUSH2 0x3875 PUSH1 0x0 DUP1 REVERT JUMPDEST PUSH1 0x0 PUSH2 0x3881 DUP6 DUP6 PUSH2 0x31AC JUMP JUMPDEST SWAP3 POP POP PUSH1 0x20 DUP4 ADD CALLDATALOAD PUSH1 0x1 PUSH1 0x1 PUSH1 0x40 SHL SUB DUP2 GT ISZERO PUSH2 0x38A0 JUMPI PUSH2 0x38A0 PUSH1 0x0 DUP1 REVERT JUMPDEST PUSH2 0x37B9 DUP6 DUP3 DUP7 ADD PUSH2 0x36CD JUMP JUMPDEST PUSH1 0x1 PUSH1 0x1 PUSH1 0xF0 SHL SUB NOT DUP2 AND PUSH2 0x31A1 JUMP JUMPDEST DUP1 CALLDATALOAD PUSH2 0x272A DUP2 PUSH2 0x38AC JUMP JUMPDEST PUSH1 0x0 PUSH1 0x20 DUP3 DUP5 SUB SLT ISZERO PUSH2 0x38DC JUMPI PUSH2 0x38DC PUSH1 0x0 DUP1 REVERT JUMPDEST PUSH1 0x0 PUSH2 0x34A3 DUP5 DUP5 PUSH2 0x38BC JUMP JUMPDEST PUSH1 0x1 PUSH1 0x1 PUSH1 0x80 SHL SUB DUP2 AND PUSH2 0x31A1 JUMP JUMPDEST DUP1 CALLDATALOAD PUSH2 0x272A DUP2 PUSH2 0x38E8 JUMP JUMPDEST PUSH1 0x0 DUP1 PUSH1 0x0 DUP1 PUSH1 0x0 PUSH1 0x80 DUP7 DUP9 SUB SLT ISZERO PUSH2 0x391D JUMPI PUSH2 0x391D PUSH1 0x0 DUP1 REVERT JUMPDEST PUSH1 0x0 PUSH2 0x3929 DUP9 DUP9 PUSH2 0x38F7 JUMP JUMPDEST SWAP6 POP POP PUSH1 0x20 PUSH2 0x3814 DUP9 DUP3 DUP10 ADD PUSH2 0x361B JUMP JUMPDEST PUSH1 0x0 DUP1 PUSH1 0x20 DUP4 DUP6 SUB SLT ISZERO PUSH2 0x3950 JUMPI PUSH2 0x3950 PUSH1 0x0 DUP1 REVERT JUMPDEST DUP3 CALLDATALOAD PUSH1 0x1 PUSH1 0x1 PUSH1 0x40 SHL SUB DUP2 GT ISZERO PUSH2 0x3969 JUMPI PUSH2 0x3969 PUSH1 0x0 DUP1 REVERT JUMPDEST PUSH2 0x3975 DUP6 DUP3 DUP7 ADD PUSH2 0x31C8 JUMP JUMPDEST SWAP3 POP SWAP3 POP POP SWAP3 POP SWAP3 SWAP1 POP JUMP JUMPDEST PUSH1 0x0 DUP1 PUSH1 0x0 DUP1 PUSH1 0x60 DUP6 DUP8 SUB SLT ISZERO PUSH2 0x399A JUMPI PUSH2 0x399A PUSH1 0x0 DUP1 REVERT JUMPDEST PUSH1 0x0 PUSH2 0x39A6 DUP8 DUP8 PUSH2 0x31BD JUMP JUMPDEST SWAP5 POP POP PUSH1 0x20 PUSH2 0x39B7 DUP8 DUP3 DUP9 ADD PUSH2 0x31BD JUMP JUMPDEST SWAP4 POP POP PUSH1 0x40 DUP6 ADD CALLDATALOAD PUSH1 0x1 PUSH1 0x1 PUSH1 0x40 SHL SUB DUP2 GT ISZERO PUSH2 0x39D6 JUMPI PUSH2 0x39D6 PUSH1 0x0 DUP1 REVERT JUMPDEST PUSH2 0x39E2 DUP8 DUP3 DUP9 ADD PUSH2 0x31C8 JUMP JUMPDEST SWAP6 SWAP9 SWAP5 SWAP8 POP SWAP6 POP POP POP POP JUMP JUMPDEST PUSH1 0x1 PUSH1 0x1 PUSH1 0x80 SHL SUB DUP2 AND PUSH2 0x33FF JUMP JUMPDEST PUSH1 0x20 DUP2 ADD PUSH2 0x272A DUP3 DUP5 PUSH2 0x39EE JUMP JUMPDEST PUSH1 0x0 DUP1 PUSH1 0x40 DUP4 DUP6 SUB SLT ISZERO PUSH2 0x3A21 JUMPI PUSH2 0x3A21 PUSH1 0x0 DUP1 REVERT JUMPDEST PUSH1 0x0 PUSH2 0x3A2D DUP6 DUP6 PUSH2 0x38BC JUMP JUMPDEST SWAP3 POP POP PUSH1 0x20 PUSH2 0x37B9 DUP6 DUP3 DUP7 ADD PUSH2 0x31BD JUMP JUMPDEST PUSH1 0x0 PUSH1 0x1 PUSH1 0x1 PUSH1 0x40 SHL SUB DUP3 GT ISZERO PUSH2 0x3A57 JUMPI PUSH2 0x3A57 PUSH2 0x34AB JUMP JUMPDEST POP PUSH1 0x20 SWAP1 DUP2 MUL ADD SWAP1 JUMP JUMPDEST PUSH1 0x0 PUSH2 0x3A6F PUSH2 0x3537 DUP5 PUSH2 0x3A3E JUMP JUMPDEST DUP4 DUP2 MSTORE SWAP1 POP PUSH1 0x20 DUP1 DUP3 ADD SWAP1 DUP5 MUL DUP4 ADD DUP6 DUP2 GT ISZERO PUSH2 0x3A8E JUMPI PUSH2 0x3A8E PUSH1 0x0 DUP1 REVERT JUMPDEST DUP4 JUMPDEST DUP2 DUP2 LT ISZERO PUSH2 0x3579 JUMPI DUP1 PUSH2 0x3AA3 DUP9 DUP3 PUSH2 0x31BD JUMP JUMPDEST DUP5 MSTORE POP PUSH1 0x20 SWAP3 DUP4 ADD SWAP3 ADD PUSH2 0x3A90 JUMP JUMPDEST PUSH1 0x0 DUP3 PUSH1 0x1F DUP4 ADD SLT PUSH2 0x3AC6 JUMPI PUSH2 0x3AC6 PUSH1 0x0 DUP1 REVERT JUMPDEST DUP2 CALLDATALOAD PUSH2 0x34A3 DUP5 DUP3 PUSH1 0x20 DUP7 ADD PUSH2 0x3A61 JUMP JUMPDEST PUSH1 0x0 DUP1 PUSH1 0x40 DUP4 DUP6 SUB SLT ISZERO PUSH2 0x3AEC JUMPI PUSH2 0x3AEC PUSH1 0x0 DUP1 REVERT JUMPDEST PUSH1 0x0 PUSH2 0x3AF8 DUP6 DUP6 PUSH2 0x31BD JUMP JUMPDEST SWAP3 POP POP PUSH1 0x20 DUP4 ADD CALLDATALOAD PUSH1 0x1 PUSH1 0x1 PUSH1 0x40 SHL SUB DUP2 GT ISZERO PUSH2 0x3B17 JUMPI PUSH2 0x3B17 PUSH1 0x0 DUP1 REVERT JUMPDEST PUSH2 0x37B9 DUP6 DUP3 DUP7 ADD PUSH2 0x3AB2 JUMP JUMPDEST PUSH1 0x40 DUP2 ADD PUSH2 0x3B31 DUP3 DUP6 PUSH2 0x33F6 JUMP JUMPDEST PUSH2 0x3103 PUSH1 0x20 DUP4 ADD DUP5 PUSH2 0x3647 JUMP JUMPDEST DUP1 MLOAD PUSH2 0x272A DUP2 PUSH2 0x3198 JUMP JUMPDEST PUSH1 0x0 PUSH1 0x20 DUP3 DUP5 SUB SLT ISZERO PUSH2 0x3B5E JUMPI PUSH2 0x3B5E PUSH1 0x0 DUP1 REVERT JUMPDEST PUSH1 0x0 PUSH2 0x34A3 DUP5 DUP5 PUSH2 0x3B3E JUMP JUMPDEST DUP1 MLOAD PUSH2 0x272A DUP2 PUSH2 0x31B7 JUMP JUMPDEST PUSH1 0x0 PUSH1 0x20 DUP3 DUP5 SUB SLT ISZERO PUSH2 0x3B8A JUMPI PUSH2 0x3B8A PUSH1 0x0 DUP1 REVERT JUMPDEST PUSH1 0x0 PUSH2 0x34A3 DUP5 DUP5 PUSH2 0x3B6A JUMP JUMPDEST PUSH4 0x4E487B71 PUSH1 0xE0 SHL PUSH1 0x0 MSTORE PUSH1 0x32 PUSH1 0x4 MSTORE PUSH1 0x24 PUSH1 0x0 REVERT JUMPDEST SWAP1 JUMP JUMPDEST PUSH1 0x0 PUSH2 0x3BBB DUP3 DUP6 PUSH2 0x3647 JUMP JUMPDEST PUSH1 0x20 DUP3 ADD SWAP2 POP PUSH2 0x3BCB DUP3 DUP5 PUSH2 0x3647 JUMP JUMPDEST POP PUSH1 0x20 ADD SWAP3 SWAP2 POP POP JUMP JUMPDEST PUSH1 0x0 JUMPDEST DUP4 DUP2 LT ISZERO PUSH2 0x3BF0 JUMPI DUP2 DUP2 ADD MLOAD DUP4 DUP3 ADD MSTORE PUSH1 0x20 ADD PUSH2 0x3BD8 JUMP JUMPDEST POP POP PUSH1 0x0 SWAP2 ADD MSTORE JUMP JUMPDEST PUSH1 0x0 PUSH2 0x3C03 DUP3 MLOAD SWAP1 JUMP JUMPDEST DUP1 DUP5 MSTORE PUSH1 0x20 DUP5 ADD SWAP4 POP PUSH2 0x3C1A DUP2 DUP6 PUSH1 0x20 DUP7 ADD PUSH2 0x3BD5 JUMP JUMPDEST PUSH1 0x1F ADD PUSH1 0x1F NOT AND SWAP3 SWAP1 SWAP3 ADD SWAP3 SWAP2 POP POP JUMP JUMPDEST PUSH1 0x40 DUP2 ADD PUSH2 0x3C39 DUP3 DUP6 PUSH2 0x33F6 JUMP JUMPDEST DUP2 DUP2 SUB PUSH1 0x20 DUP4 ADD MSTORE PUSH2 0x34A3 DUP2 DUP5 PUSH2 0x3BF9 JUMP JUMPDEST PUSH1 0x60 DUP2 ADD PUSH2 0x3C59 DUP3 DUP7 PUSH2 0x33F6 JUMP JUMPDEST PUSH2 0x3C66 PUSH1 0x20 DUP4 ADD DUP6 PUSH2 0x33F6 JUMP JUMPDEST PUSH2 0x34A3 PUSH1 0x40 DUP4 ADD DUP5 PUSH2 0x3647 JUMP JUMPDEST DUP1 MLOAD PUSH2 0x272A DUP2 PUSH2 0x35C5 JUMP JUMPDEST PUSH1 0x0 PUSH1 0x20 DUP3 DUP5 SUB SLT ISZERO PUSH2 0x3C93 JUMPI PUSH2 0x3C93 PUSH1 0x0 DUP1 REVERT JUMPDEST PUSH1 0x0 PUSH2 0x34A3 DUP5 DUP5 PUSH2 0x3C73 JUMP JUMPDEST PUSH4 0x4E487B71 PUSH1 0xE0 SHL PUSH1 0x0 MSTORE PUSH1 0x1 PUSH1 0x4 MSTORE PUSH1 0x24 PUSH1 0x0 REVERT JUMPDEST PUSH4 0x4E487B71 PUSH1 0xE0 SHL PUSH1 0x0 MSTORE PUSH1 0x11 PUSH1 0x4 MSTORE PUSH1 0x24 PUSH1 0x0 REVERT JUMPDEST DUP2 DUP2 SUB DUP2 DUP2 GT ISZERO PUSH2 0x272A JUMPI PUSH2 0x272A PUSH2 0x3CB5 JUMP JUMPDEST PUSH1 0x0 PUSH2 0x3CEA DUP4 DUP4 PUSH2 0x3647 JUMP JUMPDEST POP POP PUSH1 0x20 ADD SWAP1 JUMP JUMPDEST PUSH1 0x0 DUP2 PUSH2 0x272A JUMP JUMPDEST PUSH1 0x0 PUSH2 0x272A DUP3 SLOAD PUSH2 0x3CF2 JUMP JUMPDEST PUSH1 0x2 DUP2 DUP1 PUSH1 0x0 JUMPDEST DUP4 DUP2 LT ISZERO PUSH2 0x21B2 JUMPI PUSH2 0x3D1E DUP3 PUSH2 0x3CFA JUMP JUMPDEST PUSH2 0x3D28 DUP8 DUP3 PUSH2 0x3CDE JUMP JUMPDEST SWAP7 POP POP PUSH1 0x1 SWAP2 DUP3 ADD SWAP2 ADD PUSH2 0x3D0D JUMP JUMPDEST PUSH1 0x40 DUP2 ADD PUSH2 0x272A DUP3 DUP5 PUSH2 0x3D06 JUMP JUMPDEST PUSH1 0x0 DUP2 PUSH2 0x2FEF JUMP JUMPDEST PUSH1 0x0 PUSH2 0x272A DUP3 PUSH2 0x3D45 JUMP JUMPDEST PUSH1 0x0 PUSH2 0x272A PUSH2 0x3BAC PUSH1 0x1 PUSH1 0x1 PUSH1 0x80 SHL SUB DUP5 AND DUP2 JUMP JUMPDEST PUSH2 0x33FF DUP2 PUSH2 0x3D58 JUMP JUMPDEST PUSH1 0x0 DUP1 DUP3 MSTORE PUSH1 0x20 DUP3 ADD PUSH2 0x2FEF JUMP JUMPDEST PUSH1 0x60 DUP2 ADD PUSH2 0x3D92 DUP3 DUP6 PUSH2 0x33F6 JUMP JUMPDEST PUSH2 0x3D9F PUSH1 0x20 DUP4 ADD DUP5 PUSH2 0x3D6D JUMP JUMPDEST DUP2 DUP2 SUB PUSH1 0x40 DUP4 ADD MSTORE PUSH2 0x34A3 DUP2 PUSH2 0x3D76 JUMP JUMPDEST PUSH1 0x40 DUP2 ADD PUSH2 0x3DBE DUP3 DUP6 PUSH2 0x33F6 JUMP JUMPDEST PUSH2 0x3103 PUSH1 0x20 DUP4 ADD DUP5 PUSH2 0x3D6D JUMP JUMPDEST PUSH1 0x20 DUP2 ADD PUSH2 0x272A DUP3 DUP5 PUSH2 0x3D6D JUMP JUMPDEST PUSH1 0x2C DUP2 MSTORE PUSH1 0x0 PUSH1 0x20 DUP3 ADD PUSH32 0x46756E6374696F6E206D7573742062652063616C6C6564207468726F75676820 DUP2 MSTORE PUSH12 0x19195B1959D85D1958D85B1B PUSH1 0xA2 SHL PUSH1 0x20 DUP3 ADD MSTORE SWAP2 POP JUMPDEST POP PUSH1 0x40 ADD SWAP1 JUMP JUMPDEST PUSH1 0x20 DUP1 DUP3 MSTORE DUP2 ADD PUSH2 0x272A DUP2 PUSH2 0x3DD9 JUMP JUMPDEST PUSH1 0x2C DUP2 MSTORE PUSH1 0x0 PUSH1 0x20 DUP3 ADD PUSH32 0x46756E6374696F6E206D7573742062652063616C6C6564207468726F75676820 DUP2 MSTORE PUSH12 0x6163746976652070726F7879 PUSH1 0xA0 SHL PUSH1 0x20 DUP3 ADD MSTORE SWAP2 POP PUSH2 0x3E1E JUMP JUMPDEST PUSH1 0x20 DUP1 DUP3 MSTORE DUP2 ADD PUSH2 0x272A DUP2 PUSH2 0x3E35 JUMP JUMPDEST PUSH1 0x2E DUP2 MSTORE PUSH1 0x0 PUSH1 0x20 DUP3 ADD PUSH32 0x496E697469616C697A61626C653A20636F6E747261637420697320616C726561 DUP2 MSTORE PUSH14 0x191E481A5B9A5D1A585B1A5E9959 PUSH1 0x92 SHL PUSH1 0x20 DUP3 ADD MSTORE SWAP2 POP PUSH2 0x3E1E JUMP JUMPDEST PUSH1 0x20 DUP1 DUP3 MSTORE DUP2 ADD PUSH2 0x272A DUP2 PUSH2 0x3E8E JUMP JUMPDEST PUSH1 0x60 DUP2 ADD PUSH2 0x3EF7 DUP3 DUP7 PUSH2 0x33F6 JUMP JUMPDEST PUSH2 0x3F04 PUSH1 0x20 DUP4 ADD DUP6 PUSH2 0x3647 JUMP JUMPDEST PUSH2 0x34A3 PUSH1 0x40 DUP4 ADD DUP5 PUSH2 0x33F6 JUMP JUMPDEST PUSH1 0x0 PUSH1 0xFF DUP3 AND PUSH2 0x272A JUMP JUMPDEST PUSH2 0x33FF DUP2 PUSH2 0x3F11 JUMP JUMPDEST PUSH1 0x20 DUP2 ADD PUSH2 0x272A DUP3 DUP5 PUSH2 0x3F1C JUMP JUMPDEST PUSH1 0x0 PUSH2 0x3F3D DUP3 MLOAD SWAP1 JUMP JUMPDEST PUSH2 0x3F4B DUP2 DUP6 PUSH1 0x20 DUP7 ADD PUSH2 0x3BD5 JUMP JUMPDEST SWAP3 SWAP1 SWAP3 ADD SWAP3 SWAP2 POP POP JUMP JUMPDEST PUSH1 0x0 PUSH2 0x3F61 DUP3 DUP6 PUSH2 0x3F33 JUMP JUMPDEST SWAP2 POP PUSH2 0x3BCB DUP3 DUP5 PUSH2 0x3647 JUMP JUMPDEST PUSH1 0x38 DUP2 MSTORE PUSH1 0x0 PUSH1 0x20 DUP3 ADD PUSH32 0x555550535570677261646561626C653A206D757374206E6F742062652063616C DUP2 MSTORE PUSH32 0x6C6564207468726F7567682064656C656761746563616C6C0000000000000000 PUSH1 0x20 DUP3 ADD MSTORE SWAP2 POP PUSH2 0x3E1E JUMP JUMPDEST PUSH1 0x20 DUP1 DUP3 MSTORE DUP2 ADD PUSH2 0x272A DUP2 PUSH2 0x3F6D JUMP JUMPDEST PUSH1 0x0 PUSH2 0x3FE3 DUP3 DUP6 PUSH2 0x3647 JUMP JUMPDEST PUSH1 0x20 DUP3 ADD SWAP2 POP PUSH2 0x34A3 DUP3 DUP5 PUSH2 0x3F33 JUMP JUMPDEST PUSH4 0xFFFFFFFF DUP2 AND PUSH2 0x33FF JUMP JUMPDEST PUSH1 0x40 DUP2 ADD PUSH2 0x400D DUP3 DUP6 PUSH2 0x39EE JUMP JUMPDEST PUSH2 0x3103 PUSH1 0x20 DUP4 ADD DUP5 PUSH2 0x3FF3 JUMP JUMPDEST PUSH1 0x40 DUP2 ADD PUSH2 0x3B31 DUP3 DUP6 PUSH2 0x3647 JUMP JUMPDEST PUSH1 0x0 PUSH2 0x3103 DUP3 DUP5 PUSH2 0x3F33 JUMP JUMPDEST PUSH1 0x20 DUP2 ADD PUSH2 0x272A DUP3 DUP5 PUSH2 0x3FF3 JUMP JUMPDEST PUSH1 0x1 PUSH1 0x1 PUSH1 0xF0 SHL SUB NOT DUP2 AND PUSH2 0x33FF JUMP JUMPDEST PUSH1 0x40 DUP2 ADD PUSH2 0x3B31 DUP3 DUP6 PUSH2 0x4042 JUMP JUMPDEST PUSH1 0x26 DUP2 MSTORE PUSH1 0x0 PUSH1 0x20 DUP3 ADD PUSH32 0x4F776E61626C653A206E6577206F776E657220697320746865207A65726F2061 DUP2 MSTORE PUSH6 0x646472657373 PUSH1 0xD0 SHL PUSH1 0x20 DUP3 ADD MSTORE SWAP2 POP PUSH2 0x3E1E JUMP JUMPDEST PUSH1 0x20 DUP1 DUP3 MSTORE DUP2 ADD PUSH2 0x272A DUP2 PUSH2 0x4060 JUMP JUMPDEST PUSH1 0x0 PUSH2 0x272A DUP3 MLOAD SWAP1 JUMP JUMPDEST PUSH1 0x0 PUSH2 0x40C7 DUP3 MLOAD SWAP1 JUMP JUMPDEST PUSH1 0x20 DUP4 ADD PUSH2 0x40D4 DUP2 PUSH2 0x40B3 JUMP JUMPDEST SWAP3 POP PUSH1 0x20 DUP3 LT ISZERO PUSH2 0x40F5 JUMPI PUSH2 0x40F0 PUSH1 0x0 NOT DUP4 PUSH1 0x20 SUB PUSH1 0x8 MUL SHL SWAP1 JUMP JUMPDEST DUP4 AND SWAP3 POP JUMPDEST POP POP SWAP2 SWAP1 POP JUMP JUMPDEST PUSH1 0x20 DUP1 DUP3 MSTORE DUP2 DUP2 ADD SWAP1 DUP2 MSTORE PUSH32 0x4F776E61626C653A2063616C6C6572206973206E6F7420746865206F776E6572 PUSH1 0x40 DUP4 ADD MSTORE PUSH1 0x60 DUP3 ADD PUSH2 0x272A JUMP JUMPDEST PUSH1 0x2E DUP2 MSTORE PUSH1 0x0 PUSH1 0x20 DUP3 ADD PUSH32 0x45524331393637557067726164653A206E657720696D706C656D656E74617469 DUP2 MSTORE PUSH14 0x6F6E206973206E6F742055555053 PUSH1 0x90 SHL PUSH1 0x20 DUP3 ADD MSTORE SWAP2 POP PUSH2 0x3E1E JUMP JUMPDEST PUSH1 0x20 DUP1 DUP3 MSTORE DUP2 ADD PUSH2 0x272A DUP2 PUSH2 0x4136 JUMP JUMPDEST PUSH1 0x29 DUP2 MSTORE PUSH1 0x0 PUSH1 0x20 DUP3 ADD PUSH32 0x45524331393637557067726164653A20756E737570706F727465642070726F78 DUP2 MSTORE PUSH9 0x1A58589B1955555251 PUSH1 0xBA SHL PUSH1 0x20 DUP3 ADD MSTORE SWAP2 POP PUSH2 0x3E1E JUMP JUMPDEST PUSH1 0x20 DUP1 DUP3 MSTORE DUP2 ADD PUSH2 0x272A DUP2 PUSH2 0x4191 JUMP JUMPDEST PUSH1 0x2B DUP2 MSTORE PUSH1 0x0 PUSH1 0x20 DUP3 ADD PUSH32 0x496E697469616C697A61626C653A20636F6E7472616374206973206E6F742069 DUP2 MSTORE PUSH11 0x6E697469616C697A696E67 PUSH1 0xA8 SHL PUSH1 0x20 DUP3 ADD MSTORE SWAP2 POP PUSH2 0x3E1E JUMP JUMPDEST PUSH1 0x20 DUP1 DUP3 MSTORE DUP2 ADD PUSH2 0x272A DUP2 PUSH2 0x41E7 JUMP JUMPDEST PUSH1 0x60 DUP2 ADD PUSH2 0x424D DUP3 DUP7 PUSH2 0x3647 JUMP JUMPDEST PUSH2 0x3C66 PUSH1 0x20 DUP4 ADD DUP6 PUSH2 0x3647 JUMP JUMPDEST PUSH32 0x19457468657265756D205369676E6564204D6573736167653A0A333200000000 DUP2 MSTORE PUSH1 0x1C ADD PUSH1 0x0 PUSH2 0x428C DUP3 DUP5 PUSH2 0x3647 JUMP JUMPDEST POP PUSH1 0x20 ADD SWAP2 SWAP1 POP JUMP JUMPDEST PUSH4 0x4E487B71 PUSH1 0xE0 SHL PUSH1 0x0 MSTORE PUSH1 0x12 PUSH1 0x4 MSTORE PUSH1 0x24 PUSH1 0x0 REVERT JUMPDEST PUSH1 0xFF DUP2 AND PUSH2 0x33FF JUMP JUMPDEST PUSH1 0x80 DUP2 ADD PUSH2 0x42C2 DUP3 DUP8 PUSH2 0x3647 JUMP JUMPDEST PUSH2 0x42CF PUSH1 0x20 DUP4 ADD DUP7 PUSH2 0x42AB JUMP JUMPDEST PUSH2 0x42DC PUSH1 0x40 DUP4 ADD DUP6 PUSH2 0x3647 JUMP JUMPDEST PUSH2 0x30E1 PUSH1 0x60 DUP4 ADD DUP5 PUSH2 0x3647 JUMP JUMPDEST PUSH1 0x2D DUP2 MSTORE PUSH1 0x0 PUSH1 0x20 DUP3 ADD PUSH32 0x455243313936373A206E657720696D706C656D656E746174696F6E206973206E DUP2 MSTORE PUSH13 0x1BDD08184818DBDB9D1C9858DD PUSH1 0x9A SHL PUSH1 0x20 DUP3 ADD MSTORE SWAP2 POP PUSH2 0x3E1E JUMP JUMPDEST PUSH1 0x20 DUP1 DUP3 MSTORE DUP2 ADD PUSH2 0x272A DUP2 PUSH2 0x42E9 JUMP JUMPDEST PUSH1 0x26 DUP2 MSTORE PUSH1 0x0 PUSH1 0x20 DUP3 ADD PUSH32 0x416464726573733A2064656C65676174652063616C6C20746F206E6F6E2D636F DUP2 MSTORE PUSH6 0x1B9D1C9858DD PUSH1 0xD2 SHL PUSH1 0x20 DUP3 ADD MSTORE SWAP2 POP PUSH2 0x3E1E JUMP JUMPDEST PUSH1 0x20 DUP1 DUP3 MSTORE DUP2 ADD PUSH2 0x272A DUP2 PUSH2 0x4343 JUMP JUMPDEST PUSH1 0x20 DUP1 DUP3 MSTORE DUP2 ADD PUSH2 0x3103 DUP2 DUP5 PUSH2 0x3BF9 JUMP INVALID CALLDATASIZE ADDMOD SWAP5 LOG1 EXTCODESIZE LOG1 LOG3 0x21 MOD PUSH8 0xC828492DB98DCA3E KECCAK256 PUSH23 0xCC3735A920A3CA505D382BBC416464726573733A206C6F PUSH24 0x2D6C6576656C2064656C65676174652063616C6C20666169 PUSH13 0x6564A26469706673582212204A SWAP10 PUSH32 0xE28DC9A9ED968ED18069E85AA85ED070F028AEC7AB1CE175A9C6CBE2264736F PUSH13 0x63430008110033000000000000 "},"methodIdentifiers":{"confirmAvnTransaction(bytes32,bytes32[])":"e5342ce6","coreToken()":"0c2b72e9","denyGrowth(uint32)":"d4b11e26","deregisterValidator(bytes,bytes32,uint256,bytes)":"5b2b285b","growthAmount(uint32)":"d2d6f4d5","growthDelay()":"34c19214","growthRelease(uint32)":"295eb8b7","hasLowered(bytes32)":"e51d0921","idToT1Address(uint256)":"17a691aa","idToT2PublicKey(uint256)":"9e79fe6b","initialize(address,address)":"485cc955","isActiveValidator(uint256)":"46971f4f","isPublishedRootHash(bytes32)":"b9b17e7f","isRegisteredValidator(uint256)":"28fa2fc8","isUsedT2TransactionId(uint256)":"8f78ea1b","lift(address,bytes,uint256)":"0caa9948","liftETH(bytes)":"aee37d39","liftingIsEnabled()":"d3578a94","loadValidators(address[],bytes32[],bytes32[],bytes32[])":"004ac6bd","lower(bytes,bytes32[])":"3083f708","loweringIsEnabled()":"c95970e5","nextValidatorId()":"f7c09189","numActiveValidators()":"c4c4e4a9","numBytesToLowerData(bytes2)":"4fa182ea","owner()":"8da5cb5b","proxiableUUID()":"52d1902d","publishRoot(bytes32,uint256,bytes)":"c4024f0e","quorum(uint256)":"f8ce560a","registerValidator(bytes,bytes32,uint256,bytes)":"49a19ac1","releaseGrowth(uint32)":"8d2dde3f","renounceOwnership()":"715018a6","setCoreOwner()":"bf693839","setGrowthDelay(uint256)":"99010d19","setQuorum(uint256[2])":"1a621052","t1AddressToId(address)":"e8fed1d6","t2PublicKeyToId(bytes32)":"c460eb07","toggleLifting(bool)":"1b4097d8","toggleLowering(bool)":"8cacd6e7","toggleValidatorFunctions(bool)":"89556bef","tokensReceived(address,address,address,uint256,bytes,bytes)":"0023de29","transferOwnership(address)":"f2fde38b","triggerGrowth(uint128,uint32,uint256,bytes)":"88665ace","updateLowerCall(bytes2,uint256)":"dcfe8fb3","upgradeTo(address)":"3659cfe6","upgradeToAndCall(address,bytes)":"4f1ef286","validatorFunctionsAreEnabled()":"4a7d9f69"}},"storageLayout":{"storage":[{"astId":527,"contract":"contracts/AVNBridge.sol:AVNBridge","label":"_initialized","offset":0,"slot":"0","type":"t_uint8"},{"astId":530,"contract":"contracts/AVNBridge.sol:AVNBridge","label":"_initializing","offset":1,"slot":"0","type":"t_bool"},{"astId":509,"contract":"contracts/AVNBridge.sol:AVNBridge","label":"__gap","offset":0,"slot":"1","type":"t_array(t_uint256)50_storage"},{"astId":824,"contract":"contracts/AVNBridge.sol:AVNBridge","label":"__gap","offset":0,"slot":"51","type":"t_array(t_uint256)50_storage"},{"astId":1150,"contract":"contracts/AVNBridge.sol:AVNBridge","label":"__gap","offset":0,"slot":"101","type":"t_array(t_uint256)50_storage"},{"astId":10,"contract":"contracts/AVNBridge.sol:AVNBridge","label":"_owner","offset":0,"slot":"151","type":"t_address"},{"astId":130,"contract":"contracts/AVNBridge.sol:AVNBridge","label":"__gap","offset":0,"slot":"152","type":"t_array(t_uint256)49_storage"},{"astId":3812,"contract":"contracts/AVNBridge.sol:AVNBridge","label":"isRegisteredValidator","offset":0,"slot":"201","type":"t_mapping(t_uint256,t_bool)"},{"astId":3817,"contract":"contracts/AVNBridge.sol:AVNBridge","label":"isActiveValidator","offset":0,"slot":"202","type":"t_mapping(t_uint256,t_bool)"},{"astId":3822,"contract":"contracts/AVNBridge.sol:AVNBridge","label":"t1AddressToId","offset":0,"slot":"203","type":"t_mapping(t_address,t_uint256)"},{"astId":3827,"contract":"contracts/AVNBridge.sol:AVNBridge","label":"t2PublicKeyToId","offset":0,"slot":"204","type":"t_mapping(t_bytes32,t_uint256)"},{"astId":3832,"contract":"contracts/AVNBridge.sol:AVNBridge","label":"idToT1Address","offset":0,"slot":"205","type":"t_mapping(t_uint256,t_address)"},{"astId":3837,"contract":"contracts/AVNBridge.sol:AVNBridge","label":"idToT2PublicKey","offset":0,"slot":"206","type":"t_mapping(t_uint256,t_bytes32)"},{"astId":3842,"contract":"contracts/AVNBridge.sol:AVNBridge","label":"numBytesToLowerData","offset":0,"slot":"207","type":"t_mapping(t_bytes2,t_uint256)"},{"astId":3847,"contract":"contracts/AVNBridge.sol:AVNBridge","label":"isPublishedRootHash","offset":0,"slot":"208","type":"t_mapping(t_bytes32,t_bool)"},{"astId":3852,"contract":"contracts/AVNBridge.sol:AVNBridge","label":"isUsedT2TransactionId","offset":0,"slot":"209","type":"t_mapping(t_uint256,t_bool)"},{"astId":3857,"contract":"contracts/AVNBridge.sol:AVNBridge","label":"hasLowered","offset":0,"slot":"210","type":"t_mapping(t_bytes32,t_bool)"},{"astId":3862,"contract":"contracts/AVNBridge.sol:AVNBridge","label":"growthRelease","offset":0,"slot":"211","type":"t_mapping(t_uint32,t_uint256)"},{"astId":3867,"contract":"contracts/AVNBridge.sol:AVNBridge","label":"growthAmount","offset":0,"slot":"212","type":"t_mapping(t_uint32,t_uint128)"},{"astId":3871,"contract":"contracts/AVNBridge.sol:AVNBridge","label":"quorum","offset":0,"slot":"213","type":"t_array(t_uint256)2_storage"},{"astId":3873,"contract":"contracts/AVNBridge.sol:AVNBridge","label":"numActiveValidators","offset":0,"slot":"215","type":"t_uint256"},{"astId":3875,"contract":"contracts/AVNBridge.sol:AVNBridge","label":"nextValidatorId","offset":0,"slot":"216","type":"t_uint256"},{"astId":3877,"contract":"contracts/AVNBridge.sol:AVNBridge","label":"growthDelay","offset":0,"slot":"217","type":"t_uint256"},{"astId":3879,"contract":"contracts/AVNBridge.sol:AVNBridge","label":"coreToken","offset":0,"slot":"218","type":"t_address"},{"astId":3881,"contract":"contracts/AVNBridge.sol:AVNBridge","label":"priorInstance","offset":0,"slot":"219","type":"t_address"},{"astId":3883,"contract":"contracts/AVNBridge.sol:AVNBridge","label":"validatorFunctionsAreEnabled","offset":20,"slot":"219","type":"t_bool"},{"astId":3885,"contract":"contracts/AVNBridge.sol:AVNBridge","label":"liftingIsEnabled","offset":21,"slot":"219","type":"t_bool"},{"astId":3887,"contract":"contracts/AVNBridge.sol:AVNBridge","label":"loweringIsEnabled","offset":22,"slot":"219","type":"t_bool"}],"types":{"t_address":{"encoding":"inplace","label":"address","numberOfBytes":"20"},"t_array(t_uint256)2_storage":{"base":"t_uint256","encoding":"inplace","label":"uint256[2]","numberOfBytes":"64"},"t_array(t_uint256)49_storage":{"base":"t_uint256","encoding":"inplace","label":"uint256[49]","numberOfBytes":"1568"},"t_array(t_uint256)50_storage":{"base":"t_uint256","encoding":"inplace","label":"uint256[50]","numberOfBytes":"1600"},"t_bool":{"encoding":"inplace","label":"bool","numberOfBytes":"1"},"t_bytes2":{"encoding":"inplace","label":"bytes2","numberOfBytes":"2"},"t_bytes32":{"encoding":"inplace","label":"bytes32","numberOfBytes":"32"},"t_mapping(t_address,t_uint256)":{"encoding":"mapping","key":"t_address","label":"mapping(address => uint256)","numberOfBytes":"32","value":"t_uint256"},"t_mapping(t_bytes2,t_uint256)":{"encoding":"mapping","key":"t_bytes2","label":"mapping(bytes2 => uint256)","numberOfBytes":"32","value":"t_uint256"},"t_mapping(t_bytes32,t_bool)":{"encoding":"mapping","key":"t_bytes32","label":"mapping(bytes32 => bool)","numberOfBytes":"32","value":"t_bool"},"t_mapping(t_bytes32,t_uint256)":{"encoding":"mapping","key":"t_bytes32","label":"mapping(bytes32 => uint256)","numberOfBytes":"32","value":"t_uint256"},"t_mapping(t_uint256,t_address)":{"encoding":"mapping","key":"t_uint256","label":"mapping(uint256 => address)","numberOfBytes":"32","value":"t_address"},"t_mapping(t_uint256,t_bool)":{"encoding":"mapping","key":"t_uint256","label":"mapping(uint256 => bool)","numberOfBytes":"32","value":"t_bool"},"t_mapping(t_uint256,t_bytes32)":{"encoding":"mapping","key":"t_uint256","label":"mapping(uint256 => bytes32)","numberOfBytes":"32","value":"t_bytes32"},"t_mapping(t_uint32,t_uint128)":{"encoding":"mapping","key":"t_uint32","label":"mapping(uint32 => uint128)","numberOfBytes":"32","value":"t_uint128"},"t_mapping(t_uint32,t_uint256)":{"encoding":"mapping","key":"t_uint32","label":"mapping(uint32 => uint256)","numberOfBytes":"32","value":"t_uint256"},"t_uint128":{"encoding":"inplace","label":"uint128","numberOfBytes":"16"},"t_uint256":{"encoding":"inplace","label":"uint256","numberOfBytes":"32"},"t_uint32":{"encoding":"inplace","label":"uint32","numberOfBytes":"4"},"t_uint8":{"encoding":"inplace","label":"uint8","numberOfBytes":"1"}}}}}}