{"contracts/test/Token20.sol":{"Token20":{"abi":[{"inputs":[{"internalType":"uint256","name":"supply","type":"uint256"}],"stateMutability":"nonpayable","type":"constructor"},{"anonymous":false,"inputs":[{"indexed":true,"internalType":"address","name":"owner","type":"address"},{"indexed":true,"internalType":"address","name":"spender","type":"address"},{"indexed":false,"internalType":"uint256","name":"value","type":"uint256"}],"name":"Approval","type":"event"},{"anonymous":false,"inputs":[{"indexed":true,"internalType":"address","name":"owner","type":"address"}],"name":"LogSetOwner","type":"event"},{"anonymous":false,"inputs":[{"indexed":true,"internalType":"address","name":"previousOwner","type":"address"},{"indexed":true,"internalType":"address","name":"newOwner","type":"address"}],"name":"OwnershipTransferred","type":"event"},{"anonymous":false,"inputs":[{"indexed":true,"internalType":"address","name":"from","type":"address"},{"indexed":true,"internalType":"address","name":"to","type":"address"},{"indexed":false,"internalType":"uint256","name":"value","type":"uint256"}],"name":"Transfer","type":"event"},{"inputs":[{"internalType":"address","name":"owner","type":"address"},{"internalType":"address","name":"spender","type":"address"}],"name":"allowance","outputs":[{"internalType":"uint256","name":"","type":"uint256"}],"stateMutability":"view","type":"function"},{"inputs":[{"internalType":"address","name":"spender","type":"address"},{"internalType":"uint256","name":"amount","type":"uint256"}],"name":"approve","outputs":[{"internalType":"bool","name":"","type":"bool"}],"stateMutability":"nonpayable","type":"function"},{"inputs":[{"internalType":"address","name":"account","type":"address"}],"name":"balanceOf","outputs":[{"internalType":"uint256","name":"","type":"uint256"}],"stateMutability":"view","type":"function"},{"inputs":[],"name":"decimals","outputs":[{"internalType":"uint8","name":"","type":"uint8"}],"stateMutability":"view","type":"function"},{"inputs":[{"internalType":"address","name":"spender","type":"address"},{"internalType":"uint256","name":"subtractedValue","type":"uint256"}],"name":"decreaseAllowance","outputs":[{"internalType":"bool","name":"","type":"bool"}],"stateMutability":"nonpayable","type":"function"},{"inputs":[{"internalType":"address","name":"spender","type":"address"},{"internalType":"uint256","name":"addedValue","type":"uint256"}],"name":"increaseAllowance","outputs":[{"internalType":"bool","name":"","type":"bool"}],"stateMutability":"nonpayable","type":"function"},{"inputs":[{"internalType":"uint128","name":"amount","type":"uint128"}],"name":"mint","outputs":[],"stateMutability":"nonpayable","type":"function"},{"inputs":[],"name":"name","outputs":[{"internalType":"string","name":"","type":"string"}],"stateMutability":"view","type":"function"},{"inputs":[],"name":"owner","outputs":[{"internalType":"address","name":"","type":"address"}],"stateMutability":"view","type":"function"},{"inputs":[],"name":"renounceOwnership","outputs":[],"stateMutability":"nonpayable","type":"function"},{"inputs":[{"internalType":"address","name":"owner_","type":"address"}],"name":"setOwner","outputs":[],"stateMutability":"nonpayable","type":"function"},{"inputs":[],"name":"symbol","outputs":[{"internalType":"string","name":"","type":"string"}],"stateMutability":"view","type":"function"},{"inputs":[],"name":"totalSupply","outputs":[{"internalType":"uint256","name":"","type":"uint256"}],"stateMutability":"view","type":"function"},{"inputs":[{"internalType":"address","name":"to","type":"address"},{"internalType":"uint256","name":"amount","type":"uint256"}],"name":"transfer","outputs":[{"internalType":"bool","name":"","type":"bool"}],"stateMutability":"nonpayable","type":"function"},{"inputs":[{"internalType":"address","name":"from","type":"address"},{"internalType":"address","name":"to","type":"address"},{"internalType":"uint256","name":"amount","type":"uint256"}],"name":"transferFrom","outputs":[{"internalType":"bool","name":"","type":"bool"}],"stateMutability":"nonpayable","type":"function"},{"inputs":[{"internalType":"address","name":"newOwner","type":"address"}],"name":"transferOwnership","outputs":[],"stateMutability":"nonpayable","type":"function"}],"evm":{"bytecode":{"linkReferences":{},"object":"60806040523480156200001157600080fd5b50604051620011e3380380620011e38339810160408190526200003491620001dd565b604051806040016040528060078152602001660546f6b656e32360cc1b81525060405180604001604052806002815260200161032360f41b815250816003908162000080919062000314565b5060046200008f828262000314565b505050620000ac620000a6620000d260201b60201c565b620000d6565b620000cb33620000c583670de0b6b3a7640000620003fa565b62000128565b506200047b565b3390565b600580546001600160a01b038381166001600160a01b0319831681179093556040519116919082907f8be0079c531659141344cd1fd0a4f28419497f9722a3daafe3b4186f6b6457e090600090a35050565b6001600160a01b0382166200015a5760405162461bcd60e51b815260040162000151906200041c565b60405180910390fd5b80600260008282546200016e919062000458565b90915550506001600160a01b038216600081815260208190526040808220805485019055517fddf252ad1be2c89b69c2b068fc378daa952ba7f163c4a11628f55a4df523b3ef90620001c29085906200046e565b60405180910390a35b5050565b505050565b80515b92915050565b600060208284031215620001f457620001f4600080fd5b6000620002028484620001d4565b949350505050565b634e487b7160e01b600052604160045260246000fd5b634e487b7160e01b600052602260045260246000fd5b6002810460018216806200024b57607f821691505b60208210810362000260576200026062000220565b50919050565b6000620001d7620002748381565b90565b620002828362000266565b81546008840282811b60001990911b908116901990911617825550505050565b6000620001cf81848462000277565b81811015620001cb57620002c7600082620002a2565b600101620002b1565b601f821115620001cf576000818152602090206020601f85010481016020851015620002f95750805b6200030d6020601f860104830182620002b1565b5050505050565b81516001600160401b038111156200033057620003306200020a565b6200033c825462000236565b62000349828285620002d0565b6020601f831160018114620003805760008415620003675750858201515b600019600886021c1981166002860217865550620003dc565b600085815260208120601f198616915b82811015620003b2578885015182556020948501946001909201910162000390565b86831015620003cf5784890151600019601f89166008021c191682555b6001600288020188555050505b505050505050565b634e487b7160e01b600052601160045260246000fd5b818102808215838204851417620004155762000415620003e4565b5092915050565b60208082528101620001d781601f81527f45524332303a206d696e7420746f20746865207a65726f206164647265737300602082015260400190565b80820180821115620001d757620001d7620003e4565b81815260208101620001d7565b610d58806200048b6000396000f3fe608060405234801561001057600080fd5b50600436106101005760003560e01c806370a0823111610097578063a457c2d711610066578063a457c2d714610203578063a9059cbb14610216578063dd62ed3e14610229578063f2fde38b1461023c57600080fd5b806370a08231146101b1578063715018a6146101da5780638da5cb5b146101e257806395d89b41146101fb57600080fd5b806323b872dd116100d357806323b872dd14610169578063313ce5671461017c578063395093511461018b57806369d3e20e1461019e57600080fd5b806306fdde0314610105578063095ea7b31461012357806313af40351461014357806318160ddd14610158575b600080fd5b61010d61024f565b60405161011a91906107d6565b60405180910390f35b61013661013136600461082f565b6102e1565b60405161011a9190610876565b610156610151366004610884565b6102fb565b005b6002545b60405161011a91906108b3565b6101366101773660046108c1565b610343565b601260405161011a919061091a565b61013661019936600461082f565b610367565b6101566101ac366004610942565b610389565b61015c6101bf366004610884565b6001600160a01b031660009081526020819052604090205490565b6101566103a7565b6005546001600160a01b031660405161011a919061096c565b61010d6103bb565b61013661021136600461082f565b6103ca565b61013661022436600461082f565b610410565b61015c61023736600461097a565b61041e565b61015661024a366004610884565b610449565b60606003805461025e906109c3565b80601f016020809104026020016040519081016040528092919081815260200182805461028a906109c3565b80156102d75780601f106102ac576101008083540402835291602001916102d7565b820191906000526020600020905b8154815290600101906020018083116102ba57829003601f168201915b5050505050905090565b6000336102ef818585610480565b60019150505b92915050565b610303610534565b61030c8161055e565b6040516001600160a01b038216907fce241d7ca1f669fee44b6fc00b8eba2df3bb514eed0f6f668f8f89096e81ed9490600090a250565b6000336103518582856105b0565b61035c8585856105fa565b506001949350505050565b6000336102ef81858561037a838361041e565b6103849190610a05565b610480565b610391610534565b6103a433826001600160801b03166106ea565b50565b6103af610534565b6103b9600061055e565b565b60606004805461025e906109c3565b600033816103d8828661041e565b9050838110156104035760405162461bcd60e51b81526004016103fa90610a5d565b60405180910390fd5b61035c8286868403610480565b6000336102ef8185856105fa565b6001600160a01b03918216600090815260016020908152604080832093909416825291909152205490565b610451610534565b6001600160a01b0381166104775760405162461bcd60e51b81526004016103fa90610ab0565b6103a48161055e565b6001600160a01b0383166104a65760405162461bcd60e51b81526004016103fa90610b01565b6001600160a01b0382166104cc5760405162461bcd60e51b81526004016103fa90610b50565b6001600160a01b0380841660008181526001602090815260408083209487168084529490915290819020849055517f8c5be1e5ebec7d5bd14f71427d1e84f3dd0314c0f7b2291e5b200ac8c7c3b925906105279085906108b3565b60405180910390a3505050565b6005546001600160a01b031633146103b95760405162461bcd60e51b81526004016103fa90610b95565b600580546001600160a01b038381166001600160a01b0319831681179093556040519116919082907f8be0079c531659141344cd1fd0a4f28419497f9722a3daafe3b4186f6b6457e090600090a35050565b60006105bc848461041e565b905060001981146105f457818110156105e75760405162461bcd60e51b81526004016103fa90610bd9565b6105f48484848403610480565b50505050565b6001600160a01b0383166106205760405162461bcd60e51b81526004016103fa90610c2b565b6001600160a01b0382166106465760405162461bcd60e51b81526004016103fa90610c7b565b6001600160a01b0383166000908152602081905260409020548181101561067f5760405162461bcd60e51b81526004016103fa90610cce565b6001600160a01b0380851660008181526020819052604080822086860390559286168082529083902080548601905591517fddf252ad1be2c89b69c2b068fc378daa952ba7f163c4a11628f55a4df523b3ef906106dd9086906108b3565b60405180910390a36105f4565b6001600160a01b0382166107105760405162461bcd60e51b81526004016103fa90610d12565b80600260008282546107229190610a05565b90915550506001600160a01b038216600081815260208190526040808220805485019055517fddf252ad1be2c89b69c2b068fc378daa952ba7f163c4a11628f55a4df523b3ef906107749085906108b3565b60405180910390a35050565b60005b8381101561079b578181015183820152602001610783565b50506000910152565b60006107ae825190565b8084526020840193506107c5818560208601610780565b601f01601f19169290920192915050565b602080825281016107e781846107a4565b9392505050565b60006001600160a01b0382166102f5565b610808816107ee565b81146103a457600080fd5b80356102f5816107ff565b80610808565b80356102f58161081e565b6000806040838503121561084557610845600080fd5b60006108518585610813565b925050602061086285828601610824565b9150509250929050565b8015155b82525050565b602081016102f5828461086c565b60006020828403121561089957610899600080fd5b60006108a58484610813565b949350505050565b80610870565b602081016102f582846108ad565b6000806000606084860312156108d9576108d9600080fd5b60006108e58686610813565b93505060206108f686828701610813565b925050604061090786828701610824565b9150509250925092565b60ff8116610870565b602081016102f58284610911565b6001600160801b038116610808565b80356102f581610928565b60006020828403121561095757610957600080fd5b60006108a58484610937565b610870816107ee565b602081016102f58284610963565b6000806040838503121561099057610990600080fd5b600061099c8585610813565b925050602061086285828601610813565b634e487b7160e01b600052602260045260246000fd5b6002810460018216806109d757607f821691505b6020821081036109e9576109e96109ad565b50919050565b634e487b7160e01b600052601160045260246000fd5b808201808211156102f5576102f56109ef565b602581526000602082017f45524332303a2064656372656173656420616c6c6f77616e63652062656c6f77815264207a65726f60d81b602082015291505b5060400190565b602080825281016102f581610a18565b602681526000602082017f4f776e61626c653a206e6577206f776e657220697320746865207a65726f206181526564647265737360d01b60208201529150610a56565b602080825281016102f581610a6d565b602481526000602082017f45524332303a20617070726f76652066726f6d20746865207a65726f206164648152637265737360e01b60208201529150610a56565b602080825281016102f581610ac0565b602281526000602082017f45524332303a20617070726f766520746f20746865207a65726f206164647265815261737360f01b60208201529150610a56565b602080825281016102f581610b11565b60208082527f4f776e61626c653a2063616c6c6572206973206e6f7420746865206f776e6572910190815260005b5060200190565b602080825281016102f581610b60565b601d81526000602082017f45524332303a20696e73756666696369656e7420616c6c6f77616e636500000081529150610b8e565b602080825281016102f581610ba5565b602581526000602082017f45524332303a207472616e736665722066726f6d20746865207a65726f206164815264647265737360d81b60208201529150610a56565b602080825281016102f581610be9565b602381526000602082017f45524332303a207472616e7366657220746f20746865207a65726f206164647281526265737360e81b60208201529150610a56565b602080825281016102f581610c3b565b602681526000602082017f45524332303a207472616e7366657220616d6f756e7420657863656564732062815265616c616e636560d01b60208201529150610a56565b602080825281016102f581610c8b565b601f81526000602082017f45524332303a206d696e7420746f20746865207a65726f20616464726573730081529150610b8e565b602080825281016102f581610cde56fea26469706673582212208f97b6854b99c8911065e5a90165b53521d341fedf451daa5b2e1caf5a64b9fa64736f6c63430008110033","opcodes":"PUSH1 0x80 PUSH1 0x40 MSTORE CALLVALUE DUP1 ISZERO PUSH3 0x11 JUMPI PUSH1 0x0 DUP1 REVERT JUMPDEST POP PUSH1 0x40 MLOAD PUSH3 0x11E3 CODESIZE SUB DUP1 PUSH3 0x11E3 DUP4 CODECOPY DUP2 ADD PUSH1 0x40 DUP2 SWAP1 MSTORE PUSH3 0x34 SWAP2 PUSH3 0x1DD JUMP JUMPDEST PUSH1 0x40 MLOAD DUP1 PUSH1 0x40 ADD PUSH1 0x40 MSTORE DUP1 PUSH1 0x7 DUP2 MSTORE PUSH1 0x20 ADD PUSH7 0x546F6B656E323 PUSH1 0xCC SHL DUP2 MSTORE POP PUSH1 0x40 MLOAD DUP1 PUSH1 0x40 ADD PUSH1 0x40 MSTORE DUP1 PUSH1 0x2 DUP2 MSTORE PUSH1 0x20 ADD PUSH2 0x323 PUSH1 0xF4 SHL DUP2 MSTORE POP DUP2 PUSH1 0x3 SWAP1 DUP2 PUSH3 0x80 SWAP2 SWAP1 PUSH3 0x314 JUMP JUMPDEST POP PUSH1 0x4 PUSH3 0x8F DUP3 DUP3 PUSH3 0x314 JUMP JUMPDEST POP POP POP PUSH3 0xAC PUSH3 0xA6 PUSH3 0xD2 PUSH1 0x20 SHL PUSH1 0x20 SHR JUMP JUMPDEST PUSH3 0xD6 JUMP JUMPDEST PUSH3 0xCB CALLER PUSH3 0xC5 DUP4 PUSH8 0xDE0B6B3A7640000 PUSH3 0x3FA JUMP JUMPDEST PUSH3 0x128 JUMP JUMPDEST POP PUSH3 0x47B JUMP JUMPDEST CALLER SWAP1 JUMP JUMPDEST PUSH1 0x5 DUP1 SLOAD PUSH1 0x1 PUSH1 0x1 PUSH1 0xA0 SHL SUB DUP4 DUP2 AND PUSH1 0x1 PUSH1 0x1 PUSH1 0xA0 SHL SUB NOT DUP4 AND DUP2 OR SWAP1 SWAP4 SSTORE PUSH1 0x40 MLOAD SWAP2 AND SWAP2 SWAP1 DUP3 SWAP1 PUSH32 0x8BE0079C531659141344CD1FD0A4F28419497F9722A3DAAFE3B4186F6B6457E0 SWAP1 PUSH1 0x0 SWAP1 LOG3 POP POP JUMP JUMPDEST PUSH1 0x1 PUSH1 0x1 PUSH1 0xA0 SHL SUB DUP3 AND PUSH3 0x15A JUMPI PUSH1 0x40 MLOAD PUSH3 0x461BCD PUSH1 0xE5 SHL DUP2 MSTORE PUSH1 0x4 ADD PUSH3 0x151 SWAP1 PUSH3 0x41C JUMP JUMPDEST PUSH1 0x40 MLOAD DUP1 SWAP2 SUB SWAP1 REVERT JUMPDEST DUP1 PUSH1 0x2 PUSH1 0x0 DUP3 DUP3 SLOAD PUSH3 0x16E SWAP2 SWAP1 PUSH3 0x458 JUMP JUMPDEST SWAP1 SWAP2 SSTORE POP POP PUSH1 0x1 PUSH1 0x1 PUSH1 0xA0 SHL SUB DUP3 AND PUSH1 0x0 DUP2 DUP2 MSTORE PUSH1 0x20 DUP2 SWAP1 MSTORE PUSH1 0x40 DUP1 DUP3 KECCAK256 DUP1 SLOAD DUP6 ADD SWAP1 SSTORE MLOAD PUSH32 0xDDF252AD1BE2C89B69C2B068FC378DAA952BA7F163C4A11628F55A4DF523B3EF SWAP1 PUSH3 0x1C2 SWAP1 DUP6 SWAP1 PUSH3 0x46E JUMP JUMPDEST PUSH1 0x40 MLOAD DUP1 SWAP2 SUB SWAP1 LOG3 JUMPDEST POP POP JUMP JUMPDEST POP POP POP JUMP JUMPDEST DUP1 MLOAD JUMPDEST SWAP3 SWAP2 POP POP JUMP JUMPDEST PUSH1 0x0 PUSH1 0x20 DUP3 DUP5 SUB SLT ISZERO PUSH3 0x1F4 JUMPI PUSH3 0x1F4 PUSH1 0x0 DUP1 REVERT JUMPDEST PUSH1 0x0 PUSH3 0x202 DUP5 DUP5 PUSH3 0x1D4 JUMP JUMPDEST SWAP5 SWAP4 POP POP POP POP JUMP JUMPDEST PUSH4 0x4E487B71 PUSH1 0xE0 SHL PUSH1 0x0 MSTORE PUSH1 0x41 PUSH1 0x4 MSTORE PUSH1 0x24 PUSH1 0x0 REVERT JUMPDEST PUSH4 0x4E487B71 PUSH1 0xE0 SHL PUSH1 0x0 MSTORE PUSH1 0x22 PUSH1 0x4 MSTORE PUSH1 0x24 PUSH1 0x0 REVERT JUMPDEST PUSH1 0x2 DUP2 DIV PUSH1 0x1 DUP3 AND DUP1 PUSH3 0x24B JUMPI PUSH1 0x7F DUP3 AND SWAP2 POP JUMPDEST PUSH1 0x20 DUP3 LT DUP2 SUB PUSH3 0x260 JUMPI PUSH3 0x260 PUSH3 0x220 JUMP JUMPDEST POP SWAP2 SWAP1 POP JUMP JUMPDEST PUSH1 0x0 PUSH3 0x1D7 PUSH3 0x274 DUP4 DUP2 JUMP JUMPDEST SWAP1 JUMP JUMPDEST PUSH3 0x282 DUP4 PUSH3 0x266 JUMP JUMPDEST DUP2 SLOAD PUSH1 0x8 DUP5 MUL DUP3 DUP2 SHL PUSH1 0x0 NOT SWAP1 SWAP2 SHL SWAP1 DUP2 AND SWAP1 NOT SWAP1 SWAP2 AND OR DUP3 SSTORE POP POP POP POP JUMP JUMPDEST PUSH1 0x0 PUSH3 0x1CF DUP2 DUP5 DUP5 PUSH3 0x277 JUMP JUMPDEST DUP2 DUP2 LT ISZERO PUSH3 0x1CB JUMPI PUSH3 0x2C7 PUSH1 0x0 DUP3 PUSH3 0x2A2 JUMP JUMPDEST PUSH1 0x1 ADD PUSH3 0x2B1 JUMP JUMPDEST PUSH1 0x1F DUP3 GT ISZERO PUSH3 0x1CF JUMPI PUSH1 0x0 DUP2 DUP2 MSTORE PUSH1 0x20 SWAP1 KECCAK256 PUSH1 0x20 PUSH1 0x1F DUP6 ADD DIV DUP2 ADD PUSH1 0x20 DUP6 LT ISZERO PUSH3 0x2F9 JUMPI POP DUP1 JUMPDEST PUSH3 0x30D PUSH1 0x20 PUSH1 0x1F DUP7 ADD DIV DUP4 ADD DUP3 PUSH3 0x2B1 JUMP JUMPDEST POP POP POP POP POP JUMP JUMPDEST DUP2 MLOAD PUSH1 0x1 PUSH1 0x1 PUSH1 0x40 SHL SUB DUP2 GT ISZERO PUSH3 0x330 JUMPI PUSH3 0x330 PUSH3 0x20A JUMP JUMPDEST PUSH3 0x33C DUP3 SLOAD PUSH3 0x236 JUMP JUMPDEST PUSH3 0x349 DUP3 DUP3 DUP6 PUSH3 0x2D0 JUMP JUMPDEST PUSH1 0x20 PUSH1 0x1F DUP4 GT PUSH1 0x1 DUP2 EQ PUSH3 0x380 JUMPI PUSH1 0x0 DUP5 ISZERO PUSH3 0x367 JUMPI POP DUP6 DUP3 ADD MLOAD JUMPDEST PUSH1 0x0 NOT PUSH1 0x8 DUP7 MUL SHR NOT DUP2 AND PUSH1 0x2 DUP7 MUL OR DUP7 SSTORE POP PUSH3 0x3DC JUMP JUMPDEST PUSH1 0x0 DUP6 DUP2 MSTORE PUSH1 0x20 DUP2 KECCAK256 PUSH1 0x1F NOT DUP7 AND SWAP2 JUMPDEST DUP3 DUP2 LT ISZERO PUSH3 0x3B2 JUMPI DUP9 DUP6 ADD MLOAD DUP3 SSTORE PUSH1 0x20 SWAP5 DUP6 ADD SWAP5 PUSH1 0x1 SWAP1 SWAP3 ADD SWAP2 ADD PUSH3 0x390 JUMP JUMPDEST DUP7 DUP4 LT ISZERO PUSH3 0x3CF JUMPI DUP5 DUP10 ADD MLOAD PUSH1 0x0 NOT PUSH1 0x1F DUP10 AND PUSH1 0x8 MUL SHR NOT AND DUP3 SSTORE JUMPDEST PUSH1 0x1 PUSH1 0x2 DUP9 MUL ADD DUP9 SSTORE POP POP POP JUMPDEST POP POP POP POP POP POP JUMP JUMPDEST PUSH4 0x4E487B71 PUSH1 0xE0 SHL PUSH1 0x0 MSTORE PUSH1 0x11 PUSH1 0x4 MSTORE PUSH1 0x24 PUSH1 0x0 REVERT JUMPDEST DUP2 DUP2 MUL DUP1 DUP3 ISZERO DUP4 DUP3 DIV DUP6 EQ OR PUSH3 0x415 JUMPI PUSH3 0x415 PUSH3 0x3E4 JUMP JUMPDEST POP SWAP3 SWAP2 POP POP JUMP JUMPDEST PUSH1 0x20 DUP1 DUP3 MSTORE DUP2 ADD PUSH3 0x1D7 DUP2 PUSH1 0x1F DUP2 MSTORE PUSH32 0x45524332303A206D696E7420746F20746865207A65726F206164647265737300 PUSH1 0x20 DUP3 ADD MSTORE PUSH1 0x40 ADD SWAP1 JUMP JUMPDEST DUP1 DUP3 ADD DUP1 DUP3 GT ISZERO PUSH3 0x1D7 JUMPI PUSH3 0x1D7 PUSH3 0x3E4 JUMP JUMPDEST DUP2 DUP2 MSTORE PUSH1 0x20 DUP2 ADD PUSH3 0x1D7 JUMP JUMPDEST PUSH2 0xD58 DUP1 PUSH3 0x48B PUSH1 0x0 CODECOPY PUSH1 0x0 RETURN INVALID PUSH1 0x80 PUSH1 0x40 MSTORE CALLVALUE DUP1 ISZERO PUSH2 0x10 JUMPI PUSH1 0x0 DUP1 REVERT JUMPDEST POP PUSH1 0x4 CALLDATASIZE LT PUSH2 0x100 JUMPI PUSH1 0x0 CALLDATALOAD PUSH1 0xE0 SHR DUP1 PUSH4 0x70A08231 GT PUSH2 0x97 JUMPI DUP1 PUSH4 0xA457C2D7 GT PUSH2 0x66 JUMPI DUP1 PUSH4 0xA457C2D7 EQ PUSH2 0x203 JUMPI DUP1 PUSH4 0xA9059CBB EQ PUSH2 0x216 JUMPI DUP1 PUSH4 0xDD62ED3E EQ PUSH2 0x229 JUMPI DUP1 PUSH4 0xF2FDE38B EQ PUSH2 0x23C JUMPI PUSH1 0x0 DUP1 REVERT JUMPDEST DUP1 PUSH4 0x70A08231 EQ PUSH2 0x1B1 JUMPI DUP1 PUSH4 0x715018A6 EQ PUSH2 0x1DA JUMPI DUP1 PUSH4 0x8DA5CB5B EQ PUSH2 0x1E2 JUMPI DUP1 PUSH4 0x95D89B41 EQ PUSH2 0x1FB JUMPI PUSH1 0x0 DUP1 REVERT JUMPDEST DUP1 PUSH4 0x23B872DD GT PUSH2 0xD3 JUMPI DUP1 PUSH4 0x23B872DD EQ PUSH2 0x169 JUMPI DUP1 PUSH4 0x313CE567 EQ PUSH2 0x17C JUMPI DUP1 PUSH4 0x39509351 EQ PUSH2 0x18B JUMPI DUP1 PUSH4 0x69D3E20E EQ PUSH2 0x19E JUMPI PUSH1 0x0 DUP1 REVERT JUMPDEST DUP1 PUSH4 0x6FDDE03 EQ PUSH2 0x105 JUMPI DUP1 PUSH4 0x95EA7B3 EQ PUSH2 0x123 JUMPI DUP1 PUSH4 0x13AF4035 EQ PUSH2 0x143 JUMPI DUP1 PUSH4 0x18160DDD EQ PUSH2 0x158 JUMPI JUMPDEST PUSH1 0x0 DUP1 REVERT JUMPDEST PUSH2 0x10D PUSH2 0x24F JUMP JUMPDEST PUSH1 0x40 MLOAD PUSH2 0x11A SWAP2 SWAP1 PUSH2 0x7D6 JUMP JUMPDEST PUSH1 0x40 MLOAD DUP1 SWAP2 SUB SWAP1 RETURN JUMPDEST PUSH2 0x136 PUSH2 0x131 CALLDATASIZE PUSH1 0x4 PUSH2 0x82F JUMP JUMPDEST PUSH2 0x2E1 JUMP JUMPDEST PUSH1 0x40 MLOAD PUSH2 0x11A SWAP2 SWAP1 PUSH2 0x876 JUMP JUMPDEST PUSH2 0x156 PUSH2 0x151 CALLDATASIZE PUSH1 0x4 PUSH2 0x884 JUMP JUMPDEST PUSH2 0x2FB JUMP JUMPDEST STOP JUMPDEST PUSH1 0x2 SLOAD JUMPDEST PUSH1 0x40 MLOAD PUSH2 0x11A SWAP2 SWAP1 PUSH2 0x8B3 JUMP JUMPDEST PUSH2 0x136 PUSH2 0x177 CALLDATASIZE PUSH1 0x4 PUSH2 0x8C1 JUMP JUMPDEST PUSH2 0x343 JUMP JUMPDEST PUSH1 0x12 PUSH1 0x40 MLOAD PUSH2 0x11A SWAP2 SWAP1 PUSH2 0x91A JUMP JUMPDEST PUSH2 0x136 PUSH2 0x199 CALLDATASIZE PUSH1 0x4 PUSH2 0x82F JUMP JUMPDEST PUSH2 0x367 JUMP JUMPDEST PUSH2 0x156 PUSH2 0x1AC CALLDATASIZE PUSH1 0x4 PUSH2 0x942 JUMP JUMPDEST PUSH2 0x389 JUMP JUMPDEST PUSH2 0x15C PUSH2 0x1BF CALLDATASIZE PUSH1 0x4 PUSH2 0x884 JUMP JUMPDEST PUSH1 0x1 PUSH1 0x1 PUSH1 0xA0 SHL SUB AND PUSH1 0x0 SWAP1 DUP2 MSTORE PUSH1 0x20 DUP2 SWAP1 MSTORE PUSH1 0x40 SWAP1 KECCAK256 SLOAD SWAP1 JUMP JUMPDEST PUSH2 0x156 PUSH2 0x3A7 JUMP JUMPDEST PUSH1 0x5 SLOAD PUSH1 0x1 PUSH1 0x1 PUSH1 0xA0 SHL SUB AND PUSH1 0x40 MLOAD PUSH2 0x11A SWAP2 SWAP1 PUSH2 0x96C JUMP JUMPDEST PUSH2 0x10D PUSH2 0x3BB JUMP JUMPDEST PUSH2 0x136 PUSH2 0x211 CALLDATASIZE PUSH1 0x4 PUSH2 0x82F JUMP JUMPDEST PUSH2 0x3CA JUMP JUMPDEST PUSH2 0x136 PUSH2 0x224 CALLDATASIZE PUSH1 0x4 PUSH2 0x82F JUMP JUMPDEST PUSH2 0x410 JUMP JUMPDEST PUSH2 0x15C PUSH2 0x237 CALLDATASIZE PUSH1 0x4 PUSH2 0x97A JUMP JUMPDEST PUSH2 0x41E JUMP JUMPDEST PUSH2 0x156 PUSH2 0x24A CALLDATASIZE PUSH1 0x4 PUSH2 0x884 JUMP JUMPDEST PUSH2 0x449 JUMP JUMPDEST PUSH1 0x60 PUSH1 0x3 DUP1 SLOAD PUSH2 0x25E SWAP1 PUSH2 0x9C3 JUMP JUMPDEST DUP1 PUSH1 0x1F ADD PUSH1 0x20 DUP1 SWAP2 DIV MUL PUSH1 0x20 ADD PUSH1 0x40 MLOAD SWAP1 DUP2 ADD PUSH1 0x40 MSTORE DUP1 SWAP3 SWAP2 SWAP1 DUP2 DUP2 MSTORE PUSH1 0x20 ADD DUP3 DUP1 SLOAD PUSH2 0x28A SWAP1 PUSH2 0x9C3 JUMP JUMPDEST DUP1 ISZERO PUSH2 0x2D7 JUMPI DUP1 PUSH1 0x1F LT PUSH2 0x2AC JUMPI PUSH2 0x100 DUP1 DUP4 SLOAD DIV MUL DUP4 MSTORE SWAP2 PUSH1 0x20 ADD SWAP2 PUSH2 0x2D7 JUMP JUMPDEST DUP3 ADD SWAP2 SWAP1 PUSH1 0x0 MSTORE PUSH1 0x20 PUSH1 0x0 KECCAK256 SWAP1 JUMPDEST DUP2 SLOAD DUP2 MSTORE SWAP1 PUSH1 0x1 ADD SWAP1 PUSH1 0x20 ADD DUP1 DUP4 GT PUSH2 0x2BA JUMPI DUP3 SWAP1 SUB PUSH1 0x1F AND DUP3 ADD SWAP2 JUMPDEST POP POP POP POP POP SWAP1 POP SWAP1 JUMP JUMPDEST PUSH1 0x0 CALLER PUSH2 0x2EF DUP2 DUP6 DUP6 PUSH2 0x480 JUMP JUMPDEST PUSH1 0x1 SWAP2 POP POP JUMPDEST SWAP3 SWAP2 POP POP JUMP JUMPDEST PUSH2 0x303 PUSH2 0x534 JUMP JUMPDEST PUSH2 0x30C DUP2 PUSH2 0x55E JUMP JUMPDEST PUSH1 0x40 MLOAD PUSH1 0x1 PUSH1 0x1 PUSH1 0xA0 SHL SUB DUP3 AND SWAP1 PUSH32 0xCE241D7CA1F669FEE44B6FC00B8EBA2DF3BB514EED0F6F668F8F89096E81ED94 SWAP1 PUSH1 0x0 SWAP1 LOG2 POP JUMP JUMPDEST PUSH1 0x0 CALLER PUSH2 0x351 DUP6 DUP3 DUP6 PUSH2 0x5B0 JUMP JUMPDEST PUSH2 0x35C DUP6 DUP6 DUP6 PUSH2 0x5FA JUMP JUMPDEST POP PUSH1 0x1 SWAP5 SWAP4 POP POP POP POP JUMP JUMPDEST PUSH1 0x0 CALLER PUSH2 0x2EF DUP2 DUP6 DUP6 PUSH2 0x37A DUP4 DUP4 PUSH2 0x41E JUMP JUMPDEST PUSH2 0x384 SWAP2 SWAP1 PUSH2 0xA05 JUMP JUMPDEST PUSH2 0x480 JUMP JUMPDEST PUSH2 0x391 PUSH2 0x534 JUMP JUMPDEST PUSH2 0x3A4 CALLER DUP3 PUSH1 0x1 PUSH1 0x1 PUSH1 0x80 SHL SUB AND PUSH2 0x6EA JUMP JUMPDEST POP JUMP JUMPDEST PUSH2 0x3AF PUSH2 0x534 JUMP JUMPDEST PUSH2 0x3B9 PUSH1 0x0 PUSH2 0x55E JUMP JUMPDEST JUMP JUMPDEST PUSH1 0x60 PUSH1 0x4 DUP1 SLOAD PUSH2 0x25E SWAP1 PUSH2 0x9C3 JUMP JUMPDEST PUSH1 0x0 CALLER DUP2 PUSH2 0x3D8 DUP3 DUP7 PUSH2 0x41E JUMP JUMPDEST SWAP1 POP DUP4 DUP2 LT ISZERO PUSH2 0x403 JUMPI PUSH1 0x40 MLOAD PUSH3 0x461BCD PUSH1 0xE5 SHL DUP2 MSTORE PUSH1 0x4 ADD PUSH2 0x3FA SWAP1 PUSH2 0xA5D JUMP JUMPDEST PUSH1 0x40 MLOAD DUP1 SWAP2 SUB SWAP1 REVERT JUMPDEST PUSH2 0x35C DUP3 DUP7 DUP7 DUP5 SUB PUSH2 0x480 JUMP JUMPDEST PUSH1 0x0 CALLER PUSH2 0x2EF DUP2 DUP6 DUP6 PUSH2 0x5FA JUMP JUMPDEST PUSH1 0x1 PUSH1 0x1 PUSH1 0xA0 SHL SUB SWAP2 DUP3 AND PUSH1 0x0 SWAP1 DUP2 MSTORE PUSH1 0x1 PUSH1 0x20 SWAP1 DUP2 MSTORE PUSH1 0x40 DUP1 DUP4 KECCAK256 SWAP4 SWAP1 SWAP5 AND DUP3 MSTORE SWAP2 SWAP1 SWAP2 MSTORE KECCAK256 SLOAD SWAP1 JUMP JUMPDEST PUSH2 0x451 PUSH2 0x534 JUMP JUMPDEST PUSH1 0x1 PUSH1 0x1 PUSH1 0xA0 SHL SUB DUP2 AND PUSH2 0x477 JUMPI PUSH1 0x40 MLOAD PUSH3 0x461BCD PUSH1 0xE5 SHL DUP2 MSTORE PUSH1 0x4 ADD PUSH2 0x3FA SWAP1 PUSH2 0xAB0 JUMP JUMPDEST PUSH2 0x3A4 DUP2 PUSH2 0x55E JUMP JUMPDEST PUSH1 0x1 PUSH1 0x1 PUSH1 0xA0 SHL SUB DUP4 AND PUSH2 0x4A6 JUMPI PUSH1 0x40 MLOAD PUSH3 0x461BCD PUSH1 0xE5 SHL DUP2 MSTORE PUSH1 0x4 ADD PUSH2 0x3FA SWAP1 PUSH2 0xB01 JUMP JUMPDEST PUSH1 0x1 PUSH1 0x1 PUSH1 0xA0 SHL SUB DUP3 AND PUSH2 0x4CC JUMPI PUSH1 0x40 MLOAD PUSH3 0x461BCD PUSH1 0xE5 SHL DUP2 MSTORE PUSH1 0x4 ADD PUSH2 0x3FA SWAP1 PUSH2 0xB50 JUMP JUMPDEST PUSH1 0x1 PUSH1 0x1 PUSH1 0xA0 SHL SUB DUP1 DUP5 AND PUSH1 0x0 DUP2 DUP2 MSTORE PUSH1 0x1 PUSH1 0x20 SWAP1 DUP2 MSTORE PUSH1 0x40 DUP1 DUP4 KECCAK256 SWAP5 DUP8 AND DUP1 DUP5 MSTORE SWAP5 SWAP1 SWAP2 MSTORE SWAP1 DUP2 SWAP1 KECCAK256 DUP5 SWAP1 SSTORE MLOAD PUSH32 0x8C5BE1E5EBEC7D5BD14F71427D1E84F3DD0314C0F7B2291E5B200AC8C7C3B925 SWAP1 PUSH2 0x527 SWAP1 DUP6 SWAP1 PUSH2 0x8B3 JUMP JUMPDEST PUSH1 0x40 MLOAD DUP1 SWAP2 SUB SWAP1 LOG3 POP POP POP JUMP JUMPDEST PUSH1 0x5 SLOAD PUSH1 0x1 PUSH1 0x1 PUSH1 0xA0 SHL SUB AND CALLER EQ PUSH2 0x3B9 JUMPI PUSH1 0x40 MLOAD PUSH3 0x461BCD PUSH1 0xE5 SHL DUP2 MSTORE PUSH1 0x4 ADD PUSH2 0x3FA SWAP1 PUSH2 0xB95 JUMP JUMPDEST PUSH1 0x5 DUP1 SLOAD PUSH1 0x1 PUSH1 0x1 PUSH1 0xA0 SHL SUB DUP4 DUP2 AND PUSH1 0x1 PUSH1 0x1 PUSH1 0xA0 SHL SUB NOT DUP4 AND DUP2 OR SWAP1 SWAP4 SSTORE PUSH1 0x40 MLOAD SWAP2 AND SWAP2 SWAP1 DUP3 SWAP1 PUSH32 0x8BE0079C531659141344CD1FD0A4F28419497F9722A3DAAFE3B4186F6B6457E0 SWAP1 PUSH1 0x0 SWAP1 LOG3 POP POP JUMP JUMPDEST PUSH1 0x0 PUSH2 0x5BC DUP5 DUP5 PUSH2 0x41E JUMP JUMPDEST SWAP1 POP PUSH1 0x0 NOT DUP2 EQ PUSH2 0x5F4 JUMPI DUP2 DUP2 LT ISZERO PUSH2 0x5E7 JUMPI PUSH1 0x40 MLOAD PUSH3 0x461BCD PUSH1 0xE5 SHL DUP2 MSTORE PUSH1 0x4 ADD PUSH2 0x3FA SWAP1 PUSH2 0xBD9 JUMP JUMPDEST PUSH2 0x5F4 DUP5 DUP5 DUP5 DUP5 SUB PUSH2 0x480 JUMP JUMPDEST POP POP POP POP JUMP JUMPDEST PUSH1 0x1 PUSH1 0x1 PUSH1 0xA0 SHL SUB DUP4 AND PUSH2 0x620 JUMPI PUSH1 0x40 MLOAD PUSH3 0x461BCD PUSH1 0xE5 SHL DUP2 MSTORE PUSH1 0x4 ADD PUSH2 0x3FA SWAP1 PUSH2 0xC2B JUMP JUMPDEST PUSH1 0x1 PUSH1 0x1 PUSH1 0xA0 SHL SUB DUP3 AND PUSH2 0x646 JUMPI PUSH1 0x40 MLOAD PUSH3 0x461BCD PUSH1 0xE5 SHL DUP2 MSTORE PUSH1 0x4 ADD PUSH2 0x3FA SWAP1 PUSH2 0xC7B JUMP JUMPDEST PUSH1 0x1 PUSH1 0x1 PUSH1 0xA0 SHL SUB DUP4 AND PUSH1 0x0 SWAP1 DUP2 MSTORE PUSH1 0x20 DUP2 SWAP1 MSTORE PUSH1 0x40 SWAP1 KECCAK256 SLOAD DUP2 DUP2 LT ISZERO PUSH2 0x67F JUMPI PUSH1 0x40 MLOAD PUSH3 0x461BCD PUSH1 0xE5 SHL DUP2 MSTORE PUSH1 0x4 ADD PUSH2 0x3FA SWAP1 PUSH2 0xCCE JUMP JUMPDEST PUSH1 0x1 PUSH1 0x1 PUSH1 0xA0 SHL SUB DUP1 DUP6 AND PUSH1 0x0 DUP2 DUP2 MSTORE PUSH1 0x20 DUP2 SWAP1 MSTORE PUSH1 0x40 DUP1 DUP3 KECCAK256 DUP7 DUP7 SUB SWAP1 SSTORE SWAP3 DUP7 AND DUP1 DUP3 MSTORE SWAP1 DUP4 SWAP1 KECCAK256 DUP1 SLOAD DUP7 ADD SWAP1 SSTORE SWAP2 MLOAD PUSH32 0xDDF252AD1BE2C89B69C2B068FC378DAA952BA7F163C4A11628F55A4DF523B3EF SWAP1 PUSH2 0x6DD SWAP1 DUP7 SWAP1 PUSH2 0x8B3 JUMP JUMPDEST PUSH1 0x40 MLOAD DUP1 SWAP2 SUB SWAP1 LOG3 PUSH2 0x5F4 JUMP JUMPDEST PUSH1 0x1 PUSH1 0x1 PUSH1 0xA0 SHL SUB DUP3 AND PUSH2 0x710 JUMPI PUSH1 0x40 MLOAD PUSH3 0x461BCD PUSH1 0xE5 SHL DUP2 MSTORE PUSH1 0x4 ADD PUSH2 0x3FA SWAP1 PUSH2 0xD12 JUMP JUMPDEST DUP1 PUSH1 0x2 PUSH1 0x0 DUP3 DUP3 SLOAD PUSH2 0x722 SWAP2 SWAP1 PUSH2 0xA05 JUMP JUMPDEST SWAP1 SWAP2 SSTORE POP POP PUSH1 0x1 PUSH1 0x1 PUSH1 0xA0 SHL SUB DUP3 AND PUSH1 0x0 DUP2 DUP2 MSTORE PUSH1 0x20 DUP2 SWAP1 MSTORE PUSH1 0x40 DUP1 DUP3 KECCAK256 DUP1 SLOAD DUP6 ADD SWAP1 SSTORE MLOAD PUSH32 0xDDF252AD1BE2C89B69C2B068FC378DAA952BA7F163C4A11628F55A4DF523B3EF SWAP1 PUSH2 0x774 SWAP1 DUP6 SWAP1 PUSH2 0x8B3 JUMP JUMPDEST PUSH1 0x40 MLOAD DUP1 SWAP2 SUB SWAP1 LOG3 POP POP JUMP JUMPDEST PUSH1 0x0 JUMPDEST DUP4 DUP2 LT ISZERO PUSH2 0x79B JUMPI DUP2 DUP2 ADD MLOAD DUP4 DUP3 ADD MSTORE PUSH1 0x20 ADD PUSH2 0x783 JUMP JUMPDEST POP POP PUSH1 0x0 SWAP2 ADD MSTORE JUMP JUMPDEST PUSH1 0x0 PUSH2 0x7AE DUP3 MLOAD SWAP1 JUMP JUMPDEST DUP1 DUP5 MSTORE PUSH1 0x20 DUP5 ADD SWAP4 POP PUSH2 0x7C5 DUP2 DUP6 PUSH1 0x20 DUP7 ADD PUSH2 0x780 JUMP JUMPDEST PUSH1 0x1F ADD PUSH1 0x1F NOT AND SWAP3 SWAP1 SWAP3 ADD SWAP3 SWAP2 POP POP JUMP JUMPDEST PUSH1 0x20 DUP1 DUP3 MSTORE DUP2 ADD PUSH2 0x7E7 DUP2 DUP5 PUSH2 0x7A4 JUMP JUMPDEST SWAP4 SWAP3 POP POP POP JUMP JUMPDEST PUSH1 0x0 PUSH1 0x1 PUSH1 0x1 PUSH1 0xA0 SHL SUB DUP3 AND PUSH2 0x2F5 JUMP JUMPDEST PUSH2 0x808 DUP2 PUSH2 0x7EE JUMP JUMPDEST DUP2 EQ PUSH2 0x3A4 JUMPI PUSH1 0x0 DUP1 REVERT JUMPDEST DUP1 CALLDATALOAD PUSH2 0x2F5 DUP2 PUSH2 0x7FF JUMP JUMPDEST DUP1 PUSH2 0x808 JUMP JUMPDEST DUP1 CALLDATALOAD PUSH2 0x2F5 DUP2 PUSH2 0x81E JUMP JUMPDEST PUSH1 0x0 DUP1 PUSH1 0x40 DUP4 DUP6 SUB SLT ISZERO PUSH2 0x845 JUMPI PUSH2 0x845 PUSH1 0x0 DUP1 REVERT JUMPDEST PUSH1 0x0 PUSH2 0x851 DUP6 DUP6 PUSH2 0x813 JUMP JUMPDEST SWAP3 POP POP PUSH1 0x20 PUSH2 0x862 DUP6 DUP3 DUP7 ADD PUSH2 0x824 JUMP JUMPDEST SWAP2 POP POP SWAP3 POP SWAP3 SWAP1 POP JUMP JUMPDEST DUP1 ISZERO ISZERO JUMPDEST DUP3 MSTORE POP POP JUMP JUMPDEST PUSH1 0x20 DUP2 ADD PUSH2 0x2F5 DUP3 DUP5 PUSH2 0x86C JUMP JUMPDEST PUSH1 0x0 PUSH1 0x20 DUP3 DUP5 SUB SLT ISZERO PUSH2 0x899 JUMPI PUSH2 0x899 PUSH1 0x0 DUP1 REVERT JUMPDEST PUSH1 0x0 PUSH2 0x8A5 DUP5 DUP5 PUSH2 0x813 JUMP JUMPDEST SWAP5 SWAP4 POP POP POP POP JUMP JUMPDEST DUP1 PUSH2 0x870 JUMP JUMPDEST PUSH1 0x20 DUP2 ADD PUSH2 0x2F5 DUP3 DUP5 PUSH2 0x8AD JUMP JUMPDEST PUSH1 0x0 DUP1 PUSH1 0x0 PUSH1 0x60 DUP5 DUP7 SUB SLT ISZERO PUSH2 0x8D9 JUMPI PUSH2 0x8D9 PUSH1 0x0 DUP1 REVERT JUMPDEST PUSH1 0x0 PUSH2 0x8E5 DUP7 DUP7 PUSH2 0x813 JUMP JUMPDEST SWAP4 POP POP PUSH1 0x20 PUSH2 0x8F6 DUP7 DUP3 DUP8 ADD PUSH2 0x813 JUMP JUMPDEST SWAP3 POP POP PUSH1 0x40 PUSH2 0x907 DUP7 DUP3 DUP8 ADD PUSH2 0x824 JUMP JUMPDEST SWAP2 POP POP SWAP3 POP SWAP3 POP SWAP3 JUMP JUMPDEST PUSH1 0xFF DUP2 AND PUSH2 0x870 JUMP JUMPDEST PUSH1 0x20 DUP2 ADD PUSH2 0x2F5 DUP3 DUP5 PUSH2 0x911 JUMP JUMPDEST PUSH1 0x1 PUSH1 0x1 PUSH1 0x80 SHL SUB DUP2 AND PUSH2 0x808 JUMP JUMPDEST DUP1 CALLDATALOAD PUSH2 0x2F5 DUP2 PUSH2 0x928 JUMP JUMPDEST PUSH1 0x0 PUSH1 0x20 DUP3 DUP5 SUB SLT ISZERO PUSH2 0x957 JUMPI PUSH2 0x957 PUSH1 0x0 DUP1 REVERT JUMPDEST PUSH1 0x0 PUSH2 0x8A5 DUP5 DUP5 PUSH2 0x937 JUMP JUMPDEST PUSH2 0x870 DUP2 PUSH2 0x7EE JUMP JUMPDEST PUSH1 0x20 DUP2 ADD PUSH2 0x2F5 DUP3 DUP5 PUSH2 0x963 JUMP JUMPDEST PUSH1 0x0 DUP1 PUSH1 0x40 DUP4 DUP6 SUB SLT ISZERO PUSH2 0x990 JUMPI PUSH2 0x990 PUSH1 0x0 DUP1 REVERT JUMPDEST PUSH1 0x0 PUSH2 0x99C DUP6 DUP6 PUSH2 0x813 JUMP JUMPDEST SWAP3 POP POP PUSH1 0x20 PUSH2 0x862 DUP6 DUP3 DUP7 ADD PUSH2 0x813 JUMP JUMPDEST PUSH4 0x4E487B71 PUSH1 0xE0 SHL PUSH1 0x0 MSTORE PUSH1 0x22 PUSH1 0x4 MSTORE PUSH1 0x24 PUSH1 0x0 REVERT JUMPDEST PUSH1 0x2 DUP2 DIV PUSH1 0x1 DUP3 AND DUP1 PUSH2 0x9D7 JUMPI PUSH1 0x7F DUP3 AND SWAP2 POP JUMPDEST PUSH1 0x20 DUP3 LT DUP2 SUB PUSH2 0x9E9 JUMPI PUSH2 0x9E9 PUSH2 0x9AD JUMP JUMPDEST POP SWAP2 SWAP1 POP JUMP JUMPDEST PUSH4 0x4E487B71 PUSH1 0xE0 SHL PUSH1 0x0 MSTORE PUSH1 0x11 PUSH1 0x4 MSTORE PUSH1 0x24 PUSH1 0x0 REVERT JUMPDEST DUP1 DUP3 ADD DUP1 DUP3 GT ISZERO PUSH2 0x2F5 JUMPI PUSH2 0x2F5 PUSH2 0x9EF JUMP JUMPDEST PUSH1 0x25 DUP2 MSTORE PUSH1 0x0 PUSH1 0x20 DUP3 ADD PUSH32 0x45524332303A2064656372656173656420616C6C6F77616E63652062656C6F77 DUP2 MSTORE PUSH5 0x207A65726F PUSH1 0xD8 SHL PUSH1 0x20 DUP3 ADD MSTORE SWAP2 POP JUMPDEST POP PUSH1 0x40 ADD SWAP1 JUMP JUMPDEST PUSH1 0x20 DUP1 DUP3 MSTORE DUP2 ADD PUSH2 0x2F5 DUP2 PUSH2 0xA18 JUMP JUMPDEST PUSH1 0x26 DUP2 MSTORE PUSH1 0x0 PUSH1 0x20 DUP3 ADD PUSH32 0x4F776E61626C653A206E6577206F776E657220697320746865207A65726F2061 DUP2 MSTORE PUSH6 0x646472657373 PUSH1 0xD0 SHL PUSH1 0x20 DUP3 ADD MSTORE SWAP2 POP PUSH2 0xA56 JUMP JUMPDEST PUSH1 0x20 DUP1 DUP3 MSTORE DUP2 ADD PUSH2 0x2F5 DUP2 PUSH2 0xA6D JUMP JUMPDEST PUSH1 0x24 DUP2 MSTORE PUSH1 0x0 PUSH1 0x20 DUP3 ADD PUSH32 0x45524332303A20617070726F76652066726F6D20746865207A65726F20616464 DUP2 MSTORE PUSH4 0x72657373 PUSH1 0xE0 SHL PUSH1 0x20 DUP3 ADD MSTORE SWAP2 POP PUSH2 0xA56 JUMP JUMPDEST PUSH1 0x20 DUP1 DUP3 MSTORE DUP2 ADD PUSH2 0x2F5 DUP2 PUSH2 0xAC0 JUMP JUMPDEST PUSH1 0x22 DUP2 MSTORE PUSH1 0x0 PUSH1 0x20 DUP3 ADD PUSH32 0x45524332303A20617070726F766520746F20746865207A65726F206164647265 DUP2 MSTORE PUSH2 0x7373 PUSH1 0xF0 SHL PUSH1 0x20 DUP3 ADD MSTORE SWAP2 POP PUSH2 0xA56 JUMP JUMPDEST PUSH1 0x20 DUP1 DUP3 MSTORE DUP2 ADD PUSH2 0x2F5 DUP2 PUSH2 0xB11 JUMP JUMPDEST PUSH1 0x20 DUP1 DUP3 MSTORE PUSH32 0x4F776E61626C653A2063616C6C6572206973206E6F7420746865206F776E6572 SWAP2 ADD SWAP1 DUP2 MSTORE PUSH1 0x0 JUMPDEST POP PUSH1 0x20 ADD SWAP1 JUMP JUMPDEST PUSH1 0x20 DUP1 DUP3 MSTORE DUP2 ADD PUSH2 0x2F5 DUP2 PUSH2 0xB60 JUMP JUMPDEST PUSH1 0x1D DUP2 MSTORE PUSH1 0x0 PUSH1 0x20 DUP3 ADD PUSH32 0x45524332303A20696E73756666696369656E7420616C6C6F77616E6365000000 DUP2 MSTORE SWAP2 POP PUSH2 0xB8E JUMP JUMPDEST PUSH1 0x20 DUP1 DUP3 MSTORE DUP2 ADD PUSH2 0x2F5 DUP2 PUSH2 0xBA5 JUMP JUMPDEST PUSH1 0x25 DUP2 MSTORE PUSH1 0x0 PUSH1 0x20 DUP3 ADD PUSH32 0x45524332303A207472616E736665722066726F6D20746865207A65726F206164 DUP2 MSTORE PUSH5 0x6472657373 PUSH1 0xD8 SHL PUSH1 0x20 DUP3 ADD MSTORE SWAP2 POP PUSH2 0xA56 JUMP JUMPDEST PUSH1 0x20 DUP1 DUP3 MSTORE DUP2 ADD PUSH2 0x2F5 DUP2 PUSH2 0xBE9 JUMP JUMPDEST PUSH1 0x23 DUP2 MSTORE PUSH1 0x0 PUSH1 0x20 DUP3 ADD PUSH32 0x45524332303A207472616E7366657220746F20746865207A65726F2061646472 DUP2 MSTORE PUSH3 0x657373 PUSH1 0xE8 SHL PUSH1 0x20 DUP3 ADD MSTORE SWAP2 POP PUSH2 0xA56 JUMP JUMPDEST PUSH1 0x20 DUP1 DUP3 MSTORE DUP2 ADD PUSH2 0x2F5 DUP2 PUSH2 0xC3B JUMP JUMPDEST PUSH1 0x26 DUP2 MSTORE PUSH1 0x0 PUSH1 0x20 DUP3 ADD PUSH32 0x45524332303A207472616E7366657220616D6F756E7420657863656564732062 DUP2 MSTORE PUSH6 0x616C616E6365 PUSH1 0xD0 SHL PUSH1 0x20 DUP3 ADD MSTORE SWAP2 POP PUSH2 0xA56 JUMP JUMPDEST PUSH1 0x20 DUP1 DUP3 MSTORE DUP2 ADD PUSH2 0x2F5 DUP2 PUSH2 0xC8B JUMP JUMPDEST PUSH1 0x1F DUP2 MSTORE PUSH1 0x0 PUSH1 0x20 DUP3 ADD PUSH32 0x45524332303A206D696E7420746F20746865207A65726F206164647265737300 DUP2 MSTORE SWAP2 POP PUSH2 0xB8E JUMP JUMPDEST PUSH1 0x20 DUP1 DUP3 MSTORE DUP2 ADD PUSH2 0x2F5 DUP2 PUSH2 0xCDE JUMP INVALID LOG2 PUSH5 0x6970667358 0x22 SLT KECCAK256 DUP16 SWAP8 0xB6 DUP6 0x4B SWAP10 0xC8 SWAP2 LT PUSH6 0xE5A90165B535 0x21 0xD3 COINBASE INVALID 0xDF GASLIMIT SAR 0xAA JUMPDEST 0x2E SHR 0xAF GAS PUSH5 0xB9FA64736F PUSH13 0x63430008110033000000000000 "},"methodIdentifiers":{"allowance(address,address)":"dd62ed3e","approve(address,uint256)":"095ea7b3","balanceOf(address)":"70a08231","decimals()":"313ce567","decreaseAllowance(address,uint256)":"a457c2d7","increaseAllowance(address,uint256)":"39509351","mint(uint128)":"69d3e20e","name()":"06fdde03","owner()":"8da5cb5b","renounceOwnership()":"715018a6","setOwner(address)":"13af4035","symbol()":"95d89b41","totalSupply()":"18160ddd","transfer(address,uint256)":"a9059cbb","transferFrom(address,address,uint256)":"23b872dd","transferOwnership(address)":"f2fde38b"}},"storageLayout":{"storage":[{"astId":1352,"contract":"contracts/test/Token20.sol:Token20","label":"_balances","offset":0,"slot":"0","type":"t_mapping(t_address,t_uint256)"},{"astId":1358,"contract":"contracts/test/Token20.sol:Token20","label":"_allowances","offset":0,"slot":"1","type":"t_mapping(t_address,t_mapping(t_address,t_uint256))"},{"astId":1360,"contract":"contracts/test/Token20.sol:Token20","label":"_totalSupply","offset":0,"slot":"2","type":"t_uint256"},{"astId":1362,"contract":"contracts/test/Token20.sol:Token20","label":"_name","offset":0,"slot":"3","type":"t_string_storage"},{"astId":1364,"contract":"contracts/test/Token20.sol:Token20","label":"_symbol","offset":0,"slot":"4","type":"t_string_storage"},{"astId":1219,"contract":"contracts/test/Token20.sol:Token20","label":"_owner","offset":0,"slot":"5","type":"t_address"}],"types":{"t_address":{"encoding":"inplace","label":"address","numberOfBytes":"20"},"t_mapping(t_address,t_mapping(t_address,t_uint256))":{"encoding":"mapping","key":"t_address","label":"mapping(address => mapping(address => uint256))","numberOfBytes":"32","value":"t_mapping(t_address,t_uint256)"},"t_mapping(t_address,t_uint256)":{"encoding":"mapping","key":"t_address","label":"mapping(address => uint256)","numberOfBytes":"32","value":"t_uint256"},"t_string_storage":{"encoding":"bytes","label":"string","numberOfBytes":"32"},"t_uint256":{"encoding":"inplace","label":"uint256","numberOfBytes":"32"}}}}}}