{
  "_format": "hh-sol-artifact-1",
  "contractName": "AVNBridge",
  "sourceName": "contracts/AVNBridge.sol",
  "abi": [
    {
      "inputs": [
        {
          "internalType": "address",
          "name": "t1Address",
          "type": "address"
        }
      ],
      "name": "AddressAlreadyInUse",
      "type": "error"
    },
    {
      "inputs": [
        {
          "internalType": "address",
          "name": "t1Address",
          "type": "address"
        },
        {
          "internalType": "bytes",
          "name": "t1PublicKey",
          "type": "bytes"
        }
      ],
      "name": "AddressMismatch",
      "type": "error"
    },
    {
      "inputs": [],
      "name": "AmountCannotBeZero",
      "type": "error"
    },
    {
      "inputs": [
        {
          "internalType": "bytes32",
          "name": "existingT2PublicKey",
          "type": "bytes32"
        }
      ],
      "name": "CannotChangeT2PublicKey",
      "type": "error"
    },
    {
      "inputs": [],
      "name": "CannotReceiveETHUnlessLifting",
      "type": "error"
    },
    {
      "inputs": [],
      "name": "CoreMintFailed",
      "type": "error"
    },
    {
      "inputs": [],
      "name": "ERC20LiftingOnly",
      "type": "error"
    },
    {
      "inputs": [],
      "name": "GrowthPeriodAlreadyUsed",
      "type": "error"
    },
    {
      "inputs": [],
      "name": "GrowthUnavailableForPeriod",
      "type": "error"
    },
    {
      "inputs": [],
      "name": "InvalidConfirmations",
      "type": "error"
    },
    {
      "inputs": [],
      "name": "InvalidERC777Token",
      "type": "error"
    },
    {
      "inputs": [],
      "name": "InvalidLowerData",
      "type": "error"
    },
    {
      "inputs": [],
      "name": "InvalidQuorum",
      "type": "error"
    },
    {
      "inputs": [],
      "name": "InvalidT1PublicKey",
      "type": "error"
    },
    {
      "inputs": [],
      "name": "InvalidT2PublicKey",
      "type": "error"
    },
    {
      "inputs": [],
      "name": "LiftLimitExceeded",
      "type": "error"
    },
    {
      "inputs": [],
      "name": "LiftingIsDisabled",
      "type": "error"
    },
    {
      "inputs": [],
      "name": "LowerAlreadyUsed",
      "type": "error"
    },
    {
      "inputs": [],
      "name": "LoweringIsDisabled",
      "type": "error"
    },
    {
      "inputs": [],
      "name": "MissingValidatorKeys",
      "type": "error"
    },
    {
      "inputs": [],
      "name": "NoCoreTokenSupplied",
      "type": "error"
    },
    {
      "inputs": [],
      "name": "NotALowerTransaction",
      "type": "error"
    },
    {
      "inputs": [],
      "name": "OwnerOnly",
      "type": "error"
    },
    {
      "inputs": [],
      "name": "PaymentFailed",
      "type": "error"
    },
    {
      "inputs": [
        {
          "internalType": "uint256",
          "name": "releaseTime",
          "type": "uint256"
        }
      ],
      "name": "ReleaseTimeNotPassed",
      "type": "error"
    },
    {
      "inputs": [],
      "name": "RootHashAlreadyPublished",
      "type": "error"
    },
    {
      "inputs": [],
      "name": "SetCoreOwnerFailed",
      "type": "error"
    },
    {
      "inputs": [
        {
          "internalType": "bytes32",
          "name": "t2PublicKey",
          "type": "bytes32"
        }
      ],
      "name": "T2PublicKeyAlreadyInUse",
      "type": "error"
    },
    {
      "inputs": [],
      "name": "TokensMustBeSentToThisAddress",
      "type": "error"
    },
    {
      "inputs": [],
      "name": "TransactionIdAlreadyUsed",
      "type": "error"
    },
    {
      "inputs": [],
      "name": "UnsignedTransaction",
      "type": "error"
    },
    {
      "inputs": [],
      "name": "ValidatorAlreadyRegistered",
      "type": "error"
    },
    {
      "inputs": [],
      "name": "ValidatorFunctionsAreDisabled",
      "type": "error"
    },
    {
      "inputs": [],
      "name": "ValidatorNotRegistered",
      "type": "error"
    },
    {
      "anonymous": false,
      "inputs": [
        {
          "indexed": false,
          "internalType": "address",
          "name": "previousAdmin",
          "type": "address"
        },
        {
          "indexed": false,
          "internalType": "address",
          "name": "newAdmin",
          "type": "address"
        }
      ],
      "name": "AdminChanged",
      "type": "event"
    },
    {
      "anonymous": false,
      "inputs": [
        {
          "indexed": true,
          "internalType": "address",
          "name": "beacon",
          "type": "address"
        }
      ],
      "name": "BeaconUpgraded",
      "type": "event"
    },
    {
      "anonymous": false,
      "inputs": [
        {
          "indexed": false,
          "internalType": "uint8",
          "name": "version",
          "type": "uint8"
        }
      ],
      "name": "Initialized",
      "type": "event"
    },
    {
      "anonymous": false,
      "inputs": [
        {
          "indexed": true,
          "internalType": "uint256",
          "name": "amount",
          "type": "uint256"
        },
        {
          "indexed": true,
          "internalType": "uint32",
          "name": "period",
          "type": "uint32"
        }
      ],
      "name": "LogGrowth",
      "type": "event"
    },
    {
      "anonymous": false,
      "inputs": [
        {
          "indexed": false,
          "internalType": "uint256",
          "name": "oldDelaySeconds",
          "type": "uint256"
        },
        {
          "indexed": false,
          "internalType": "uint256",
          "name": "newDelaySeconds",
          "type": "uint256"
        }
      ],
      "name": "LogGrowthDelayUpdated",
      "type": "event"
    },
    {
      "anonymous": false,
      "inputs": [
        {
          "indexed": false,
          "internalType": "uint32",
          "name": "period",
          "type": "uint32"
        }
      ],
      "name": "LogGrowthDenied",
      "type": "event"
    },
    {
      "anonymous": false,
      "inputs": [
        {
          "indexed": true,
          "internalType": "uint256",
          "name": "amount",
          "type": "uint256"
        },
        {
          "indexed": true,
          "internalType": "uint32",
          "name": "period",
          "type": "uint32"
        },
        {
          "indexed": true,
          "internalType": "uint256",
          "name": "releaseTime",
          "type": "uint256"
        }
      ],
      "name": "LogGrowthTriggered",
      "type": "event"
    },
    {
      "anonymous": false,
      "inputs": [
        {
          "indexed": true,
          "internalType": "address",
          "name": "token",
          "type": "address"
        },
        {
          "indexed": true,
          "internalType": "address",
          "name": "t1Address",
          "type": "address"
        },
        {
          "indexed": true,
          "internalType": "bytes32",
          "name": "t2PublicKey",
          "type": "bytes32"
        },
        {
          "indexed": false,
          "internalType": "uint256",
          "name": "amount",
          "type": "uint256"
        }
      ],
      "name": "LogLifted",
      "type": "event"
    },
    {
      "anonymous": false,
      "inputs": [
        {
          "indexed": false,
          "internalType": "bool",
          "name": "state",
          "type": "bool"
        }
      ],
      "name": "LogLiftingIsEnabled",
      "type": "event"
    },
    {
      "anonymous": false,
      "inputs": [
        {
          "indexed": false,
          "internalType": "bytes2",
          "name": "callId",
          "type": "bytes2"
        },
        {
          "indexed": false,
          "internalType": "uint256",
          "name": "numBytes",
          "type": "uint256"
        }
      ],
      "name": "LogLowerCallUpdated",
      "type": "event"
    },
    {
      "anonymous": false,
      "inputs": [
        {
          "indexed": true,
          "internalType": "address",
          "name": "token",
          "type": "address"
        },
        {
          "indexed": true,
          "internalType": "address",
          "name": "t1Address",
          "type": "address"
        },
        {
          "indexed": true,
          "internalType": "bytes32",
          "name": "t2PublicKey",
          "type": "bytes32"
        },
        {
          "indexed": false,
          "internalType": "uint256",
          "name": "amount",
          "type": "uint256"
        }
      ],
      "name": "LogLowered",
      "type": "event"
    },
    {
      "anonymous": false,
      "inputs": [
        {
          "indexed": false,
          "internalType": "bool",
          "name": "state",
          "type": "bool"
        }
      ],
      "name": "LogLoweringIsEnabled",
      "type": "event"
    },
    {
      "anonymous": false,
      "inputs": [
        {
          "indexed": false,
          "internalType": "uint256[2]",
          "name": "quorum",
          "type": "uint256[2]"
        }
      ],
      "name": "LogQuorumUpdated",
      "type": "event"
    },
    {
      "anonymous": false,
      "inputs": [
        {
          "indexed": true,
          "internalType": "bytes32",
          "name": "rootHash",
          "type": "bytes32"
        },
        {
          "indexed": true,
          "internalType": "uint256",
          "name": "t2TransactionId",
          "type": "uint256"
        }
      ],
      "name": "LogRootPublished",
      "type": "event"
    },
    {
      "anonymous": false,
      "inputs": [
        {
          "indexed": true,
          "internalType": "bytes32",
          "name": "t1PublicKeyLHS",
          "type": "bytes32"
        },
        {
          "indexed": false,
          "internalType": "bytes32",
          "name": "t1PublicKeyRHS",
          "type": "bytes32"
        },
        {
          "indexed": true,
          "internalType": "bytes32",
          "name": "t2PublicKey",
          "type": "bytes32"
        },
        {
          "indexed": true,
          "internalType": "uint256",
          "name": "t2TransactionId",
          "type": "uint256"
        }
      ],
      "name": "LogValidatorDeregistered",
      "type": "event"
    },
    {
      "anonymous": false,
      "inputs": [
        {
          "indexed": false,
          "internalType": "bool",
          "name": "state",
          "type": "bool"
        }
      ],
      "name": "LogValidatorFunctionsAreEnabled",
      "type": "event"
    },
    {
      "anonymous": false,
      "inputs": [
        {
          "indexed": true,
          "internalType": "bytes32",
          "name": "t1PublicKeyLHS",
          "type": "bytes32"
        },
        {
          "indexed": false,
          "internalType": "bytes32",
          "name": "t1PublicKeyRHS",
          "type": "bytes32"
        },
        {
          "indexed": true,
          "internalType": "bytes32",
          "name": "t2PublicKey",
          "type": "bytes32"
        },
        {
          "indexed": true,
          "internalType": "uint256",
          "name": "t2TransactionId",
          "type": "uint256"
        }
      ],
      "name": "LogValidatorRegistered",
      "type": "event"
    },
    {
      "anonymous": false,
      "inputs": [
        {
          "indexed": true,
          "internalType": "address",
          "name": "previousOwner",
          "type": "address"
        },
        {
          "indexed": true,
          "internalType": "address",
          "name": "newOwner",
          "type": "address"
        }
      ],
      "name": "OwnershipTransferred",
      "type": "event"
    },
    {
      "anonymous": false,
      "inputs": [
        {
          "indexed": true,
          "internalType": "address",
          "name": "implementation",
          "type": "address"
        }
      ],
      "name": "Upgraded",
      "type": "event"
    },
    {
      "inputs": [
        {
          "internalType": "bytes32",
          "name": "leafHash",
          "type": "bytes32"
        },
        {
          "internalType": "bytes32[]",
          "name": "merklePath",
          "type": "bytes32[]"
        }
      ],
      "name": "confirmAvnTransaction",
      "outputs": [
        {
          "internalType": "bool",
          "name": "",
          "type": "bool"
        }
      ],
      "stateMutability": "view",
      "type": "function"
    },
    {
      "inputs": [],
      "name": "coreToken",
      "outputs": [
        {
          "internalType": "address",
          "name": "",
          "type": "address"
        }
      ],
      "stateMutability": "view",
      "type": "function"
    },
    {
      "inputs": [
        {
          "internalType": "uint32",
          "name": "period",
          "type": "uint32"
        }
      ],
      "name": "denyGrowth",
      "outputs": [],
      "stateMutability": "nonpayable",
      "type": "function"
    },
    {
      "inputs": [
        {
          "internalType": "bytes",
          "name": "t1PublicKey",
          "type": "bytes"
        },
        {
          "internalType": "bytes32",
          "name": "t2PublicKey",
          "type": "bytes32"
        },
        {
          "internalType": "uint256",
          "name": "t2TransactionId",
          "type": "uint256"
        },
        {
          "internalType": "bytes",
          "name": "confirmations",
          "type": "bytes"
        }
      ],
      "name": "deregisterValidator",
      "outputs": [],
      "stateMutability": "nonpayable",
      "type": "function"
    },
    {
      "inputs": [
        {
          "internalType": "uint32",
          "name": "",
          "type": "uint32"
        }
      ],
      "name": "growthAmount",
      "outputs": [
        {
          "internalType": "uint128",
          "name": "",
          "type": "uint128"
        }
      ],
      "stateMutability": "view",
      "type": "function"
    },
    {
      "inputs": [],
      "name": "growthDelay",
      "outputs": [
        {
          "internalType": "uint256",
          "name": "",
          "type": "uint256"
        }
      ],
      "stateMutability": "view",
      "type": "function"
    },
    {
      "inputs": [
        {
          "internalType": "uint32",
          "name": "",
          "type": "uint32"
        }
      ],
      "name": "growthRelease",
      "outputs": [
        {
          "internalType": "uint256",
          "name": "",
          "type": "uint256"
        }
      ],
      "stateMutability": "view",
      "type": "function"
    },
    {
      "inputs": [
        {
          "internalType": "bytes32",
          "name": "",
          "type": "bytes32"
        }
      ],
      "name": "hasLowered",
      "outputs": [
        {
          "internalType": "bool",
          "name": "",
          "type": "bool"
        }
      ],
      "stateMutability": "view",
      "type": "function"
    },
    {
      "inputs": [
        {
          "internalType": "uint256",
          "name": "",
          "type": "uint256"
        }
      ],
      "name": "idToT1Address",
      "outputs": [
        {
          "internalType": "address",
          "name": "",
          "type": "address"
        }
      ],
      "stateMutability": "view",
      "type": "function"
    },
    {
      "inputs": [
        {
          "internalType": "uint256",
          "name": "",
          "type": "uint256"
        }
      ],
      "name": "idToT2PublicKey",
      "outputs": [
        {
          "internalType": "bytes32",
          "name": "",
          "type": "bytes32"
        }
      ],
      "stateMutability": "view",
      "type": "function"
    },
    {
      "inputs": [
        {
          "internalType": "address",
          "name": "_coreToken",
          "type": "address"
        },
        {
          "internalType": "address",
          "name": "_priorInstance",
          "type": "address"
        }
      ],
      "name": "initialize",
      "outputs": [],
      "stateMutability": "nonpayable",
      "type": "function"
    },
    {
      "inputs": [
        {
          "internalType": "uint256",
          "name": "",
          "type": "uint256"
        }
      ],
      "name": "isActiveValidator",
      "outputs": [
        {
          "internalType": "bool",
          "name": "",
          "type": "bool"
        }
      ],
      "stateMutability": "view",
      "type": "function"
    },
    {
      "inputs": [
        {
          "internalType": "bytes32",
          "name": "",
          "type": "bytes32"
        }
      ],
      "name": "isPublishedRootHash",
      "outputs": [
        {
          "internalType": "bool",
          "name": "",
          "type": "bool"
        }
      ],
      "stateMutability": "view",
      "type": "function"
    },
    {
      "inputs": [
        {
          "internalType": "uint256",
          "name": "",
          "type": "uint256"
        }
      ],
      "name": "isRegisteredValidator",
      "outputs": [
        {
          "internalType": "bool",
          "name": "",
          "type": "bool"
        }
      ],
      "stateMutability": "view",
      "type": "function"
    },
    {
      "inputs": [
        {
          "internalType": "uint256",
          "name": "",
          "type": "uint256"
        }
      ],
      "name": "isUsedT2TransactionId",
      "outputs": [
        {
          "internalType": "bool",
          "name": "",
          "type": "bool"
        }
      ],
      "stateMutability": "view",
      "type": "function"
    },
    {
      "inputs": [
        {
          "internalType": "address",
          "name": "erc20Address",
          "type": "address"
        },
        {
          "internalType": "bytes",
          "name": "t2PublicKey",
          "type": "bytes"
        },
        {
          "internalType": "uint256",
          "name": "amount",
          "type": "uint256"
        }
      ],
      "name": "lift",
      "outputs": [],
      "stateMutability": "nonpayable",
      "type": "function"
    },
    {
      "inputs": [
        {
          "internalType": "bytes",
          "name": "t2PublicKey",
          "type": "bytes"
        }
      ],
      "name": "liftETH",
      "outputs": [],
      "stateMutability": "payable",
      "type": "function"
    },
    {
      "inputs": [],
      "name": "liftingIsEnabled",
      "outputs": [
        {
          "internalType": "bool",
          "name": "",
          "type": "bool"
        }
      ],
      "stateMutability": "view",
      "type": "function"
    },
    {
      "inputs": [
        {
          "internalType": "address[]",
          "name": "t1Address",
          "type": "address[]"
        },
        {
          "internalType": "bytes32[]",
          "name": "t1PublicKeyLHS",
          "type": "bytes32[]"
        },
        {
          "internalType": "bytes32[]",
          "name": "t1PublicKeyRHS",
          "type": "bytes32[]"
        },
        {
          "internalType": "bytes32[]",
          "name": "t2PublicKey",
          "type": "bytes32[]"
        }
      ],
      "name": "loadValidators",
      "outputs": [],
      "stateMutability": "nonpayable",
      "type": "function"
    },
    {
      "inputs": [
        {
          "internalType": "bytes",
          "name": "leaf",
          "type": "bytes"
        },
        {
          "internalType": "bytes32[]",
          "name": "merklePath",
          "type": "bytes32[]"
        }
      ],
      "name": "lower",
      "outputs": [],
      "stateMutability": "nonpayable",
      "type": "function"
    },
    {
      "inputs": [],
      "name": "loweringIsEnabled",
      "outputs": [
        {
          "internalType": "bool",
          "name": "",
          "type": "bool"
        }
      ],
      "stateMutability": "view",
      "type": "function"
    },
    {
      "inputs": [],
      "name": "nextValidatorId",
      "outputs": [
        {
          "internalType": "uint256",
          "name": "",
          "type": "uint256"
        }
      ],
      "stateMutability": "view",
      "type": "function"
    },
    {
      "inputs": [],
      "name": "numActiveValidators",
      "outputs": [
        {
          "internalType": "uint256",
          "name": "",
          "type": "uint256"
        }
      ],
      "stateMutability": "view",
      "type": "function"
    },
    {
      "inputs": [
        {
          "internalType": "bytes2",
          "name": "",
          "type": "bytes2"
        }
      ],
      "name": "numBytesToLowerData",
      "outputs": [
        {
          "internalType": "uint256",
          "name": "",
          "type": "uint256"
        }
      ],
      "stateMutability": "view",
      "type": "function"
    },
    {
      "inputs": [],
      "name": "owner",
      "outputs": [
        {
          "internalType": "address",
          "name": "",
          "type": "address"
        }
      ],
      "stateMutability": "view",
      "type": "function"
    },
    {
      "inputs": [],
      "name": "proxiableUUID",
      "outputs": [
        {
          "internalType": "bytes32",
          "name": "",
          "type": "bytes32"
        }
      ],
      "stateMutability": "view",
      "type": "function"
    },
    {
      "inputs": [
        {
          "internalType": "bytes32",
          "name": "rootHash",
          "type": "bytes32"
        },
        {
          "internalType": "uint256",
          "name": "t2TransactionId",
          "type": "uint256"
        },
        {
          "internalType": "bytes",
          "name": "confirmations",
          "type": "bytes"
        }
      ],
      "name": "publishRoot",
      "outputs": [],
      "stateMutability": "nonpayable",
      "type": "function"
    },
    {
      "inputs": [
        {
          "internalType": "uint256",
          "name": "",
          "type": "uint256"
        }
      ],
      "name": "quorum",
      "outputs": [
        {
          "internalType": "uint256",
          "name": "",
          "type": "uint256"
        }
      ],
      "stateMutability": "view",
      "type": "function"
    },
    {
      "inputs": [
        {
          "internalType": "bytes",
          "name": "t1PublicKey",
          "type": "bytes"
        },
        {
          "internalType": "bytes32",
          "name": "t2PublicKey",
          "type": "bytes32"
        },
        {
          "internalType": "uint256",
          "name": "t2TransactionId",
          "type": "uint256"
        },
        {
          "internalType": "bytes",
          "name": "confirmations",
          "type": "bytes"
        }
      ],
      "name": "registerValidator",
      "outputs": [],
      "stateMutability": "nonpayable",
      "type": "function"
    },
    {
      "inputs": [
        {
          "internalType": "uint32",
          "name": "period",
          "type": "uint32"
        }
      ],
      "name": "releaseGrowth",
      "outputs": [],
      "stateMutability": "nonpayable",
      "type": "function"
    },
    {
      "inputs": [],
      "name": "renounceOwnership",
      "outputs": [],
      "stateMutability": "nonpayable",
      "type": "function"
    },
    {
      "inputs": [],
      "name": "setCoreOwner",
      "outputs": [],
      "stateMutability": "nonpayable",
      "type": "function"
    },
    {
      "inputs": [
        {
          "internalType": "uint256",
          "name": "delaySeconds",
          "type": "uint256"
        }
      ],
      "name": "setGrowthDelay",
      "outputs": [],
      "stateMutability": "nonpayable",
      "type": "function"
    },
    {
      "inputs": [
        {
          "internalType": "uint256[2]",
          "name": "_quorum",
          "type": "uint256[2]"
        }
      ],
      "name": "setQuorum",
      "outputs": [],
      "stateMutability": "nonpayable",
      "type": "function"
    },
    {
      "inputs": [
        {
          "internalType": "address",
          "name": "",
          "type": "address"
        }
      ],
      "name": "t1AddressToId",
      "outputs": [
        {
          "internalType": "uint256",
          "name": "",
          "type": "uint256"
        }
      ],
      "stateMutability": "view",
      "type": "function"
    },
    {
      "inputs": [
        {
          "internalType": "bytes32",
          "name": "",
          "type": "bytes32"
        }
      ],
      "name": "t2PublicKeyToId",
      "outputs": [
        {
          "internalType": "uint256",
          "name": "",
          "type": "uint256"
        }
      ],
      "stateMutability": "view",
      "type": "function"
    },
    {
      "inputs": [
        {
          "internalType": "bool",
          "name": "state",
          "type": "bool"
        }
      ],
      "name": "toggleLifting",
      "outputs": [],
      "stateMutability": "nonpayable",
      "type": "function"
    },
    {
      "inputs": [
        {
          "internalType": "bool",
          "name": "state",
          "type": "bool"
        }
      ],
      "name": "toggleLowering",
      "outputs": [],
      "stateMutability": "nonpayable",
      "type": "function"
    },
    {
      "inputs": [
        {
          "internalType": "bool",
          "name": "state",
          "type": "bool"
        }
      ],
      "name": "toggleValidatorFunctions",
      "outputs": [],
      "stateMutability": "nonpayable",
      "type": "function"
    },
    {
      "inputs": [
        {
          "internalType": "address",
          "name": "",
          "type": "address"
        },
        {
          "internalType": "address",
          "name": "from",
          "type": "address"
        },
        {
          "internalType": "address",
          "name": "to",
          "type": "address"
        },
        {
          "internalType": "uint256",
          "name": "amount",
          "type": "uint256"
        },
        {
          "internalType": "bytes",
          "name": "data",
          "type": "bytes"
        },
        {
          "internalType": "bytes",
          "name": "",
          "type": "bytes"
        }
      ],
      "name": "tokensReceived",
      "outputs": [],
      "stateMutability": "nonpayable",
      "type": "function"
    },
    {
      "inputs": [
        {
          "internalType": "address",
          "name": "newOwner",
          "type": "address"
        }
      ],
      "name": "transferOwnership",
      "outputs": [],
      "stateMutability": "nonpayable",
      "type": "function"
    },
    {
      "inputs": [
        {
          "internalType": "uint128",
          "name": "amount",
          "type": "uint128"
        },
        {
          "internalType": "uint32",
          "name": "period",
          "type": "uint32"
        },
        {
          "internalType": "uint256",
          "name": "t2TransactionId",
          "type": "uint256"
        },
        {
          "internalType": "bytes",
          "name": "confirmations",
          "type": "bytes"
        }
      ],
      "name": "triggerGrowth",
      "outputs": [],
      "stateMutability": "nonpayable",
      "type": "function"
    },
    {
      "inputs": [
        {
          "internalType": "bytes2",
          "name": "callId",
          "type": "bytes2"
        },
        {
          "internalType": "uint256",
          "name": "numBytes",
          "type": "uint256"
        }
      ],
      "name": "updateLowerCall",
      "outputs": [],
      "stateMutability": "nonpayable",
      "type": "function"
    },
    {
      "inputs": [
        {
          "internalType": "address",
          "name": "newImplementation",
          "type": "address"
        }
      ],
      "name": "upgradeTo",
      "outputs": [],
      "stateMutability": "nonpayable",
      "type": "function"
    },
    {
      "inputs": [
        {
          "internalType": "address",
          "name": "newImplementation",
          "type": "address"
        },
        {
          "internalType": "bytes",
          "name": "data",
          "type": "bytes"
        }
      ],
      "name": "upgradeToAndCall",
      "outputs": [],
      "stateMutability": "payable",
      "type": "function"
    },
    {
      "inputs": [],
      "name": "validatorFunctionsAreEnabled",
      "outputs": [
        {
          "internalType": "bool",
          "name": "",
          "type": "bool"
        }
      ],
      "stateMutability": "view",
      "type": "function"
    },
    {
      "stateMutability": "payable",
      "type": "receive"
    }
  ],
  "bytecode": "0x60a06040523060805234801561001457600080fd5b5060805161442461004c6000396000818161176d015281816117ad01528181611d1501528181611d550152611de801526144246000f3fe60806040526004361061027f5760003560e01c80638cacd6e71161014f578063c4c4e4a9116100c1578063e51d09211161007a578063e51d092114610845578063e5342ce614610875578063e8fed1d614610895578063f2fde38b146108c2578063f7c09189146108e2578063f8ce560a146108f857600080fd5b8063c4c4e4a91461076a578063c95970e514610780578063d2d6f4d5146107a1578063d3578a94146107e4578063d4b11e2614610805578063dcfe8fb31461082557600080fd5b80639e79fe6b116101135780639e79fe6b14610698578063aee37d39146106c5578063b9b17e7f146106d8578063bf69383914610708578063c4024f0e1461071d578063c460eb071461073d57600080fd5b80638cacd6e7146105ea5780638d2dde3f1461060a5780638da5cb5b1461062a5780638f78ea1b1461064857806399010d191461067857600080fd5b80633659cfe6116101f35780634fa182ea116101ac5780634fa182ea1461053357806352d1902d146105605780635b2b285b14610575578063715018a61461059557806388665ace146105aa57806389556bef146105ca57600080fd5b80633659cfe61461046f57806346971f4f1461048f578063485cc955146104bf57806349a19ac1146104df5780634a7d9f69146104ff5780634f1ef2861461052057600080fd5b80631a621052116102455780631a621052146103825780631b4097d8146103a257806328fa2fc8146103c2578063295eb8b7146103ff5780633083f7081461043957806334c192141461045957600080fd5b806223de29146102b65780624ac6bd146102d65780630c2b72e9146102f65780630caa99481461032c57806317a691aa1461034c57600080fd5b366102b15760db546001600160a01b031633146102af576040516302a9f21b60e41b815260040160405180910390fd5b005b600080fd5b3480156102c257600080fd5b506102af6102d1366004613219565b610918565b3480156102e257600080fd5b506102af6102f136600461332b565b610bb4565b34801561030257600080fd5b5060da54610316906001600160a01b031681565b6040516103239190613405565b60405180910390f35b34801561033857600080fd5b506102af610347366004613413565b610e00565b34801561035857600080fd5b50610316610367366004613482565b60cd602052600090815260409020546001600160a01b031681565b34801561038e57600080fd5b506102af61039d3660046135a4565b611130565b3480156103ae57600080fd5b506102af6103bd3660046135d8565b6111b1565b3480156103ce57600080fd5b506103f26103dd366004613482565b60c96020526000908152604090205460ff1681565b6040516103239190613601565b34801561040b57600080fd5b5061042c61041a366004613626565b60d36020526000908152604090205481565b604051610323919061364d565b34801561044557600080fd5b506102af6104543660046136f1565b611200565b34801561046557600080fd5b5061042c60d95481565b34801561047b57600080fd5b506102af61048a366004613765565b611763565b34801561049b57600080fd5b506103f26104aa366004613482565b60ca6020526000908152604090205460ff1681565b3480156104cb57600080fd5b506102af6104da366004613786565b611842565b3480156104eb57600080fd5b506102af6104fa3660046137c3565b611aa1565b34801561050b57600080fd5b5060db546103f290600160a01b900460ff1681565b6102af61052e36600461385f565b611d0b565b34801561053f57600080fd5b5061042c61054e3660046138c7565b60cf6020526000908152604090205481565b34801561056c57600080fd5b5061042c611ddb565b34801561058157600080fd5b506102af6105903660046137c3565b611e38565b3480156105a157600080fd5b506102af611fa7565b3480156105b657600080fd5b506102af6105c5366004613902565b611fbb565b3480156105d657600080fd5b506102af6105e53660046135d8565b6121bb565b3480156105f657600080fd5b506102af6106053660046135d8565b61220a565b34801561061657600080fd5b506102af610625366004613626565b612259565b34801561063657600080fd5b506097546001600160a01b0316610316565b34801561065457600080fd5b506103f2610663366004613482565b60d16020526000908152604090205460ff1681565b34801561068457600080fd5b506102af610693366004613482565b6122e9565b3480156106a457600080fd5b5061042c6106b3366004613482565b60ce6020526000908152604090205481565b6102af6106d336600461393a565b612331565b3480156106e457600080fd5b506103f26106f3366004613482565b60d06020526000908152604090205460ff1681565b34801561071457600080fd5b506102af61240f565b34801561072957600080fd5b506102af610738366004613981565b6124d1565b34801561074957600080fd5b5061042c610758366004613482565b60cc6020526000908152604090205481565b34801561077657600080fd5b5061042c60d75481565b34801561078c57600080fd5b5060db546103f290600160b01b900460ff1681565b3480156107ad57600080fd5b506107d76107bc366004613626565b60d4602052600090815260409020546001600160801b031681565b60405161032391906139fd565b3480156107f057600080fd5b5060db546103f290600160a81b900460ff1681565b34801561081157600080fd5b506102af610820366004613626565b6125c6565b34801561083157600080fd5b506102af610840366004613a0b565b612616565b34801561085157600080fd5b506103f2610860366004613482565b60d26020526000908152604090205460ff1681565b34801561088157600080fd5b506103f2610890366004613ad6565b612678565b3480156108a157600080fd5b5061042c6108b0366004613765565b60cb6020526000908152604090205481565b3480156108ce57600080fd5b506102af6108dd366004613765565b612730565b3480156108ee57600080fd5b5061042c60d85481565b34801561090457600080fd5b5061042c610913366004613482565b612767565b60db54600160a81b900460ff166109425760405163f51cba7760e01b815260040160405180910390fd5b60db546001600160a01b03888116911614610baa578215801561096c57506001600160a01b038716155b8015610982575060da546001600160a01b031633145b610baa57846000036109a75760405163d11b25af60e01b815260040160405180910390fd5b6001600160a01b03861630146109d057604051632e47ff8360e21b815260040160405180910390fd5b60405163555ddc6560e11b81523390731820a4b7618bde71dce8cdc73aab6c95905fad249063aabbb8ca90610a2b9084907fac7fbab5f54a3ca8194167523c6753bfeb96a445279294b6125b68cce217705490600401613b23565b602060405180830381865afa158015610a48573d6000803e3d6000fd5b505050506040513d601f19601f82011682018060405250810190610a6c9190613b49565b6001600160a01b031614610a9357604051634709cb2760e01b815260040160405180910390fd5b6040516370a0823160e01b81526001600160801b039033906370a0823190610abf903090600401613405565b602060405180830381865afa158015610adc573d6000803e3d6000fd5b505050506040513d601f19601f82011682018060405250810190610b009190613b75565b1115610b1f57604051636e2c048760e11b815260040160405180910390fd5b610b5e84848080601f01602080910402602001604051908101604052809392919081815260200183838082843760009201919091525061277e92505050565b876001600160a01b0316336001600160a01b03167f8964776336bc2fa8ecaaf70b6f8e8450807efb1ff78f8b87980707aa821f0ec088604051610ba1919061364d565b60405180910390a45b5050505050505050565b610bbc6127ab565b866000806060888414801590610bd25750868414155b8015610bde5750848414155b15610bfc57604051636ce6742360e11b815260040160405180910390fd5b60005b84811015610df1578c8c82818110610c1957610c19613b96565b9050602002016020810190610c2e9190613765565b9250868682818110610c4257610c42613b96565b6001600160a01b038616600090815260cb60209081526040909120549102929092013595505015610c9157826040516307bbad8160e51b8152600401610c889190613405565b60405180910390fd5b600084815260cc602052604090205415610cc0578360405163e75b239b60e01b8152600401610c88919061364d565b8a8a82818110610cd257610cd2613b96565b90506020020135898983818110610ceb57610ceb613b96565b90506020020135604051602001610d03929190613baf565b6040516020818303038152906040529150826001600160a01b0316828051906020012060001c6001600160a01b031614610d545782826040516335c5d73760e01b8152600401610c88929190613c2b565b60d88054600090815260cd6020908152604080832080546001600160a01b0319166001600160a01b0389169081179091558454845260ce8352818420899055845490845260cb835281842081905588845260cc8352818420819055835260c98252808320805460ff1990811660019081179092558554855260ca909352922080549091168217905560d78054820190558154810190915501610bff565b50505050505050505050505050565b60db54600160a81b900460ff16610e2a5760405163f51cba7760e01b815260040160405180910390fd5b60405163555ddc6560e11b8152600090731820a4b7618bde71dce8cdc73aab6c95905fad249063aabbb8ca90610e869088907fac7fbab5f54a3ca8194167523c6753bfeb96a445279294b6125b68cce217705490600401613b23565b602060405180830381865afa158015610ea3573d6000803e3d6000fd5b505050506040513d601f19601f82011682018060405250810190610ec79190613b49565b6001600160a01b031614610eee5760405163db6e87f160e01b815260040160405180910390fd5b80600003610f0f5760405163d11b25af60e01b815260040160405180910390fd5b6040516370a0823160e01b815284906000906001600160a01b038316906370a0823190610f40903090600401613405565b602060405180830381865afa158015610f5d573d6000803e3d6000fd5b505050506040513d601f19601f82011682018060405250810190610f819190613b75565b6040516323b872dd60e01b81529091506001600160a01b038316906323b872dd90610fb490339030908890600401613c4b565b6020604051808303816000875af1158015610fd3573d6000803e3d6000fd5b505050506040513d601f19601f82011682018060405250810190610ff79190613c7e565b61100357611003613c9f565b6040516370a0823160e01b81526000906001600160a01b038416906370a0823190611032903090600401613405565b602060405180830381865afa15801561104f573d6000803e3d6000fd5b505050506040513d601f19601f820116820180604052508101906110739190613b75565b90506001600160801b0381111561109d57604051636e2c048760e11b815260040160405180910390fd5b6110dc86868080601f01602080910402602001604051908101604052809392919081815260200183838082843760009201919091525061277e92505050565b336001600160a01b0389167f8964776336bc2fa8ecaaf70b6f8e8450807efb1ff78f8b87980707aa821f0ec06111128686613ccb565b60405161111f919061364d565b60405180910390a450505050505050565b6111386127ab565b8051158061114a575060208101518151115b156111685760405163d173577960e01b815260040160405180910390fd5b61117560d5826002613134565b507fc7d2ab69ce7a42db5ca306ca58373ae7719b64ba1a5d0a86abdccea27fcfd8f960d56040516111a69190613d37565b60405180910390a150565b6111b96127ab565b60db805460ff60a81b1916600160a81b831515021790556040517f1cd6419035c493f53970c075a2a1c916d76018df8e189468f4c21c360e7c8aa9906111a6908390613601565b60db54600160b01b900460ff1661122a576040516399860ded60e01b815260040160405180910390fd5b6000838051906020012090506112738184848080602002602001604051908101604052809392919081815260200183836020028082843760009201919091525061267892505050565b611290576040516357bf35b360e11b815260040160405180910390fd5b600081815260d2602052604090205460ff16156112c057604051630cc3317f60e41b815260040160405180910390fd5b600081815260d260205260408120805460ff19166001179055845181908190819081908190819061130f908c9083906112fb576112fb613b96565b01602001516001600160f81b0319166127d5565b860195508a868151811061132557611325613b96565b60209101015160f81c6080166000036113515760405163227c863b60e21b815260040160405180910390fd5b6063860195508a868151811061136957611369613b96565b01602001516001600160f81b03191615611384576002611387565b60015b60ff16860195506113a38b87815181106112fb576112fb613b96565b860195506113bc8b87815181106112fb576112fb613b96565b9095018a81016020908101516001600160f01b03198116600090815260cf8352604081205499509190920196508790036114095760405163469de68760e11b815260040160405180910390fd5b9486018a8101805160148201516024830151603890930151939891975095509193506eff000000ff000000ff000000ff0000600882811c9182166fff000000ff000000ff000000ff0000009390911b92831617601090811c6cff000000ff000000ff000000ff9092166dff000000ff000000ff000000ff009093169290921790911b17602081811c6bffffffff00000000ffffffff166fffffffff00000000ffffffff000000009290911b9190911617604081811c91901b17915073eeeeeeeeeeeeeeeeeeeeeeeeeeeeeeeeeeeeeeed196001600160a01b03851601611575576000836001600160a01b0316836001600160801b031660405161150b90613d4d565b60006040518083038185875af1925050503d8060008114611548576040519150601f19603f3d011682016040523d82523d6000602084013e61154d565b606091505b505090508061156f576040516307a4ced160e51b815260040160405180910390fd5b5061170a565b60405163555ddc6560e11b81526001600160a01b03851690731820a4b7618bde71dce8cdc73aab6c95905fad249063aabbb8ca906115d99088907fac7fbab5f54a3ca8194167523c6753bfeb96a445279294b6125b68cce217705490600401613b23565b602060405180830381865afa1580156115f6573d6000803e3d6000fd5b505050506040513d601f19601f8201168201806040525081019061161a9190613b49565b6001600160a01b03160361168d57604051634decdde360e11b81526001600160a01b03851690639bd9bbc6906116569086908690600401613d84565b600060405180830381600087803b15801561167057600080fd5b505af1158015611684573d6000803e3d6000fd5b5050505061170a565b60405163a9059cbb60e01b81526001600160a01b0385169063a9059cbb906116bb9086908690600401613db0565b6020604051808303816000875af11580156116da573d6000803e3d6000fd5b505050506040513d601f19601f820116820180604052508101906116fe9190613c7e565b61170a5761170a613c9f565b84836001600160a01b0316856001600160a01b03167fea1b69480b8e6df6e2fba9e1fa47698276db9338f7de0d7c3a58cce4a94f450f8560405161174e9190613dcb565b60405180910390a45050505050505050505050565b6001600160a01b037f00000000000000000000000000000000000000000000000000000000000000001630036117ab5760405162461bcd60e51b8152600401610c8890613e25565b7f00000000000000000000000000000000000000000000000000000000000000006001600160a01b03166117f46000805160206143a8833981519152546001600160a01b031690565b6001600160a01b03161461181a5760405162461bcd60e51b8152600401610c8890613e7e565b6118238161282b565b6040805160008082526020820190925261183f91839190612833565b50565b600054610100900460ff16158080156118625750600054600160ff909116105b8061187c5750303b15801561187c575060005460ff166001145b6118985760405162461bcd60e51b8152600401610c8890613ed9565b6000805460ff1916600117905580156118bb576000805461ff0019166101001790555b6001600160a01b0383166118e55760405160016201840560e51b0319815260040160405180910390fd5b6118ed612915565b60da80546001600160a01b038086166001600160a01b03199283161790925560db8054928516929091169190911790556040516329965a1d60e01b8152731820a4b7618bde71dce8cdc73aab6c95905fad24906329965a1d906119789030907fb281fc8c12954d22544db45de3159a39272895b169a852b314f9cc762e44c53b908290600401613ee9565b600060405180830381600087803b15801561199257600080fd5b505af11580156119a6573d6000803e3d6000fd5b505060cf602052505060857f474cf5cd8a156a285bdb013cd5ad88639478d8c2df5dd0da103de5e0c93be11f8190557f260a2a8177dfbdaed58acd0b3df5d4289c584f88be17037c5ed3bb018cde816955612b8160f11b60005260027f475ac2ade161108313ceef0815ca8140b4df68a82031c72f4e2f14414795106581905560db805462ffffff60a01b19166201010160a01b179055600160d85560d555600360d65562093a8060d9558015611a9c576000805461ff00191690556040517f7f26b83ff96e1f2b6a682f133852f6798a09c465da95921460cefb384740249890611a9390600190613f25565b60405180910390a15b505050565b60db54600160a01b900460ff16611acb57604051630cbcd94760e21b815260040160405180910390fd5b8451604014611aed57604051630d4a420160e11b815260040160405180910390fd5b84516020808701919091206001600160a01b038116600090815260cb835260408082205480835260c990945290205490919060ff1615611b405760405163132e7efb60e31b815260040160405180910390fd5b60008787604051602001611b55929190613f55565b604051602081830303815290604052805190602001209050611bb6611b7a8288612944565b86868080601f01602080910402602001604051908101604052809392919081815260200183838082843760009201919091525061299192505050565b611bbf86612c43565b81600003611c5c57600087815260cc602052604090205415611bf6578660405163e75b239b60e01b8152600401610c88919061364d565b60d88054600081815260cd6020908152604080832080546001600160a01b0319166001600160a01b038a16908117909155835260cb825280832084905583835260ce82528083208c90558b835260cc909152902081905581546001019091559150611c9b565b600082815260ce60205260409020548714611c9b57600082815260ce602052604090819020549051631241dd0560e21b8152610c88919060040161364d565b600082815260c96020908152604091829020805460ff1916600117905589015189820151915190919088908a9084907fff083a6e395a67771f3c9108922bc274c27b38b48c210b0f6a8c5f4710c0494b90611cf790869061364d565b60405180910390a450505050505050505050565b6001600160a01b037f0000000000000000000000000000000000000000000000000000000000000000163003611d535760405162461bcd60e51b8152600401610c8890613e25565b7f00000000000000000000000000000000000000000000000000000000000000006001600160a01b0316611d9c6000805160206143a8833981519152546001600160a01b031690565b6001600160a01b031614611dc25760405162461bcd60e51b8152600401610c8890613e7e565b611dcb8261282b565b611dd782826001612833565b5050565b6000306001600160a01b037f00000000000000000000000000000000000000000000000000000000000000001614611e255760405162461bcd60e51b8152600401610c8890613fc7565b506000805160206143a883398151915290565b60db54600160a01b900460ff16611e6257604051630cbcd94760e21b815260040160405180910390fd5b600084815260cc602090815260408083205480845260c99092529091205460ff16611ea05760405163510b8aad60e11b815260040160405180910390fd5b60008587604051602001611eb5929190613fd7565b604051602081830303815290604052805190602001209050611f16611eda8287612944565b85858080601f01602080910402602001604051908101604052809392919081815260200183838082843760009201919091525061299192505050565b611f1f85612c43565b600082815260c960209081526040808320805460ff1990811690915560ca835292819020805490931690925560d780546000190190558801518882015191519091908790899084907ff3ead85a271457d1249724c811bec3349855a5f1463cac7de6bb3e7801e6d17690611f9490869061364d565b60405180910390a4505050505050505050565b611faf6127ab565b611fb96000612c8e565b565b60db54600160a01b900460ff16611fe557604051630cbcd94760e21b815260040160405180910390fd5b846001600160801b031660000361200f5760405163d11b25af60e01b815260040160405180910390fd5b63ffffffff8416600090815260d460205260409020546001600160801b03161561204c57604051631e85d64560e11b815260040160405180910390fd5b63ffffffff8416600090815260d46020526040812080546fffffffffffffffffffffffffffffffff19166001600160801b0388161790558190036120c4576097546001600160a01b031633146120b557604051630b2db9b760e31b815260040160405180910390fd5b6120bf8585612ce0565b6121b4565b600085856040516020016120d9929190613fff565b60405160208183030381529060405280519060200120905061213a6120fe8286612944565b84848080601f01602080910402602001604051908101604052809392919081815260200183838082843760009201919091525061299192505050565b61214384612c43565b60d95460000361215c576121578686612ce0565b6121b2565b60d95463ffffffff8616600081815260d360205260408082204290940193849055518392916001600160801b038b16917f72ce45afe06a144fbb1f267fb94bcb4c9696c3628d36ef4795e65bb110f5e85f9190a4505b505b5050505050565b6121c36127ab565b60db805460ff60a01b1916600160a01b831515021790556040517fddbff3b04f8f09b378dea661b2bee67bbedea1db50196599cd887499d1f445d2906111a6908390613601565b6122126127ab565b60db805460ff60b01b1916600160b01b831515021790556040517f236540b1dc0f95bdefe04c9e02c5edcc415f7bf4d44dac6ab16528feba25f7ed906111a6908390613601565b63ffffffff8116600090815260d3602052604081205490819003612290576040516333b37f5f60e11b815260040160405180910390fd5b804210156122b35780604051633c4e91a560e11b8152600401610c88919061364d565b63ffffffff8216600090815260d36020908152604080832083905560d4909152902054611dd7906001600160801b031683612ce0565b6122f16127ab565b7f44cf508136a645cbe72b5020f8b6a5f8965d58b314e39c47878ea4429ecbe45960d9548260405161232492919061401a565b60405180910390a160d955565b60db54600160a81b900460ff1661235b5760405163f51cba7760e01b815260040160405180910390fd5b3460000361237c5760405163d11b25af60e01b815260040160405180910390fd5b6123bb82828080601f01602080910402602001604051908101604052809392919081815260200183838082843760009201919091525061277e92505050565b604051339073eeeeeeeeeeeeeeeeeeeeeeeeeeeeeeeeeeeeeeee907f8964776336bc2fa8ecaaf70b6f8e8450807efb1ff78f8b87980707aa821f0ec09061240390349061364d565b60405180910390a45050565b6124176127ab565b60da546040516000916001600160a01b031690612438903390602401613405565b60408051601f198184030181529181526020820180516001600160e01b03166313af403560e01b1790525161246d9190614028565b6000604051808303816000865af19150503d80600081146124aa576040519150601f19603f3d011682016040523d82523d6000602084013e6124af565b606091505b505090508061183f57604051633c33064360e21b815260040160405180910390fd5b60db54600160a01b900460ff166124fb57604051630cbcd94760e21b815260040160405180910390fd5b6125446125088585612944565b83838080601f01602080910402602001604051908101604052809392919081815260200183838082843760009201919091525061299192505050565b61254d83612c43565b600084815260d0602052604090205460ff161561257d576040516327a7ec4b60e01b815260040160405180910390fd5b600084815260d06020526040808220805460ff1916600117905551849186917ffe808338418de30500c1a16538c15061c01827981732033cf0d1b9bc046417039190a350505050565b6125ce6127ab565b63ffffffff8116600090815260d3602052604080822091909155517f548e97efcf29c8c170cf478f03b2258c006aa1489cd2de404c816e4da1cd3979906111a6908390614034565b61261e6127ab565b6001600160f01b03198216600090815260cf602052604090819020829055517f8a2052ee12aa0ad46deb771b8cc507be8e8e773fd206bf9bd3603c36d59de1229061266c9084908490614052565b60405180910390a15050565b8051600090839082805b828110156127125785818151811061269c5761269c613b96565b60200260200101519150818410156126de5783826040516020016126c192919061401a565b60405160208183030381529060405280519060200120935061270a565b81846040516020016126f192919061401a565b6040516020818303038152906040528051906020012093505b600101612682565b505050600090815260d0602052604090205460ff1690505b92915050565b6127386127ab565b6001600160a01b03811661275e5760405162461bcd60e51b8152600401610c88906140a3565b61183f81612c8e565b60d5816002811061277757600080fd5b0154905081565b600081516020146127a257604051630c41363960e31b815260040160405180910390fd5b61272a826140bd565b6097546001600160a01b03163314611fb95760405162461bcd60e51b8152600401610c88906140fc565b6000600360f883901c168082036127ef5760019150612825565b8060ff166001036128035760029150612825565b8060ff166002036128175760049150612825565b60ff600560fa85901c011691505b50919050565b61183f6127ab565b7f4910fdfa16fed3260ed0e7147f7cc6da11a60208b5b9406d12a635614ffd91435460ff161561286657611a9c83612f0c565b826001600160a01b03166352d1902d6040518163ffffffff1660e01b8152600401602060405180830381865afa9250505080156128c0575060408051601f3d908101601f191682019092526128bd91810190613b75565b60015b6128dc5760405162461bcd60e51b8152600401610c8890614181565b6000805160206143a883398151915281146129095760405162461bcd60e51b8152600401610c88906141d7565b50611a9c838383612f62565b600054610100900460ff1661293c5760405162461bcd60e51b8152600401610c889061422f565b611fb9612f8d565b33600090815260cb6020908152604080832054835260ce8252808320549051612973928692869290910161423f565b60405160208183030381529060405280519060200120905092915050565b6000826040516020016129a4919061425a565b60405160208183030381529060405280519060200120905060008060418451816129d0576129d0614295565b0491506129db612fbd565b905060008060008060008060d8546001600160401b03811115612a0057612a006134ab565b604051908082528060200260200182016040528015612a29578160200160208202803683370190505b50905060005b88811015612c1557604181028b016020810151604082015160609092015190965090945060001a9250601b831015612a6857601b830192505b8260ff16601b14158015612a8057508260ff16601c14155b80612aaa57507f7fffffffffffffffffffffffffffffff5d576e7357a4501ddfe92f46681b20a084115b15612ab757600101612a2f565b60cb600060018c86898960405160008152602001604052604051612ade94939291906142b4565b6020604051602081039080840390855afa158015612b00573d6000803e3d6000fd5b505060408051601f1901516001600160a01b0316835260208381019490945291820160009081205480825260ca90945291909120549197505060ff16612bbb57600086815260c9602052604090205460ff1615612bb657600086815260ca60205260409020805460ff1916600190811790915560d78054820190559690960195612b88612fbd565b9750868814612c15576001828781518110612ba557612ba5613b96565b911515602092830291909101909101525b612c0d565b818681518110612bcd57612bcd613b96565b6020026020010151612c0d576001808801978990030115612c15576001828781518110612bfc57612bfc613b96565b911515602092830291909101909101525b600101612a2f565b50868614612c36576040516311ed5d1f60e31b815260040160405180910390fd5b5050505050505050505050565b600081815260d1602052604090205460ff1615612c7357604051630970e53d60e21b815260040160405180910390fd5b600090815260d160205260409020805460ff19166001179055565b609780546001600160a01b038381166001600160a01b0319831681179093556040519116919082907f8be0079c531659141344cd1fd0a4f28419497f9722a3daafe3b4186f6b6457e090600090a35050565b60da546040516370a0823160e01b81526001600160a01b039091169060009082906370a0823190612d15903090600401613405565b602060405180830381865afa158015612d32573d6000803e3d6000fd5b505050506040513d601f19601f82011682018060405250810190612d569190613b75565b60da546040519192506000916001600160a01b0390911690612d7c9087906024016139fd565b60408051601f198184030181529181526020820180516001600160e01b03166334e9f10760e11b17905251612db19190614028565b6000604051808303816000865af19150503d8060008114612dee576040519150601f19603f3d011682016040523d82523d6000602084013e612df3565b606091505b505090506000836001600160a01b03166370a08231306040518263ffffffff1660e01b8152600401612e259190613405565b602060405180830381865afa158015612e42573d6000803e3d6000fd5b505050506040513d601f19601f82011682018060405250810190612e669190613b75565b90506001600160801b0386168301821580612e815750818114155b15612e9f57604051634a38145560e01b815260040160405180910390fd5b6001600160801b03821115612ec757604051636e2c048760e11b815260040160405180910390fd5b60405163ffffffff8716906001600160801b038916907f3ad58a8dc1110baa37ad88a68db14181b4ef0c69192dfa7699a9588960eca7fd90600090a350505050505050565b6001600160a01b0381163b612f335760405162461bcd60e51b8152600401610c8890614333565b6000805160206143a883398151915280546001600160a01b0319166001600160a01b0392909216919091179055565b612f6b83612ff5565b600082511180612f785750805b15611a9c57612f878383613035565b50505050565b600054610100900460ff16612fb45760405162461bcd60e51b8152600401610c889061422f565b611fb933612c8e565b60d75460d65460d5546000929190820281612fda57612fda614295565b049150808214612fed5781600101612fef565b815b91505090565b612ffe81612f0c565b6040516001600160a01b038216907fbc7cd75a20ee27fd9adebab32041f755214dbc6bffa90cc0225b39da2e5c2d3b90600090a250565b60606001600160a01b0383163b61305e5760405162461bcd60e51b8152600401610c8890614386565b600080846001600160a01b0316846040516130799190614028565b600060405180830381855af49150503d80600081146130b4576040519150601f19603f3d011682016040523d82523d6000602084013e6130b9565b606091505b50915091506130e182826040518060600160405280602781526020016143c8602791396130ea565b95945050505050565b606083156130f9575081613103565b613103838361310a565b9392505050565b81511561311a5781518083602001fd5b8060405162461bcd60e51b8152600401610c889190614396565b8260028101928215613162579160200282015b82811115613162578251825591602001919060010190613147565b5061316e929150613172565b5090565b5b8082111561316e5760008155600101613173565b60006001600160a01b03821661272a565b6131a181613187565b811461183f57600080fd5b803561272a81613198565b806131a1565b803561272a816131b7565b60008083601f8401126131dd576131dd600080fd5b5081356001600160401b038111156131f7576131f7600080fd5b60208301915083600182028301111561321257613212600080fd5b9250929050565b60008060008060008060008060c0898b03121561323857613238600080fd5b60006132448b8b6131ac565b98505060206132558b828c016131ac565b97505060406132668b828c016131ac565b96505060606132778b828c016131bd565b95505060808901356001600160401b0381111561329657613296600080fd5b6132a28b828c016131c8565b945094505060a08901356001600160401b038111156132c3576132c3600080fd5b6132cf8b828c016131c8565b92509250509295985092959890939650565b60008083601f8401126132f6576132f6600080fd5b5081356001600160401b0381111561331057613310600080fd5b60208301915083602082028301111561321257613212600080fd5b6000806000806000806000806080898b03121561334a5761334a600080fd5b88356001600160401b0381111561336357613363600080fd5b61336f8b828c016132e1565b985098505060208901356001600160401b0381111561339057613390600080fd5b61339c8b828c016132e1565b965096505060408901356001600160401b038111156133bd576133bd600080fd5b6133c98b828c016132e1565b945094505060608901356001600160401b038111156133ea576133ea600080fd5b6132cf8b828c016132e1565b6133ff81613187565b82525050565b6020810161272a82846133f6565b6000806000806060858703121561342c5761342c600080fd5b600061343887876131ac565b94505060208501356001600160401b0381111561345757613457600080fd5b613463878288016131c8565b93509350506040613476878288016131bd565b91505092959194509250565b60006020828403121561349757613497600080fd5b60006134a384846131bd565b949350505050565b634e487b7160e01b600052604160045260246000fd5b601f19601f83011681018181106001600160401b03821117156134e6576134e66134ab565b6040525050565b60006134f860405190565b905061350482826134c1565b919050565b60006001600160401b03821115613522576135226134ab565b5060200290565b600061353c61353784613509565b6134ed565b9050806020840283018581111561355557613555600080fd5b835b81811015613579578061356a88826131bd565b84525060209283019201613557565b5050509392505050565b600082601f83011261359757613597600080fd5b60026134a3848285613529565b6000604082840312156135b9576135b9600080fd5b60006134a38484613583565b8015156131a1565b803561272a816135c5565b6000602082840312156135ed576135ed600080fd5b60006134a384846135cd565b8015156133ff565b6020810161272a82846135f9565b63ffffffff81166131a1565b803561272a8161360f565b60006020828403121561363b5761363b600080fd5b60006134a3848461361b565b806133ff565b6020810161272a8284613647565b60006001600160401b03821115613674576136746134ab565b601f19601f83011660200192915050565b82818337506000910152565b600061369f6135378461365b565b9050828152602081018484840111156136ba576136ba600080fd5b6136c5848285613685565b509392505050565b600082601f8301126136e1576136e1600080fd5b81356134a3848260208601613691565b60008060006040848603121561370957613709600080fd5b83356001600160401b0381111561372257613722600080fd5b61372e868287016136cd565b93505060208401356001600160401b0381111561374d5761374d600080fd5b613759868287016132e1565b92509250509250925092565b60006020828403121561377a5761377a600080fd5b60006134a384846131ac565b6000806040838503121561379c5761379c600080fd5b60006137a885856131ac565b92505060206137b9858286016131ac565b9150509250929050565b6000806000806000608086880312156137de576137de600080fd5b85356001600160401b038111156137f7576137f7600080fd5b613803888289016136cd565b9550506020613814888289016131bd565b9450506040613825888289016131bd565b93505060608601356001600160401b0381111561384457613844600080fd5b613850888289016131c8565b92509250509295509295909350565b6000806040838503121561387557613875600080fd5b600061388185856131ac565b92505060208301356001600160401b038111156138a0576138a0600080fd5b6137b9858286016136cd565b6001600160f01b031981166131a1565b803561272a816138ac565b6000602082840312156138dc576138dc600080fd5b60006134a384846138bc565b6001600160801b0381166131a1565b803561272a816138e8565b60008060008060006080868803121561391d5761391d600080fd5b600061392988886138f7565b95505060206138148882890161361b565b6000806020838503121561395057613950600080fd5b82356001600160401b0381111561396957613969600080fd5b613975858286016131c8565b92509250509250929050565b6000806000806060858703121561399a5761399a600080fd5b60006139a687876131bd565b94505060206139b7878288016131bd565b93505060408501356001600160401b038111156139d6576139d6600080fd5b6139e2878288016131c8565b95989497509550505050565b6001600160801b0381166133ff565b6020810161272a82846139ee565b60008060408385031215613a2157613a21600080fd5b6000613a2d85856138bc565b92505060206137b9858286016131bd565b60006001600160401b03821115613a5757613a576134ab565b5060209081020190565b6000613a6f61353784613a3e565b83815290506020808201908402830185811115613a8e57613a8e600080fd5b835b818110156135795780613aa388826131bd565b84525060209283019201613a90565b600082601f830112613ac657613ac6600080fd5b81356134a3848260208601613a61565b60008060408385031215613aec57613aec600080fd5b6000613af885856131bd565b92505060208301356001600160401b03811115613b1757613b17600080fd5b6137b985828601613ab2565b60408101613b3182856133f6565b6131036020830184613647565b805161272a81613198565b600060208284031215613b5e57613b5e600080fd5b60006134a38484613b3e565b805161272a816131b7565b600060208284031215613b8a57613b8a600080fd5b60006134a38484613b6a565b634e487b7160e01b600052603260045260246000fd5b90565b6000613bbb8285613647565b602082019150613bcb8284613647565b5060200192915050565b60005b83811015613bf0578181015183820152602001613bd8565b50506000910152565b6000613c03825190565b808452602084019350613c1a818560208601613bd5565b601f01601f19169290920192915050565b60408101613c3982856133f6565b81810360208301526134a38184613bf9565b60608101613c5982866133f6565b613c6660208301856133f6565b6134a36040830184613647565b805161272a816135c5565b600060208284031215613c9357613c93600080fd5b60006134a38484613c73565b634e487b7160e01b600052600160045260246000fd5b634e487b7160e01b600052601160045260246000fd5b8181038181111561272a5761272a613cb5565b6000613cea8383613647565b505060200190565b60008161272a565b600061272a8254613cf2565b6002818060005b838110156121b257613d1e82613cfa565b613d288782613cde565b96505060019182019101613d0d565b6040810161272a8284613d06565b600081612fef565b600061272a82613d45565b600061272a613bac6001600160801b03841681565b6133ff81613d58565b600080825260208201612fef565b60608101613d9282856133f6565b613d9f6020830184613d6d565b81810360408301526134a381613d76565b60408101613dbe82856133f6565b6131036020830184613d6d565b6020810161272a8284613d6d565b602c81526000602082017f46756e6374696f6e206d7573742062652063616c6c6564207468726f7567682081526b19195b1959d85d1958d85b1b60a21b602082015291505b5060400190565b6020808252810161272a81613dd9565b602c81526000602082017f46756e6374696f6e206d7573742062652063616c6c6564207468726f7567682081526b6163746976652070726f787960a01b60208201529150613e1e565b6020808252810161272a81613e35565b602e81526000602082017f496e697469616c697a61626c653a20636f6e747261637420697320616c72656181526d191e481a5b9a5d1a585b1a5e995960921b60208201529150613e1e565b6020808252810161272a81613e8e565b60608101613ef782866133f6565b613f046020830185613647565b6134a360408301846133f6565b600060ff821661272a565b6133ff81613f11565b6020810161272a8284613f1c565b6000613f3d825190565b613f4b818560208601613bd5565b9290920192915050565b6000613f618285613f33565b9150613bcb8284613647565b603881526000602082017f555550535570677261646561626c653a206d757374206e6f742062652063616c81527f6c6564207468726f7567682064656c656761746563616c6c000000000000000060208201529150613e1e565b6020808252810161272a81613f6d565b6000613fe38285613647565b6020820191506134a38284613f33565b63ffffffff81166133ff565b6040810161400d82856139ee565b6131036020830184613ff3565b60408101613b318285613647565b60006131038284613f33565b6020810161272a8284613ff3565b6001600160f01b031981166133ff565b60408101613b318285614042565b602681526000602082017f4f776e61626c653a206e6577206f776e657220697320746865207a65726f206181526564647265737360d01b60208201529150613e1e565b6020808252810161272a81614060565b600061272a825190565b60006140c7825190565b602083016140d4816140b3565b925060208210156140f5576140f0600019836020036008021b90565b831692505b5050919050565b60208082528181019081527f4f776e61626c653a2063616c6c6572206973206e6f7420746865206f776e657260408301526060820161272a565b602e81526000602082017f45524331393637557067726164653a206e657720696d706c656d656e7461746981526d6f6e206973206e6f74205555505360901b60208201529150613e1e565b6020808252810161272a81614136565b602981526000602082017f45524331393637557067726164653a20756e737570706f727465642070726f788152681a58589b195555525160ba1b60208201529150613e1e565b6020808252810161272a81614191565b602b81526000602082017f496e697469616c697a61626c653a20636f6e7472616374206973206e6f74206981526a6e697469616c697a696e6760a81b60208201529150613e1e565b6020808252810161272a816141e7565b6060810161424d8286613647565b613c666020830185613647565b7f19457468657265756d205369676e6564204d6573736167653a0a3332000000008152601c01600061428c8284613647565b50602001919050565b634e487b7160e01b600052601260045260246000fd5b60ff81166133ff565b608081016142c28287613647565b6142cf60208301866142ab565b6142dc6040830185613647565b6130e16060830184613647565b602d81526000602082017f455243313936373a206e657720696d706c656d656e746174696f6e206973206e81526c1bdd08184818dbdb9d1c9858dd609a1b60208201529150613e1e565b6020808252810161272a816142e9565b602681526000602082017f416464726573733a2064656c65676174652063616c6c20746f206e6f6e2d636f8152651b9d1c9858dd60d21b60208201529150613e1e565b6020808252810161272a81614343565b602080825281016131038184613bf956fe360894a13ba1a3210667c828492db98dca3e2076cc3735a920a3ca505d382bbc416464726573733a206c6f772d6c6576656c2064656c65676174652063616c6c206661696c6564a26469706673582212204a997f0e28dc9a9ed968ed18069e85aa85ed070f028aec7ab1ce175a9c6cbe2264736f6c63430008110033",
  "linkReferences": {},
  "deployedLinkReferences": {}
}