{
  "_format": "hh-sol-artifact-1",
  "contractName": "Token20",
  "sourceName": "contracts/test/Token20.sol",
  "abi": [
    {
      "inputs": [
        {
          "internalType": "uint256",
          "name": "supply",
          "type": "uint256"
        }
      ],
      "stateMutability": "nonpayable",
      "type": "constructor"
    },
    {
      "anonymous": false,
      "inputs": [
        {
          "indexed": true,
          "internalType": "address",
          "name": "owner",
          "type": "address"
        },
        {
          "indexed": true,
          "internalType": "address",
          "name": "spender",
          "type": "address"
        },
        {
          "indexed": false,
          "internalType": "uint256",
          "name": "value",
          "type": "uint256"
        }
      ],
      "name": "Approval",
      "type": "event"
    },
    {
      "anonymous": false,
      "inputs": [
        {
          "indexed": true,
          "internalType": "address",
          "name": "owner",
          "type": "address"
        }
      ],
      "name": "LogSetOwner",
      "type": "event"
    },
    {
      "anonymous": false,
      "inputs": [
        {
          "indexed": true,
          "internalType": "address",
          "name": "previousOwner",
          "type": "address"
        },
        {
          "indexed": true,
          "internalType": "address",
          "name": "newOwner",
          "type": "address"
        }
      ],
      "name": "OwnershipTransferred",
      "type": "event"
    },
    {
      "anonymous": false,
      "inputs": [
        {
          "indexed": true,
          "internalType": "address",
          "name": "from",
          "type": "address"
        },
        {
          "indexed": true,
          "internalType": "address",
          "name": "to",
          "type": "address"
        },
        {
          "indexed": false,
          "internalType": "uint256",
          "name": "value",
          "type": "uint256"
        }
      ],
      "name": "Transfer",
      "type": "event"
    },
    {
      "inputs": [
        {
          "internalType": "address",
          "name": "owner",
          "type": "address"
        },
        {
          "internalType": "address",
          "name": "spender",
          "type": "address"
        }
      ],
      "name": "allowance",
      "outputs": [
        {
          "internalType": "uint256",
          "name": "",
          "type": "uint256"
        }
      ],
      "stateMutability": "view",
      "type": "function"
    },
    {
      "inputs": [
        {
          "internalType": "address",
          "name": "spender",
          "type": "address"
        },
        {
          "internalType": "uint256",
          "name": "amount",
          "type": "uint256"
        }
      ],
      "name": "approve",
      "outputs": [
        {
          "internalType": "bool",
          "name": "",
          "type": "bool"
        }
      ],
      "stateMutability": "nonpayable",
      "type": "function"
    },
    {
      "inputs": [
        {
          "internalType": "address",
          "name": "account",
          "type": "address"
        }
      ],
      "name": "balanceOf",
      "outputs": [
        {
          "internalType": "uint256",
          "name": "",
          "type": "uint256"
        }
      ],
      "stateMutability": "view",
      "type": "function"
    },
    {
      "inputs": [],
      "name": "decimals",
      "outputs": [
        {
          "internalType": "uint8",
          "name": "",
          "type": "uint8"
        }
      ],
      "stateMutability": "view",
      "type": "function"
    },
    {
      "inputs": [
        {
          "internalType": "address",
          "name": "spender",
          "type": "address"
        },
        {
          "internalType": "uint256",
          "name": "subtractedValue",
          "type": "uint256"
        }
      ],
      "name": "decreaseAllowance",
      "outputs": [
        {
          "internalType": "bool",
          "name": "",
          "type": "bool"
        }
      ],
      "stateMutability": "nonpayable",
      "type": "function"
    },
    {
      "inputs": [
        {
          "internalType": "address",
          "name": "spender",
          "type": "address"
        },
        {
          "internalType": "uint256",
          "name": "addedValue",
          "type": "uint256"
        }
      ],
      "name": "increaseAllowance",
      "outputs": [
        {
          "internalType": "bool",
          "name": "",
          "type": "bool"
        }
      ],
      "stateMutability": "nonpayable",
      "type": "function"
    },
    {
      "inputs": [
        {
          "internalType": "uint128",
          "name": "amount",
          "type": "uint128"
        }
      ],
      "name": "mint",
      "outputs": [],
      "stateMutability": "nonpayable",
      "type": "function"
    },
    {
      "inputs": [],
      "name": "name",
      "outputs": [
        {
          "internalType": "string",
          "name": "",
          "type": "string"
        }
      ],
      "stateMutability": "view",
      "type": "function"
    },
    {
      "inputs": [],
      "name": "owner",
      "outputs": [
        {
          "internalType": "address",
          "name": "",
          "type": "address"
        }
      ],
      "stateMutability": "view",
      "type": "function"
    },
    {
      "inputs": [],
      "name": "renounceOwnership",
      "outputs": [],
      "stateMutability": "nonpayable",
      "type": "function"
    },
    {
      "inputs": [
        {
          "internalType": "address",
          "name": "owner_",
          "type": "address"
        }
      ],
      "name": "setOwner",
      "outputs": [],
      "stateMutability": "nonpayable",
      "type": "function"
    },
    {
      "inputs": [],
      "name": "symbol",
      "outputs": [
        {
          "internalType": "string",
          "name": "",
          "type": "string"
        }
      ],
      "stateMutability": "view",
      "type": "function"
    },
    {
      "inputs": [],
      "name": "totalSupply",
      "outputs": [
        {
          "internalType": "uint256",
          "name": "",
          "type": "uint256"
        }
      ],
      "stateMutability": "view",
      "type": "function"
    },
    {
      "inputs": [
        {
          "internalType": "address",
          "name": "to",
          "type": "address"
        },
        {
          "internalType": "uint256",
          "name": "amount",
          "type": "uint256"
        }
      ],
      "name": "transfer",
      "outputs": [
        {
          "internalType": "bool",
          "name": "",
          "type": "bool"
        }
      ],
      "stateMutability": "nonpayable",
      "type": "function"
    },
    {
      "inputs": [
        {
          "internalType": "address",
          "name": "from",
          "type": "address"
        },
        {
          "internalType": "address",
          "name": "to",
          "type": "address"
        },
        {
          "internalType": "uint256",
          "name": "amount",
          "type": "uint256"
        }
      ],
      "name": "transferFrom",
      "outputs": [
        {
          "internalType": "bool",
          "name": "",
          "type": "bool"
        }
      ],
      "stateMutability": "nonpayable",
      "type": "function"
    },
    {
      "inputs": [
        {
          "internalType": "address",
          "name": "newOwner",
          "type": "address"
        }
      ],
      "name": "transferOwnership",
      "outputs": [],
      "stateMutability": "nonpayable",
      "type": "function"
    }
  ],
  "bytecode": "0x60806040523480156200001157600080fd5b50604051620011e3380380620011e38339810160408190526200003491620001dd565b604051806040016040528060078152602001660546f6b656e32360cc1b81525060405180604001604052806002815260200161032360f41b815250816003908162000080919062000314565b5060046200008f828262000314565b505050620000ac620000a6620000d260201b60201c565b620000d6565b620000cb33620000c583670de0b6b3a7640000620003fa565b62000128565b506200047b565b3390565b600580546001600160a01b038381166001600160a01b0319831681179093556040519116919082907f8be0079c531659141344cd1fd0a4f28419497f9722a3daafe3b4186f6b6457e090600090a35050565b6001600160a01b0382166200015a5760405162461bcd60e51b815260040162000151906200041c565b60405180910390fd5b80600260008282546200016e919062000458565b90915550506001600160a01b038216600081815260208190526040808220805485019055517fddf252ad1be2c89b69c2b068fc378daa952ba7f163c4a11628f55a4df523b3ef90620001c29085906200046e565b60405180910390a35b5050565b505050565b80515b92915050565b600060208284031215620001f457620001f4600080fd5b6000620002028484620001d4565b949350505050565b634e487b7160e01b600052604160045260246000fd5b634e487b7160e01b600052602260045260246000fd5b6002810460018216806200024b57607f821691505b60208210810362000260576200026062000220565b50919050565b6000620001d7620002748381565b90565b620002828362000266565b81546008840282811b60001990911b908116901990911617825550505050565b6000620001cf81848462000277565b81811015620001cb57620002c7600082620002a2565b600101620002b1565b601f821115620001cf576000818152602090206020601f85010481016020851015620002f95750805b6200030d6020601f860104830182620002b1565b5050505050565b81516001600160401b038111156200033057620003306200020a565b6200033c825462000236565b62000349828285620002d0565b6020601f831160018114620003805760008415620003675750858201515b600019600886021c1981166002860217865550620003dc565b600085815260208120601f198616915b82811015620003b2578885015182556020948501946001909201910162000390565b86831015620003cf5784890151600019601f89166008021c191682555b6001600288020188555050505b505050505050565b634e487b7160e01b600052601160045260246000fd5b818102808215838204851417620004155762000415620003e4565b5092915050565b60208082528101620001d781601f81527f45524332303a206d696e7420746f20746865207a65726f206164647265737300602082015260400190565b80820180821115620001d757620001d7620003e4565b81815260208101620001d7565b610d58806200048b6000396000f3fe608060405234801561001057600080fd5b50600436106101005760003560e01c806370a0823111610097578063a457c2d711610066578063a457c2d714610203578063a9059cbb14610216578063dd62ed3e14610229578063f2fde38b1461023c57600080fd5b806370a08231146101b1578063715018a6146101da5780638da5cb5b146101e257806395d89b41146101fb57600080fd5b806323b872dd116100d357806323b872dd14610169578063313ce5671461017c578063395093511461018b57806369d3e20e1461019e57600080fd5b806306fdde0314610105578063095ea7b31461012357806313af40351461014357806318160ddd14610158575b600080fd5b61010d61024f565b60405161011a91906107d6565b60405180910390f35b61013661013136600461082f565b6102e1565b60405161011a9190610876565b610156610151366004610884565b6102fb565b005b6002545b60405161011a91906108b3565b6101366101773660046108c1565b610343565b601260405161011a919061091a565b61013661019936600461082f565b610367565b6101566101ac366004610942565b610389565b61015c6101bf366004610884565b6001600160a01b031660009081526020819052604090205490565b6101566103a7565b6005546001600160a01b031660405161011a919061096c565b61010d6103bb565b61013661021136600461082f565b6103ca565b61013661022436600461082f565b610410565b61015c61023736600461097a565b61041e565b61015661024a366004610884565b610449565b60606003805461025e906109c3565b80601f016020809104026020016040519081016040528092919081815260200182805461028a906109c3565b80156102d75780601f106102ac576101008083540402835291602001916102d7565b820191906000526020600020905b8154815290600101906020018083116102ba57829003601f168201915b5050505050905090565b6000336102ef818585610480565b60019150505b92915050565b610303610534565b61030c8161055e565b6040516001600160a01b038216907fce241d7ca1f669fee44b6fc00b8eba2df3bb514eed0f6f668f8f89096e81ed9490600090a250565b6000336103518582856105b0565b61035c8585856105fa565b506001949350505050565b6000336102ef81858561037a838361041e565b6103849190610a05565b610480565b610391610534565b6103a433826001600160801b03166106ea565b50565b6103af610534565b6103b9600061055e565b565b60606004805461025e906109c3565b600033816103d8828661041e565b9050838110156104035760405162461bcd60e51b81526004016103fa90610a5d565b60405180910390fd5b61035c8286868403610480565b6000336102ef8185856105fa565b6001600160a01b03918216600090815260016020908152604080832093909416825291909152205490565b610451610534565b6001600160a01b0381166104775760405162461bcd60e51b81526004016103fa90610ab0565b6103a48161055e565b6001600160a01b0383166104a65760405162461bcd60e51b81526004016103fa90610b01565b6001600160a01b0382166104cc5760405162461bcd60e51b81526004016103fa90610b50565b6001600160a01b0380841660008181526001602090815260408083209487168084529490915290819020849055517f8c5be1e5ebec7d5bd14f71427d1e84f3dd0314c0f7b2291e5b200ac8c7c3b925906105279085906108b3565b60405180910390a3505050565b6005546001600160a01b031633146103b95760405162461bcd60e51b81526004016103fa90610b95565b600580546001600160a01b038381166001600160a01b0319831681179093556040519116919082907f8be0079c531659141344cd1fd0a4f28419497f9722a3daafe3b4186f6b6457e090600090a35050565b60006105bc848461041e565b905060001981146105f457818110156105e75760405162461bcd60e51b81526004016103fa90610bd9565b6105f48484848403610480565b50505050565b6001600160a01b0383166106205760405162461bcd60e51b81526004016103fa90610c2b565b6001600160a01b0382166106465760405162461bcd60e51b81526004016103fa90610c7b565b6001600160a01b0383166000908152602081905260409020548181101561067f5760405162461bcd60e51b81526004016103fa90610cce565b6001600160a01b0380851660008181526020819052604080822086860390559286168082529083902080548601905591517fddf252ad1be2c89b69c2b068fc378daa952ba7f163c4a11628f55a4df523b3ef906106dd9086906108b3565b60405180910390a36105f4565b6001600160a01b0382166107105760405162461bcd60e51b81526004016103fa90610d12565b80600260008282546107229190610a05565b90915550506001600160a01b038216600081815260208190526040808220805485019055517fddf252ad1be2c89b69c2b068fc378daa952ba7f163c4a11628f55a4df523b3ef906107749085906108b3565b60405180910390a35050565b60005b8381101561079b578181015183820152602001610783565b50506000910152565b60006107ae825190565b8084526020840193506107c5818560208601610780565b601f01601f19169290920192915050565b602080825281016107e781846107a4565b9392505050565b60006001600160a01b0382166102f5565b610808816107ee565b81146103a457600080fd5b80356102f5816107ff565b80610808565b80356102f58161081e565b6000806040838503121561084557610845600080fd5b60006108518585610813565b925050602061086285828601610824565b9150509250929050565b8015155b82525050565b602081016102f5828461086c565b60006020828403121561089957610899600080fd5b60006108a58484610813565b949350505050565b80610870565b602081016102f582846108ad565b6000806000606084860312156108d9576108d9600080fd5b60006108e58686610813565b93505060206108f686828701610813565b925050604061090786828701610824565b9150509250925092565b60ff8116610870565b602081016102f58284610911565b6001600160801b038116610808565b80356102f581610928565b60006020828403121561095757610957600080fd5b60006108a58484610937565b610870816107ee565b602081016102f58284610963565b6000806040838503121561099057610990600080fd5b600061099c8585610813565b925050602061086285828601610813565b634e487b7160e01b600052602260045260246000fd5b6002810460018216806109d757607f821691505b6020821081036109e9576109e96109ad565b50919050565b634e487b7160e01b600052601160045260246000fd5b808201808211156102f5576102f56109ef565b602581526000602082017f45524332303a2064656372656173656420616c6c6f77616e63652062656c6f77815264207a65726f60d81b602082015291505b5060400190565b602080825281016102f581610a18565b602681526000602082017f4f776e61626c653a206e6577206f776e657220697320746865207a65726f206181526564647265737360d01b60208201529150610a56565b602080825281016102f581610a6d565b602481526000602082017f45524332303a20617070726f76652066726f6d20746865207a65726f206164648152637265737360e01b60208201529150610a56565b602080825281016102f581610ac0565b602281526000602082017f45524332303a20617070726f766520746f20746865207a65726f206164647265815261737360f01b60208201529150610a56565b602080825281016102f581610b11565b60208082527f4f776e61626c653a2063616c6c6572206973206e6f7420746865206f776e6572910190815260005b5060200190565b602080825281016102f581610b60565b601d81526000602082017f45524332303a20696e73756666696369656e7420616c6c6f77616e636500000081529150610b8e565b602080825281016102f581610ba5565b602581526000602082017f45524332303a207472616e736665722066726f6d20746865207a65726f206164815264647265737360d81b60208201529150610a56565b602080825281016102f581610be9565b602381526000602082017f45524332303a207472616e7366657220746f20746865207a65726f206164647281526265737360e81b60208201529150610a56565b602080825281016102f581610c3b565b602681526000602082017f45524332303a207472616e7366657220616d6f756e7420657863656564732062815265616c616e636560d01b60208201529150610a56565b602080825281016102f581610c8b565b601f81526000602082017f45524332303a206d696e7420746f20746865207a65726f20616464726573730081529150610b8e565b602080825281016102f581610cde56fea26469706673582212208f97b6854b99c8911065e5a90165b53521d341fedf451daa5b2e1caf5a64b9fa64736f6c63430008110033",
  "linkReferences": {},
  "deployedLinkReferences": {}
}